{
  "contractName": "I3MarketTreasury",
  "abi": [
    {
      "inputs": [],
      "stateMutability": "nonpayable",
      "type": "constructor"
    },
    {
      "anonymous": false,
      "inputs": [
        {
          "indexed": true,
          "internalType": "address",
          "name": "account",
          "type": "address"
        },
        {
          "indexed": true,
          "internalType": "address",
          "name": "operator",
          "type": "address"
        },
        {
          "indexed": false,
          "internalType": "bool",
          "name": "approved",
          "type": "bool"
        }
      ],
      "name": "ApprovalForAll",
      "type": "event"
    },
    {
      "anonymous": false,
      "inputs": [
        {
          "indexed": false,
          "internalType": "uint256",
          "name": "log",
          "type": "uint256"
        }
      ],
      "name": "LogD",
      "type": "event"
    },
    {
      "anonymous": false,
      "inputs": [
        {
          "indexed": false,
          "internalType": "string",
          "name": "transferId",
          "type": "string"
        },
        {
          "indexed": false,
          "internalType": "string",
          "name": "operation",
          "type": "string"
        },
        {
          "indexed": false,
          "internalType": "address",
          "name": "_sender",
          "type": "address"
        }
      ],
      "name": "TokenTransferred",
      "type": "event"
    },
    {
      "anonymous": false,
      "inputs": [
        {
          "indexed": true,
          "internalType": "address",
          "name": "operator",
          "type": "address"
        },
        {
          "indexed": true,
          "internalType": "address",
          "name": "from",
          "type": "address"
        },
        {
          "indexed": true,
          "internalType": "address",
          "name": "to",
          "type": "address"
        },
        {
          "indexed": false,
          "internalType": "uint256[]",
          "name": "ids",
          "type": "uint256[]"
        },
        {
          "indexed": false,
          "internalType": "uint256[]",
          "name": "values",
          "type": "uint256[]"
        }
      ],
      "name": "TransferBatch",
      "type": "event"
    },
    {
      "anonymous": false,
      "inputs": [
        {
          "indexed": true,
          "internalType": "address",
          "name": "operator",
          "type": "address"
        },
        {
          "indexed": true,
          "internalType": "address",
          "name": "from",
          "type": "address"
        },
        {
          "indexed": true,
          "internalType": "address",
          "name": "to",
          "type": "address"
        },
        {
          "indexed": false,
          "internalType": "uint256",
          "name": "id",
          "type": "uint256"
        },
        {
          "indexed": false,
          "internalType": "uint256",
          "name": "value",
          "type": "uint256"
        }
      ],
      "name": "TransferSingle",
      "type": "event"
    },
    {
      "anonymous": false,
      "inputs": [
        {
          "indexed": false,
          "internalType": "string",
          "name": "value",
          "type": "string"
        },
        {
          "indexed": true,
          "internalType": "uint256",
          "name": "id",
          "type": "uint256"
        }
      ],
      "name": "URI",
      "type": "event"
    },
    {
      "inputs": [
        {
          "internalType": "address",
          "name": "account",
          "type": "address"
        },
        {
          "internalType": "uint256",
          "name": "id",
          "type": "uint256"
        }
      ],
      "name": "balanceOf",
      "outputs": [
        {
          "internalType": "uint256",
          "name": "",
          "type": "uint256"
        }
      ],
      "stateMutability": "view",
      "type": "function"
    },
    {
      "inputs": [
        {
          "internalType": "address[]",
          "name": "accounts",
          "type": "address[]"
        },
        {
          "internalType": "uint256[]",
          "name": "ids",
          "type": "uint256[]"
        }
      ],
      "name": "balanceOfBatch",
      "outputs": [
        {
          "internalType": "uint256[]",
          "name": "",
          "type": "uint256[]"
        }
      ],
      "stateMutability": "view",
      "type": "function"
    },
    {
      "inputs": [],
      "name": "index",
      "outputs": [
        {
          "internalType": "uint256",
          "name": "",
          "type": "uint256"
        }
      ],
      "stateMutability": "view",
      "type": "function"
    },
    {
      "inputs": [
        {
          "internalType": "address",
          "name": "account",
          "type": "address"
        },
        {
          "internalType": "address",
          "name": "operator",
          "type": "address"
        }
      ],
      "name": "isApprovedForAll",
      "outputs": [
        {
          "internalType": "bool",
          "name": "",
          "type": "bool"
        }
      ],
      "stateMutability": "view",
      "type": "function"
    },
    {
      "inputs": [
        {
          "internalType": "uint256",
          "name": "",
          "type": "uint256"
        }
      ],
      "name": "marketplaces",
      "outputs": [
        {
          "internalType": "address",
          "name": "",
          "type": "address"
        }
      ],
      "stateMutability": "view",
      "type": "function"
    },
    {
      "inputs": [
        {
          "internalType": "address",
          "name": "",
          "type": "address"
        }
      ],
      "name": "marketplacesIndex",
      "outputs": [
        {
          "internalType": "uint256",
          "name": "",
          "type": "uint256"
        }
      ],
      "stateMutability": "view",
      "type": "function"
    },
    {
      "inputs": [
        {
          "internalType": "string",
          "name": "",
          "type": "string"
        }
      ],
      "name": "openConflicts",
      "outputs": [
        {
          "internalType": "string",
          "name": "transferId",
          "type": "string"
        },
        {
          "internalType": "address",
          "name": "applicant",
          "type": "address"
        },
        {
          "internalType": "address",
          "name": "recipient",
          "type": "address"
        },
        {
          "internalType": "bool",
          "name": "open",
          "type": "bool"
        }
      ],
      "stateMutability": "view",
      "type": "function"
    },
    {
      "inputs": [
        {
          "internalType": "address",
          "name": "from",
          "type": "address"
        },
        {
          "internalType": "address",
          "name": "to",
          "type": "address"
        },
        {
          "internalType": "uint256[]",
          "name": "ids",
          "type": "uint256[]"
        },
        {
          "internalType": "uint256[]",
          "name": "amounts",
          "type": "uint256[]"
        },
        {
          "internalType": "bytes",
          "name": "data",
          "type": "bytes"
        }
      ],
      "name": "safeBatchTransferFrom",
      "outputs": [],
      "stateMutability": "nonpayable",
      "type": "function"
    },
    {
      "inputs": [
        {
          "internalType": "address",
          "name": "from",
          "type": "address"
        },
        {
          "internalType": "address",
          "name": "to",
          "type": "address"
        },
        {
          "internalType": "uint256",
          "name": "id",
          "type": "uint256"
        },
        {
          "internalType": "uint256",
          "name": "amount",
          "type": "uint256"
        },
        {
          "internalType": "bytes",
          "name": "data",
          "type": "bytes"
        }
      ],
      "name": "safeTransferFrom",
      "outputs": [],
      "stateMutability": "nonpayable",
      "type": "function"
    },
    {
      "inputs": [
        {
          "internalType": "address",
          "name": "operator",
          "type": "address"
        },
        {
          "internalType": "bool",
          "name": "approved",
          "type": "bool"
        }
      ],
      "name": "setApprovalForAll",
      "outputs": [],
      "stateMutability": "nonpayable",
      "type": "function"
    },
    {
      "inputs": [
        {
          "internalType": "bytes4",
          "name": "interfaceId",
          "type": "bytes4"
        }
      ],
      "name": "supportsInterface",
      "outputs": [
        {
          "internalType": "bool",
          "name": "",
          "type": "bool"
        }
      ],
      "stateMutability": "view",
      "type": "function"
    },
    {
      "inputs": [
        {
          "internalType": "string",
          "name": "",
          "type": "string"
        }
      ],
      "name": "transactions",
      "outputs": [
        {
          "internalType": "string",
          "name": "transferId",
          "type": "string"
        },
        {
          "internalType": "address",
          "name": "fromAddress",
          "type": "address"
        },
        {
          "internalType": "address",
          "name": "toAddress",
          "type": "address"
        },
        {
          "internalType": "uint256",
          "name": "tokenAmount",
          "type": "uint256"
        },
        {
          "internalType": "bool",
          "name": "isPaid",
          "type": "bool"
        },
        {
          "internalType": "string",
          "name": "transferCode",
          "type": "string"
        }
      ],
      "stateMutability": "view",
      "type": "function"
    },
    {
      "inputs": [
        {
          "internalType": "uint256",
          "name": "",
          "type": "uint256"
        }
      ],
      "name": "uri",
      "outputs": [
        {
          "internalType": "string",
          "name": "",
          "type": "string"
        }
      ],
      "stateMutability": "view",
      "type": "function"
    },
    {
      "inputs": [
        {
          "internalType": "address",
          "name": "_marketplaceAddress",
          "type": "address"
        }
      ],
      "name": "addMarketplace",
      "outputs": [],
      "stateMutability": "nonpayable",
      "type": "function"
    },
    {
      "inputs": [
        {
          "internalType": "address",
          "name": "_marketplaceAddress",
          "type": "address"
        }
      ],
      "name": "getMarketplaceIndex",
      "outputs": [
        {
          "internalType": "uint256",
          "name": "",
          "type": "uint256"
        }
      ],
      "stateMutability": "view",
      "type": "function"
    },
    {
      "inputs": [
        {
          "internalType": "string",
          "name": "transferId",
          "type": "string"
        },
        {
          "internalType": "address",
          "name": "_userAddress",
          "type": "address"
        },
        {
          "internalType": "uint256",
          "name": "_tokensAmount",
          "type": "uint256"
        }
      ],
      "name": "exchangeIn",
      "outputs": [],
      "stateMutability": "payable",
      "type": "function"
    },
    {
      "inputs": [
        {
          "internalType": "string",
          "name": "transferId",
          "type": "string"
        }
      ],
      "name": "clearing",
      "outputs": [],
      "stateMutability": "payable",
      "type": "function"
    },
    {
      "inputs": [
        {
          "internalType": "string",
          "name": "transferId",
          "type": "string"
        },
        {
          "internalType": "address",
          "name": "_dataProvider",
          "type": "address"
        },
        {
          "internalType": "uint256",
          "name": "amount",
          "type": "uint256"
        }
      ],
      "name": "payment",
      "outputs": [],
      "stateMutability": "payable",
      "type": "function"
    },
    {
      "inputs": [
        {
          "internalType": "string",
          "name": "transferId",
          "type": "string"
        },
        {
          "internalType": "address",
          "name": "_marketplaceAddress",
          "type": "address"
        }
      ],
      "name": "exchangeOut",
      "outputs": [],
      "stateMutability": "payable",
      "type": "function"
    },
    {
      "inputs": [
        {
          "internalType": "string",
          "name": "_transferId",
          "type": "string"
        }
      ],
      "name": "getTransaction",
      "outputs": [
        {
          "components": [
            {
              "internalType": "string",
              "name": "transferId",
              "type": "string"
            },
            {
              "internalType": "address",
              "name": "fromAddress",
              "type": "address"
            },
            {
              "internalType": "address",
              "name": "toAddress",
              "type": "address"
            },
            {
              "internalType": "uint256",
              "name": "tokenAmount",
              "type": "uint256"
            },
            {
              "internalType": "bool",
              "name": "isPaid",
              "type": "bool"
            },
            {
              "internalType": "string",
              "name": "transferCode",
              "type": "string"
            }
          ],
          "internalType": "struct I3MarketTreasury.TokenTransfer",
          "name": "tokenTransfer",
          "type": "tuple"
        }
      ],
      "stateMutability": "view",
      "type": "function"
    },
    {
      "inputs": [
        {
          "internalType": "string",
          "name": "_transferId",
          "type": "string"
        },
        {
          "internalType": "string",
          "name": "_transferCode",
          "type": "string"
        }
      ],
      "name": "setPaid",
      "outputs": [],
      "stateMutability": "payable",
      "type": "function"
    },
    {
      "inputs": [
        {
          "internalType": "string",
          "name": "_transferId",
          "type": "string"
        },
        {
          "internalType": "string",
          "name": "transferCode",
          "type": "string"
        }
      ],
      "name": "setTransferCode",
      "outputs": [],
      "stateMutability": "payable",
      "type": "function"
    },
    {
      "inputs": [
        {
          "internalType": "string",
          "name": "_transferId",
          "type": "string"
        },
        {
          "internalType": "address",
          "name": "recipient",
          "type": "address"
        }
      ],
      "name": "openConflict",
      "outputs": [],
      "stateMutability": "payable",
      "type": "function"
    },
    {
      "inputs": [
        {
          "internalType": "string",
          "name": "_transferId",
          "type": "string"
        }
      ],
      "name": "closeConflict",
      "outputs": [],
      "stateMutability": "payable",
      "type": "function"
    },
    {
      "inputs": [
        {
          "internalType": "address",
          "name": "_owner",
          "type": "address"
        }
      ],
      "name": "balanceOfAddress",
      "outputs": [
        {
          "internalType": "uint256[]",
          "name": "",
          "type": "uint256[]"
        }
      ],
      "stateMutability": "view",
      "type": "function"
    }
  ],
  "bytecode": "0x608060405260006007553480156200001657600080fd5b506040518060600160405280602a815260200162005990602a913962000042816200004960201b60201c565b506200017a565b80600290805190602001906200006192919062000065565b5050565b828054620000739062000115565b90600052602060002090601f016020900481019282620000975760008555620000e3565b82601f10620000b257805160ff1916838001178555620000e3565b82800160010185558215620000e3579182015b82811115620000e2578251825591602001919060010190620000c5565b5b509050620000f29190620000f6565b5090565b5b8082111562000111576000816000905550600101620000f7565b5090565b600060028204905060018216806200012e57607f821691505b602082108114156200014557620001446200014b565b5b50919050565b7f4e487b7100000000000000000000000000000000000000000000000000000000600052602260045260246000fd5b615806806200018a6000396000f3fe6080604052600436106101655760003560e01c80634e1273f4116100d1578063a22cb4651161008a578063c264679c11610064578063c264679c1461055f578063d9e274581461057b578063e985e9c514610597578063f242432a146105d457610165565b8063a22cb465146104dd578063ac2ccd0714610506578063b9bf59911461054357610165565b80634e1273f4146103e657806371771330146104235780638081e9901461044c578063860005f31461046857806386212b8f1461048457806390977087146104c157610165565b80632838ac97116101235780632838ac97146102dd5780632986c0e5146102f95780632b64deec146103245780632eb2c2d61461036157806339c53b101461038a5780634343f319146103a657610165565b8062fdd58e1461016a57806301ffc9a7146101a7578063022236f4146101e4578063092e7737146102265780630e89341c146102635780630ede2aa5146102a0575b600080fd5b34801561017657600080fd5b50610191600480360381019061018c9190613ec6565b6105fd565b60405161019e919061529e565b60405180910390f35b3480156101b357600080fd5b506101ce60048036038101906101c99190613f6e565b6106c6565b6040516101db9190614df8565b60405180910390f35b3480156101f057600080fd5b5061020b60048036038101906102069190613fc0565b6107a8565b60405161021d96959493929190614e81565b60405180910390f35b34801561023257600080fd5b5061024d60048036038101906102489190613cd7565b610957565b60405161025a919061529e565b60405180910390f35b34801561026f57600080fd5b5061028a60048036038101906102859190614128565b6109a0565b6040516102979190614e13565b60405180910390f35b3480156102ac57600080fd5b506102c760048036038101906102c29190613cd7565b610a34565b6040516102d4919061529e565b60405180910390f35b6102f760048036038101906102f291906140bc565b610a4c565b005b34801561030557600080fd5b5061030e610b37565b60405161031b919061529e565b60405180910390f35b34801561033057600080fd5b5061034b60048036038101906103469190614128565b610b3d565b6040516103589190614cc2565b60405180910390f35b34801561036d57600080fd5b5061038860048036038101906103839190613d3c565b610b7c565b005b6103a4600480360381019061039f9190614001565b610c1d565b005b3480156103b257600080fd5b506103cd60048036038101906103c89190613fc0565b610f8a565b6040516103dd9493929190614e35565b60405180910390f35b3480156103f257600080fd5b5061040d60048036038101906104089190613f02565b6110a5565b60405161041a9190614d9f565b60405180910390f35b34801561042f57600080fd5b5061044a60048036038101906104459190613cd7565b611256565b005b610466600480360381019061046191906140bc565b611410565b005b610482600480360381019061047d9190614001565b611535565b005b34801561049057600080fd5b506104ab60048036038101906104a69190613cd7565b6118c5565b6040516104b89190614d9f565b60405180910390f35b6104db60048036038101906104d69190614055565b6119bf565b005b3480156104e957600080fd5b5061050460048036038101906104ff9190613e8a565b611cc9565b005b34801561051257600080fd5b5061052d60048036038101906105289190613fc0565b611e4a565b60405161053a919061527c565b60405180910390f35b61055d60048036038101906105589190613fc0565b612077565b005b61057960048036038101906105749190614055565b612480565b005b61059560048036038101906105909190613fc0565b612783565b005b3480156105a357600080fd5b506105be60048036038101906105b99190613d00565b612871565b6040516105cb9190614df8565b60405180910390f35b3480156105e057600080fd5b506105fb60048036038101906105f69190613dfb565b612905565b005b60008073ffffffffffffffffffffffffffffffffffffffff168373ffffffffffffffffffffffffffffffffffffffff16141561066e576040517f08c379a00000000000000000000000000000000000000000000000000000000081526004016106659061507c565b60405180910390fd5b60008083815260200190815260200160002060008473ffffffffffffffffffffffffffffffffffffffff1673ffffffffffffffffffffffffffffffffffffffff16815260200190815260200160002054905092915050565b60007fd9b67a26000000000000000000000000000000000000000000000000000000007bffffffffffffffffffffffffffffffffffffffffffffffffffffffff1916827bffffffffffffffffffffffffffffffffffffffffffffffffffffffff1916148061079157507f0e89341c000000000000000000000000000000000000000000000000000000007bffffffffffffffffffffffffffffffffffffffffffffffffffffffff1916827bffffffffffffffffffffffffffffffffffffffffffffffffffffffff1916145b806107a157506107a0826129a6565b5b9050919050565b6004818051602081018201805184825260208301602085012081835280955050505050506000915090508060000180546107e190615598565b80601f016020809104026020016040519081016040528092919081815260200182805461080d90615598565b801561085a5780601f1061082f5761010080835404028352916020019161085a565b820191906000526020600020905b81548152906001019060200180831161083d57829003601f168201915b5050505050908060010160009054906101000a900473ffffffffffffffffffffffffffffffffffffffff16908060020160009054906101000a900473ffffffffffffffffffffffffffffffffffffffff16908060030154908060040160009054906101000a900460ff16908060050180546108d490615598565b80601f016020809104026020016040519081016040528092919081815260200182805461090090615598565b801561094d5780601f106109225761010080835404028352916020019161094d565b820191906000526020600020905b81548152906001019060200180831161093057829003601f168201915b5050505050905086565b6000600560008373ffffffffffffffffffffffffffffffffffffffff1673ffffffffffffffffffffffffffffffffffffffff168152602001908152602001600020549050919050565b6060600280546109af90615598565b80601f01602080910402602001604051908101604052809291908181526020018280546109db90615598565b8015610a285780601f106109fd57610100808354040283529160200191610a28565b820191906000526020600020905b815481529060010190602001808311610a0b57829003601f168201915b50505050509050919050565b60056020528060005260406000206000915090505481565b813373ffffffffffffffffffffffffffffffffffffffff16600482604051610a749190614cab565b908152602001604051809103902060020160009054906101000a900473ffffffffffffffffffffffffffffffffffffffff1673ffffffffffffffffffffffffffffffffffffffff1614610afc576040517f08c379a0000000000000000000000000000000000000000000000000000000008152600401610af39061505c565b60405180910390fd5b81600484604051610b0d9190614cab565b90815260200160405180910390206005019080519060200190610b3192919061396b565b50505050565b60075481565b60068181548110610b4d57600080fd5b906000526020600020016000915054906101000a900473ffffffffffffffffffffffffffffffffffffffff1681565b610b84612a10565b73ffffffffffffffffffffffffffffffffffffffff168573ffffffffffffffffffffffffffffffffffffffff161480610bca5750610bc985610bc4612a10565b612871565b5b610c09576040517f08c379a0000000000000000000000000000000000000000000000000000000008152600401610c009061513c565b60405180910390fd5b610c168585858585612a18565b5050505050565b600060075467ffffffffffffffff811115610c61577f4e487b7100000000000000000000000000000000000000000000000000000000600052604160045260246000fd5b604051908082528060200260200182016040528015610c8f5781602001602082028036833780820191505090505b50905060005b600754811015610d0257600181610cac9190615458565b828281518110610ce5577f4e487b7100000000000000000000000000000000000000000000000000000000600052603260045260246000fd5b60200260200101818152505080610cfb906155ca565b9050610c95565b50600060075467ffffffffffffffff811115610d47577f4e487b7100000000000000000000000000000000000000000000000000000000600052604160045260246000fd5b604051908082528060200260200182016040528015610d755781602001602082028036833780820191505090505b509050610d81336118c5565b9050610dc5338484846040518060400160405280600381526020017f3078300000000000000000000000000000000000000000000000000000000000815250610b7c565b6040518060c001604052808581526020013373ffffffffffffffffffffffffffffffffffffffff1681526020018473ffffffffffffffffffffffffffffffffffffffff168152602001610e1783612d78565b815260200160001515815260200160405180602001604052806000815250815250600485604051610e489190614cab565b90815260200160405180910390206000820151816000019080519060200190610e7292919061396b565b5060208201518160010160006101000a81548173ffffffffffffffffffffffffffffffffffffffff021916908373ffffffffffffffffffffffffffffffffffffffff16021790555060408201518160020160006101000a81548173ffffffffffffffffffffffffffffffffffffffff021916908373ffffffffffffffffffffffffffffffffffffffff1602179055506060820151816003015560808201518160040160006101000a81548160ff02191690831515021790555060a0820151816005019080519060200190610f4792919061396b565b509050507fdc51063e5ef77d99943e8395b0bb76177d3959e8bf37a0e41937bdd9e99fc8ff8484604051610f7c929190614fb9565b60405180910390a150505050565b600381805160208101820180518482526020830160208501208183528095505050505050600091509050806000018054610fc390615598565b80601f0160208091040260200160405190810160405280929190818152602001828054610fef90615598565b801561103c5780601f106110115761010080835404028352916020019161103c565b820191906000526020600020905b81548152906001019060200180831161101f57829003601f168201915b5050505050908060010160009054906101000a900473ffffffffffffffffffffffffffffffffffffffff16908060020160009054906101000a900473ffffffffffffffffffffffffffffffffffffffff16908060020160149054906101000a900460ff16905084565b606081518351146110eb576040517f08c379a00000000000000000000000000000000000000000000000000000000081526004016110e2906151fc565b60405180910390fd5b6000835167ffffffffffffffff81111561112e577f4e487b7100000000000000000000000000000000000000000000000000000000600052604160045260246000fd5b60405190808252806020026020018201604052801561115c5781602001602082028036833780820191505090505b50905060005b845181101561124b576111f58582815181106111a7577f4e487b7100000000000000000000000000000000000000000000000000000000600052603260045260246000fd5b60200260200101518583815181106111e8577f4e487b7100000000000000000000000000000000000000000000000000000000600052603260045260246000fd5b60200260200101516105fd565b82828151811061122e577f4e487b7100000000000000000000000000000000000000000000000000000000600052603260045260246000fd5b60200260200101818152505080611244906155ca565b9050611162565b508091505092915050565b808073ffffffffffffffffffffffffffffffffffffffff163373ffffffffffffffffffffffffffffffffffffffff16146112c5576040517f08c379a00000000000000000000000000000000000000000000000000000000081526004016112bc906151bc565b60405180910390fd5b816000600560008373ffffffffffffffffffffffffffffffffffffffff1673ffffffffffffffffffffffffffffffffffffffff1681526020019081526020016000205414611348576040517f08c379a000000000000000000000000000000000000000000000000000000000815260040161133f9061517c565b60405180910390fd5b60016007600082825461135b9190615458565b925050819055506006839080600181540180825580915050600190039060005260206000200160009091909190916101000a81548173ffffffffffffffffffffffffffffffffffffffff021916908373ffffffffffffffffffffffffffffffffffffffff160217905550600754600560008573ffffffffffffffffffffffffffffffffffffffff1673ffffffffffffffffffffffffffffffffffffffff16815260200190815260200160002081905550505050565b813373ffffffffffffffffffffffffffffffffffffffff166004826040516114389190614cab565b908152602001604051809103902060020160009054906101000a900473ffffffffffffffffffffffffffffffffffffffff1673ffffffffffffffffffffffffffffffffffffffff16146114c0576040517f08c379a00000000000000000000000000000000000000000000000000000000081526004016114b79061505c565b60405180910390fd5b60016004846040516114d29190614cab565b908152602001604051809103902060040160006101000a81548160ff0219169083151502179055508160048460405161150b9190614cab565b9081526020016040518091039020600501908051906020019061152f92919061396b565b50505050565b81816004826040516115479190614cab565b908152602001604051809103902060020160009054906101000a900473ffffffffffffffffffffffffffffffffffffffff1673ffffffffffffffffffffffffffffffffffffffff163373ffffffffffffffffffffffffffffffffffffffff16148061161e57506004826040516115bd9190614cab565b908152602001604051809103902060010160009054906101000a900473ffffffffffffffffffffffffffffffffffffffff1673ffffffffffffffffffffffffffffffffffffffff163373ffffffffffffffffffffffffffffffffffffffff16145b61165d576040517f08c379a0000000000000000000000000000000000000000000000000000000008152600401611654906150fc565b60405180910390fd5b60048260405161166d9190614cab565b908152602001604051809103902060020160009054906101000a900473ffffffffffffffffffffffffffffffffffffffff1673ffffffffffffffffffffffffffffffffffffffff168173ffffffffffffffffffffffffffffffffffffffff16148061174457506004826040516116e39190614cab565b908152602001604051809103902060010160009054906101000a900473ffffffffffffffffffffffffffffffffffffffff1673ffffffffffffffffffffffffffffffffffffffff168173ffffffffffffffffffffffffffffffffffffffff16145b611783576040517f08c379a000000000000000000000000000000000000000000000000000000000815260040161177a9061509c565b60405180910390fd5b60405180608001604052808581526020013373ffffffffffffffffffffffffffffffffffffffff1681526020018473ffffffffffffffffffffffffffffffffffffffff168152602001600115158152506003856040516117e39190614cab565b9081526020016040518091039020600082015181600001908051906020019061180d92919061396b565b5060208201518160010160006101000a81548173ffffffffffffffffffffffffffffffffffffffff021916908373ffffffffffffffffffffffffffffffffffffffff16021790555060408201518160020160006101000a81548173ffffffffffffffffffffffffffffffffffffffff021916908373ffffffffffffffffffffffffffffffffffffffff16021790555060608201518160020160146101000a81548160ff02191690831515021790555090505050505050565b6060600060075467ffffffffffffffff81111561190b577f4e487b7100000000000000000000000000000000000000000000000000000000600052604160045260246000fd5b6040519080825280602002602001820160405280156119395781602001602082028036833780820191505090505b50905060005b6007548110156119b55761195f8460018361195a9190615458565b6105fd565b828281518110611998577f4e487b7100000000000000000000000000000000000000000000000000000000600052603260045260246000fd5b602002602001018181525050806119ae906155ca565b905061193f565b5080915050919050565b818073ffffffffffffffffffffffffffffffffffffffff163373ffffffffffffffffffffffffffffffffffffffff161415611a2f576040517f08c379a0000000000000000000000000000000000000000000000000000000008152600401611a269061519c565b60405180910390fd5b6000600560003373ffffffffffffffffffffffffffffffffffffffff1673ffffffffffffffffffffffffffffffffffffffff168152602001908152602001600020541415611ab2576040517f08c379a0000000000000000000000000000000000000000000000000000000008152600401611aa9906150dc565b60405180910390fd5b611b0c83600560003373ffffffffffffffffffffffffffffffffffffffff1673ffffffffffffffffffffffffffffffffffffffff168152602001908152602001600020548460405180602001604052806000815250612df5565b6040518060c001604052808581526020013373ffffffffffffffffffffffffffffffffffffffff1681526020018473ffffffffffffffffffffffffffffffffffffffff16815260200183815260200160011515815260200160405180602001604052806000815250815250600485604051611b879190614cab565b90815260200160405180910390206000820151816000019080519060200190611bb192919061396b565b5060208201518160010160006101000a81548173ffffffffffffffffffffffffffffffffffffffff021916908373ffffffffffffffffffffffffffffffffffffffff16021790555060408201518160020160006101000a81548173ffffffffffffffffffffffffffffffffffffffff021916908373ffffffffffffffffffffffffffffffffffffffff1602179055506060820151816003015560808201518160040160006101000a81548160ff02191690831515021790555060a0820151816005019080519060200190611c8692919061396b565b509050507fdc51063e5ef77d99943e8395b0bb76177d3959e8bf37a0e41937bdd9e99fc8ff8484604051611cbb929190614f76565b60405180910390a150505050565b8173ffffffffffffffffffffffffffffffffffffffff16611ce8612a10565b73ffffffffffffffffffffffffffffffffffffffff161415611d3f576040517f08c379a0000000000000000000000000000000000000000000000000000000008152600401611d36906151dc565b60405180910390fd5b8060016000611d4c612a10565b73ffffffffffffffffffffffffffffffffffffffff1673ffffffffffffffffffffffffffffffffffffffff16815260200190815260200160002060008473ffffffffffffffffffffffffffffffffffffffff1673ffffffffffffffffffffffffffffffffffffffff16815260200190815260200160002060006101000a81548160ff0219169083151502179055508173ffffffffffffffffffffffffffffffffffffffff16611df9612a10565b73ffffffffffffffffffffffffffffffffffffffff167f17307eab39ab6107e8899845ad3d59bd9653f200f220920489ca2b5937696c3183604051611e3e9190614df8565b60405180910390a35050565b611e526139f1565b600482604051611e629190614cab565b90815260200160405180910390206040518060c0016040529081600082018054611e8b90615598565b80601f0160208091040260200160405190810160405280929190818152602001828054611eb790615598565b8015611f045780601f10611ed957610100808354040283529160200191611f04565b820191906000526020600020905b815481529060010190602001808311611ee757829003601f168201915b505050505081526020016001820160009054906101000a900473ffffffffffffffffffffffffffffffffffffffff1673ffffffffffffffffffffffffffffffffffffffff1673ffffffffffffffffffffffffffffffffffffffff1681526020016002820160009054906101000a900473ffffffffffffffffffffffffffffffffffffffff1673ffffffffffffffffffffffffffffffffffffffff1673ffffffffffffffffffffffffffffffffffffffff168152602001600382015481526020016004820160009054906101000a900460ff16151515158152602001600582018054611fee90615598565b80601f016020809104026020016040519081016040528092919081815260200182805461201a90615598565b80156120675780601f1061203c57610100808354040283529160200191612067565b820191906000526020600020905b81548152906001019060200180831161204a57829003601f168201915b5050505050815250509050919050565b60005b60068054905081101561247c573373ffffffffffffffffffffffffffffffffffffffff16600682815481106120d8577f4e487b7100000000000000000000000000000000000000000000000000000000600052603260045260246000fd5b9060005260206000200160009054906101000a900473ffffffffffffffffffffffffffffffffffffffff1673ffffffffffffffffffffffffffffffffffffffff161461246b576000612136336001846121319190615458565b6105fd565b90506121ea3360068481548110612176577f4e487b7100000000000000000000000000000000000000000000000000000000600052603260045260246000fd5b9060005260206000200160009054906101000a900473ffffffffffffffffffffffffffffffffffffffff166001856121ae9190615458565b846040518060400160405280600381526020017f3078300000000000000000000000000000000000000000000000000000000000815250612905565b6040518060c001604052808481526020013373ffffffffffffffffffffffffffffffffffffffff16815260200160068481548110612251577f4e487b7100000000000000000000000000000000000000000000000000000000600052603260045260246000fd5b9060005260206000200160009054906101000a900473ffffffffffffffffffffffffffffffffffffffff1673ffffffffffffffffffffffffffffffffffffffff168152602001828152602001600015158152602001604051806020016040528060008152508152506004846040516122c99190614cab565b908152602001604051809103902060008201518160000190805190602001906122f392919061396b565b5060208201518160010160006101000a81548173ffffffffffffffffffffffffffffffffffffffff021916908373ffffffffffffffffffffffffffffffffffffffff16021790555060408201518160020160006101000a81548173ffffffffffffffffffffffffffffffffffffffff021916908373ffffffffffffffffffffffffffffffffffffffff1602179055506060820151816003015560808201518160040160006101000a81548160ff02191690831515021790555060a08201518160050190805190602001906123c892919061396b565b509050507fdc51063e5ef77d99943e8395b0bb76177d3959e8bf37a0e41937bdd9e99fc8ff8360068481548110612428577f4e487b7100000000000000000000000000000000000000000000000000000000600052603260045260246000fd5b9060005260206000200160009054906101000a900473ffffffffffffffffffffffffffffffffffffffff16604051612461929190614f33565b60405180910390a1505b80612475906155ca565b905061207a565b5050565b600060075467ffffffffffffffff8111156124c4577f4e487b7100000000000000000000000000000000000000000000000000000000600052604160045260246000fd5b6040519080825280602002602001820160405280156124f25781602001602082028036833780820191505090505b509050600060075467ffffffffffffffff811115612539577f4e487b7100000000000000000000000000000000000000000000000000000000600052604160045260246000fd5b6040519080825280602002602001820160405280156125675781602001602082028036833780820191505090505b50905061257383612f8b565b80925081935050506125bd338584846040518060400160405280600381526020017f3078300000000000000000000000000000000000000000000000000000000000815250610b7c565b6040518060c001604052808681526020013373ffffffffffffffffffffffffffffffffffffffff1681526020018573ffffffffffffffffffffffffffffffffffffffff16815260200161260f83612d78565b8152602001600015158152602001604051806020016040528060008152508152506004866040516126409190614cab565b9081526020016040518091039020600082015181600001908051906020019061266a92919061396b565b5060208201518160010160006101000a81548173ffffffffffffffffffffffffffffffffffffffff021916908373ffffffffffffffffffffffffffffffffffffffff16021790555060408201518160020160006101000a81548173ffffffffffffffffffffffffffffffffffffffff021916908373ffffffffffffffffffffffffffffffffffffffff1602179055506060820151816003015560808201518160040160006101000a81548160ff02191690831515021790555060a082015181600501908051906020019061273f92919061396b565b509050507fdc51063e5ef77d99943e8395b0bb76177d3959e8bf37a0e41937bdd9e99fc8ff8585604051612774929190614ef0565b60405180910390a15050505050565b803373ffffffffffffffffffffffffffffffffffffffff166003826040516127ab9190614cab565b908152602001604051809103902060010160009054906101000a900473ffffffffffffffffffffffffffffffffffffffff1673ffffffffffffffffffffffffffffffffffffffff1614612833576040517f08c379a000000000000000000000000000000000000000000000000000000000815260040161282a9061521c565b60405180910390fd5b60006003836040516128459190614cab565b908152602001604051809103902060020160146101000a81548160ff0219169083151502179055505050565b6000600160008473ffffffffffffffffffffffffffffffffffffffff1673ffffffffffffffffffffffffffffffffffffffff16815260200190815260200160002060008373ffffffffffffffffffffffffffffffffffffffff1673ffffffffffffffffffffffffffffffffffffffff16815260200190815260200160002060009054906101000a900460ff16905092915050565b61290d612a10565b73ffffffffffffffffffffffffffffffffffffffff168573ffffffffffffffffffffffffffffffffffffffff16148061295357506129528561294d612a10565b612871565b5b612992576040517f08c379a0000000000000000000000000000000000000000000000000000000008152600401612989906150bc565b60405180910390fd5b61299f8585858585613268565b5050505050565b60007f01ffc9a7000000000000000000000000000000000000000000000000000000007bffffffffffffffffffffffffffffffffffffffffffffffffffffffff1916827bffffffffffffffffffffffffffffffffffffffffffffffffffffffff1916149050919050565b600033905090565b8151835114612a5c576040517f08c379a0000000000000000000000000000000000000000000000000000000008152600401612a539061523c565b60405180910390fd5b600073ffffffffffffffffffffffffffffffffffffffff168473ffffffffffffffffffffffffffffffffffffffff161415612acc576040517f08c379a0000000000000000000000000000000000000000000000000000000008152600401612ac39061511c565b60405180910390fd5b6000612ad6612a10565b9050612ae68187878787876134ea565b60005b8451811015612ce3576000858281518110612b2d577f4e487b7100000000000000000000000000000000000000000000000000000000600052603260045260246000fd5b602002602001015190506000858381518110612b72577f4e487b7100000000000000000000000000000000000000000000000000000000600052603260045260246000fd5b60200260200101519050600080600084815260200190815260200160002060008b73ffffffffffffffffffffffffffffffffffffffff1673ffffffffffffffffffffffffffffffffffffffff16815260200190815260200160002054905081811015612c13576040517f08c379a0000000000000000000000000000000000000000000000000000000008152600401612c0a9061515c565b60405180910390fd5b81810360008085815260200190815260200160002060008c73ffffffffffffffffffffffffffffffffffffffff1673ffffffffffffffffffffffffffffffffffffffff168152602001908152602001600020819055508160008085815260200190815260200160002060008b73ffffffffffffffffffffffffffffffffffffffff1673ffffffffffffffffffffffffffffffffffffffff1681526020019081526020016000206000828254612cc89190615458565b9250508190555050505080612cdc906155ca565b9050612ae9565b508473ffffffffffffffffffffffffffffffffffffffff168673ffffffffffffffffffffffffffffffffffffffff168273ffffffffffffffffffffffffffffffffffffffff167f4a39dc06d4c0dbc64b70af90fd698a233a518aa5d07e595d983b8c0526c8f7fb8787604051612d5a929190614dc1565b60405180910390a4612d708187878787876134f2565b505050505050565b60008060008091505b8351821015612deb57838281518110612dc3577f4e487b7100000000000000000000000000000000000000000000000000000000600052603260045260246000fd5b602002602001015181612dd69190615458565b90508180612de3906155ca565b925050612d81565b8092505050919050565b600073ffffffffffffffffffffffffffffffffffffffff168473ffffffffffffffffffffffffffffffffffffffff161415612e65576040517f08c379a0000000000000000000000000000000000000000000000000000000008152600401612e5c9061525c565b60405180910390fd5b6000612e6f612a10565b9050612e9081600087612e81886136c2565b612e8a886136c2565b876134ea565b8260008086815260200190815260200160002060008773ffffffffffffffffffffffffffffffffffffffff1673ffffffffffffffffffffffffffffffffffffffff1681526020019081526020016000206000828254612eef9190615458565b925050819055508473ffffffffffffffffffffffffffffffffffffffff16600073ffffffffffffffffffffffffffffffffffffffff168273ffffffffffffffffffffffffffffffffffffffff167fc3d58168c5ae7397731d063d5bbf3d657854427343f4c083240f7aacaa2d0f628787604051612f6d9291906152b9565b60405180910390a4612f8481600087878787613788565b5050505050565b606080600060075467ffffffffffffffff811115612fd2577f4e487b7100000000000000000000000000000000000000000000000000000000600052604160045260246000fd5b6040519080825280602002602001820160405280156130005781602001602082028036833780820191505090505b509050600060075467ffffffffffffffff811115613047577f4e487b7100000000000000000000000000000000000000000000000000000000600052604160045260246000fd5b6040519080825280602002602001820160405280156130755781602001602082028036833780820191505090505b50905060005b60075481101561321757600061309d336001846130989190615458565b6105fd565b905060008114613205578087111561315a576001826130bc9190615458565b8483815181106130f5577f4e487b7100000000000000000000000000000000000000000000000000000000600052603260045260246000fd5b6020026020010181815250508083838151811061313b577f4e487b7100000000000000000000000000000000000000000000000000000000600052603260045260246000fd5b602002602001018181525050808761315391906154ae565b9650613204565b8087116132035760018261316e9190615458565b8483815181106131a7577f4e487b7100000000000000000000000000000000000000000000000000000000600052603260045260246000fd5b602002602001018181525050868383815181106131ed577f4e487b7100000000000000000000000000000000000000000000000000000000600052603260045260246000fd5b6020026020010181815250506000965050613217565b5b5b5080613210906155ca565b905061307b565b506000851461325b576040517f08c379a00000000000000000000000000000000000000000000000000000000081526004016132529061503c565b60405180910390fd5b8181935093505050915091565b600073ffffffffffffffffffffffffffffffffffffffff168473ffffffffffffffffffffffffffffffffffffffff1614156132d8576040517f08c379a00000000000000000000000000000000000000000000000000000000081526004016132cf9061511c565b60405180910390fd5b60006132e2612a10565b90506133028187876132f3886136c2565b6132fc886136c2565b876134ea565b600080600086815260200190815260200160002060008873ffffffffffffffffffffffffffffffffffffffff1673ffffffffffffffffffffffffffffffffffffffff16815260200190815260200160002054905083811015613399576040517f08c379a00000000000000000000000000000000000000000000000000000000081526004016133909061515c565b60405180910390fd5b83810360008087815260200190815260200160002060008973ffffffffffffffffffffffffffffffffffffffff1673ffffffffffffffffffffffffffffffffffffffff168152602001908152602001600020819055508360008087815260200190815260200160002060008873ffffffffffffffffffffffffffffffffffffffff1673ffffffffffffffffffffffffffffffffffffffff168152602001908152602001600020600082825461344e9190615458565b925050819055508573ffffffffffffffffffffffffffffffffffffffff168773ffffffffffffffffffffffffffffffffffffffff168373ffffffffffffffffffffffffffffffffffffffff167fc3d58168c5ae7397731d063d5bbf3d657854427343f4c083240f7aacaa2d0f6288886040516134cb9291906152b9565b60405180910390a46134e1828888888888613788565b50505050505050565b505050505050565b6135118473ffffffffffffffffffffffffffffffffffffffff16613958565b156136ba578373ffffffffffffffffffffffffffffffffffffffff1663bc197c8187878686866040518663ffffffff1660e01b8152600401613557959493929190614cdd565b602060405180830381600087803b15801561357157600080fd5b505af19250505080156135a257506040513d601f19601f8201168201806040525081019061359f9190613f97565b60015b613631576135ae6156be565b806135b957506135f6565b806040517f08c379a00000000000000000000000000000000000000000000000000000000081526004016135ed9190614e13565b60405180910390fd5b6040517f08c379a000000000000000000000000000000000000000000000000000000000815260040161362890614ffc565b60405180910390fd5b63bc197c8160e01b7bffffffffffffffffffffffffffffffffffffffffffffffffffffffff1916817bffffffffffffffffffffffffffffffffffffffffffffffffffffffff1916146136b8576040517f08c379a00000000000000000000000000000000000000000000000000000000081526004016136af9061501c565b60405180910390fd5b505b505050505050565b60606000600167ffffffffffffffff811115613707577f4e487b7100000000000000000000000000000000000000000000000000000000600052604160045260246000fd5b6040519080825280602002602001820160405280156137355781602001602082028036833780820191505090505b5090508281600081518110613773577f4e487b7100000000000000000000000000000000000000000000000000000000600052603260045260246000fd5b60200260200101818152505080915050919050565b6137a78473ffffffffffffffffffffffffffffffffffffffff16613958565b15613950578373ffffffffffffffffffffffffffffffffffffffff1663f23a6e6187878686866040518663ffffffff1660e01b81526004016137ed959493929190614d45565b602060405180830381600087803b15801561380757600080fd5b505af192505050801561383857506040513d601f19601f820116820180604052508101906138359190613f97565b60015b6138c7576138446156be565b8061384f575061388c565b806040517f08c379a00000000000000000000000000000000000000000000000000000000081526004016138839190614e13565b60405180910390fd5b6040517f08c379a00000000000000000000000000000000000000000000000000000000081526004016138be90614ffc565b60405180910390fd5b63f23a6e6160e01b7bffffffffffffffffffffffffffffffffffffffffffffffffffffffff1916817bffffffffffffffffffffffffffffffffffffffffffffffffffffffff19161461394e576040517f08c379a00000000000000000000000000000000000000000000000000000000081526004016139459061501c565b60405180910390fd5b505b505050505050565b600080823b905060008111915050919050565b82805461397790615598565b90600052602060002090601f01602090048101928261399957600085556139e0565b82601f106139b257805160ff19168380011785556139e0565b828001600101855582156139e0579182015b828111156139df5782518255916020019190600101906139c4565b5b5090506139ed9190613a55565b5090565b6040518060c0016040528060608152602001600073ffffffffffffffffffffffffffffffffffffffff168152602001600073ffffffffffffffffffffffffffffffffffffffff16815260200160008152602001600015158152602001606081525090565b5b80821115613a6e576000816000905550600101613a56565b5090565b6000613a85613a8084615313565b6152e2565b90508083825260208201905082856020860282011115613aa457600080fd5b60005b85811015613ad45781613aba8882613bc6565b845260208401935060208301925050600181019050613aa7565b5050509392505050565b6000613af1613aec8461533f565b6152e2565b90508083825260208201905082856020860282011115613b1057600080fd5b60005b85811015613b405781613b268882613cc2565b845260208401935060208301925050600181019050613b13565b5050509392505050565b6000613b5d613b588461536b565b6152e2565b905082815260208101848484011115613b7557600080fd5b613b80848285615556565b509392505050565b6000613b9b613b968461539b565b6152e2565b905082815260208101848484011115613bb357600080fd5b613bbe848285615556565b509392505050565b600081359050613bd581615774565b92915050565b600082601f830112613bec57600080fd5b8135613bfc848260208601613a72565b91505092915050565b600082601f830112613c1657600080fd5b8135613c26848260208601613ade565b91505092915050565b600081359050613c3e8161578b565b92915050565b600081359050613c53816157a2565b92915050565b600081519050613c68816157a2565b92915050565b600082601f830112613c7f57600080fd5b8135613c8f848260208601613b4a565b91505092915050565b600082601f830112613ca957600080fd5b8135613cb9848260208601613b88565b91505092915050565b600081359050613cd1816157b9565b92915050565b600060208284031215613ce957600080fd5b6000613cf784828501613bc6565b91505092915050565b60008060408385031215613d1357600080fd5b6000613d2185828601613bc6565b9250506020613d3285828601613bc6565b9150509250929050565b600080600080600060a08688031215613d5457600080fd5b6000613d6288828901613bc6565b9550506020613d7388828901613bc6565b945050604086013567ffffffffffffffff811115613d9057600080fd5b613d9c88828901613c05565b935050606086013567ffffffffffffffff811115613db957600080fd5b613dc588828901613c05565b925050608086013567ffffffffffffffff811115613de257600080fd5b613dee88828901613c6e565b9150509295509295909350565b600080600080600060a08688031215613e1357600080fd5b6000613e2188828901613bc6565b9550506020613e3288828901613bc6565b9450506040613e4388828901613cc2565b9350506060613e5488828901613cc2565b925050608086013567ffffffffffffffff811115613e7157600080fd5b613e7d88828901613c6e565b9150509295509295909350565b60008060408385031215613e9d57600080fd5b6000613eab85828601613bc6565b9250506020613ebc85828601613c2f565b9150509250929050565b60008060408385031215613ed957600080fd5b6000613ee785828601613bc6565b9250506020613ef885828601613cc2565b9150509250929050565b60008060408385031215613f1557600080fd5b600083013567ffffffffffffffff811115613f2f57600080fd5b613f3b85828601613bdb565b925050602083013567ffffffffffffffff811115613f5857600080fd5b613f6485828601613c05565b9150509250929050565b600060208284031215613f8057600080fd5b6000613f8e84828501613c44565b91505092915050565b600060208284031215613fa957600080fd5b6000613fb784828501613c59565b91505092915050565b600060208284031215613fd257600080fd5b600082013567ffffffffffffffff811115613fec57600080fd5b613ff884828501613c98565b91505092915050565b6000806040838503121561401457600080fd5b600083013567ffffffffffffffff81111561402e57600080fd5b61403a85828601613c98565b925050602061404b85828601613bc6565b9150509250929050565b60008060006060848603121561406a57600080fd5b600084013567ffffffffffffffff81111561408457600080fd5b61409086828701613c98565b93505060206140a186828701613bc6565b92505060406140b286828701613cc2565b9150509250925092565b600080604083850312156140cf57600080fd5b600083013567ffffffffffffffff8111156140e957600080fd5b6140f585828601613c98565b925050602083013567ffffffffffffffff81111561411257600080fd5b61411e85828601613c98565b9150509250929050565b60006020828403121561413a57600080fd5b600061414884828501613cc2565b91505092915050565b600061415d8383614c8d565b60208301905092915050565b614172816154e2565b82525050565b614181816154e2565b82525050565b6000614192826153db565b61419c8185615409565b93506141a7836153cb565b8060005b838110156141d85781516141bf8882614151565b97506141ca836153fc565b9250506001810190506141ab565b5085935050505092915050565b6141ee816154f4565b82525050565b6141fd816154f4565b82525050565b600061420e826153e6565b614218818561541a565b9350614228818560208601615565565b614231816156a0565b840191505092915050565b6000614247826153f1565b614251818561542b565b9350614261818560208601615565565b61426a816156a0565b840191505092915050565b6000614280826153f1565b61428a818561543c565b935061429a818560208601615565565b6142a3816156a0565b840191505092915050565b60006142b9826153f1565b6142c3818561544d565b93506142d3818560208601615565565b80840191505092915050565b60006142ec60348361543c565b91507f455243313135353a207472616e7366657220746f206e6f6e204552433131353560008301527f526563656976657220696d706c656d656e7465720000000000000000000000006020830152604082019050919050565b600061435260288361543c565b91507f455243313135353a204552433131353552656365697665722072656a6563746560008301527f6420746f6b656e730000000000000000000000000000000000000000000000006020830152604082019050919050565b60006143b8602c8361543c565b91507f544845204441544120434f4e53554d455220444f45534e27542048415645204560008301527f4e4f55474820544f4b454e5300000000000000000000000000000000000000006020830152604082019050919050565b600061441e60328361543c565b91507f4f4e4c592054484520544f4b454e2052454345495645522043414e205345542060008301527f5448452049535041494420544f205452554500000000000000000000000000006020830152604082019050919050565b6000614484602b8361543c565b91507f455243313135353a2062616c616e636520717565727920666f7220746865207a60008301527f65726f20616464726573730000000000000000000000000000000000000000006020830152604082019050919050565b60006144ea60078361543c565b91507f7061796d656e74000000000000000000000000000000000000000000000000006000830152602082019050919050565b600061452a603d8361543c565b91507f54484520434f4e464c49435420524543495049454e54204d555354204245204f60008301527f4e45204f4620544845205452414e53414354494f4e20504152544945530000006020830152604082019050919050565b600061459060088361543c565b91507f636c656172696e670000000000000000000000000000000000000000000000006000830152602082019050919050565b60006145d060298361543c565b91507f455243313135353a2063616c6c6572206973206e6f74206f776e6572206e6f7260008301527f20617070726f76656400000000000000000000000000000000000000000000006020830152604082019050919050565b600061463660478361543c565b91507f544849532041444452455353204953204e4f54204120524547554c4152204d4160008301527f524b4554504c41434520414e4420444f45534e27542048415645204120544f4b60208301527f454e2054595045000000000000000000000000000000000000000000000000006040830152606082019050919050565b60006146c2603d8361543c565b91507f54484520434f4e464c494354204150504c4943414e54204d555354204245204f60008301527f4e45204f4620544845205452414e53414354494f4e20504152544945530000006020830152604082019050919050565b6000614728600b8361543c565b91507f65786368616e67655f696e0000000000000000000000000000000000000000006000830152602082019050919050565b600061476860258361543c565b91507f455243313135353a207472616e7366657220746f20746865207a65726f20616460008301527f64726573730000000000000000000000000000000000000000000000000000006020830152604082019050919050565b60006147ce60328361543c565b91507f455243313135353a207472616e736665722063616c6c6572206973206e6f742060008301527f6f776e6572206e6f7220617070726f76656400000000000000000000000000006020830152604082019050919050565b6000614834602a8361543c565b91507f455243313135353a20696e73756666696369656e742062616c616e636520666f60008301527f72207472616e73666572000000000000000000000000000000000000000000006020830152604082019050919050565b600061489a601d8361543c565b91507f4d41524b4554504c4143452057415320414c52454144592041444445440000006000830152602082019050919050565b60006148da60218361543c565b91507f4d41524b4554504c4143452043414e4e4f54204d494e5420544f20495453454c60008301527f46000000000000000000000000000000000000000000000000000000000000006020830152604082019050919050565b6000614940600c8361543c565b91507f65786368616e67655f6f757400000000000000000000000000000000000000006000830152602082019050919050565b6000614980604d8361543c565b91507f4f4e4c5920544845204d41524b4554504c4143452043414e204144442049545360008301527f454c4620544f20544845204c495354204f462054484520415641494c41424c4560208301527f204d41524b4554504c41434553000000000000000000000000000000000000006040830152606082019050919050565b6000614a0c60298361543c565b91507f455243313135353a2073657474696e6720617070726f76616c2073746174757360008301527f20666f722073656c6600000000000000000000000000000000000000000000006020830152604082019050919050565b6000614a7260298361543c565b91507f455243313135353a206163636f756e747320616e6420696473206c656e67746860008301527f206d69736d6174636800000000000000000000000000000000000000000000006020830152604082019050919050565b6000614ad860318361543c565b91507f4f4e4c5920544845204f524947494e414c204150504c4943414e542043414e2060008301527f434c4f53452054484520434f4e464943540000000000000000000000000000006020830152604082019050919050565b6000614b3e60288361543c565b91507f455243313135353a2069647320616e6420616d6f756e7473206c656e6774682060008301527f6d69736d617463680000000000000000000000000000000000000000000000006020830152604082019050919050565b6000614ba460218361543c565b91507f455243313135353a206d696e7420746f20746865207a65726f2061646472657360008301527f73000000000000000000000000000000000000000000000000000000000000006020830152604082019050919050565b600060c0830160008301518482036000860152614c1a828261423c565b9150506020830151614c2f6020860182614169565b506040830151614c426040860182614169565b506060830151614c556060860182614c8d565b506080830151614c6860808601826141e5565b5060a083015184820360a0860152614c80828261423c565b9150508091505092915050565b614c968161554c565b82525050565b614ca58161554c565b82525050565b6000614cb782846142ae565b915081905092915050565b6000602082019050614cd76000830184614178565b92915050565b600060a082019050614cf26000830188614178565b614cff6020830187614178565b8181036040830152614d118186614187565b90508181036060830152614d258185614187565b90508181036080830152614d398184614203565b90509695505050505050565b600060a082019050614d5a6000830188614178565b614d676020830187614178565b614d746040830186614c9c565b614d816060830185614c9c565b8181036080830152614d938184614203565b90509695505050505050565b60006020820190508181036000830152614db98184614187565b905092915050565b60006040820190508181036000830152614ddb8185614187565b90508181036020830152614def8184614187565b90509392505050565b6000602082019050614e0d60008301846141f4565b92915050565b60006020820190508181036000830152614e2d8184614275565b905092915050565b60006080820190508181036000830152614e4f8187614275565b9050614e5e6020830186614178565b614e6b6040830185614178565b614e7860608301846141f4565b95945050505050565b600060c0820190508181036000830152614e9b8189614275565b9050614eaa6020830188614178565b614eb76040830187614178565b614ec46060830186614c9c565b614ed160808301856141f4565b81810360a0830152614ee38184614275565b9050979650505050505050565b60006060820190508181036000830152614f0a8185614275565b90508181036020830152614f1d816144dd565b9050614f2c6040830184614178565b9392505050565b60006060820190508181036000830152614f4d8185614275565b90508181036020830152614f6081614583565b9050614f6f6040830184614178565b9392505050565b60006060820190508181036000830152614f908185614275565b90508181036020830152614fa38161471b565b9050614fb26040830184614178565b9392505050565b60006060820190508181036000830152614fd38185614275565b90508181036020830152614fe681614933565b9050614ff56040830184614178565b9392505050565b60006020820190508181036000830152615015816142df565b9050919050565b6000602082019050818103600083015261503581614345565b9050919050565b60006020820190508181036000830152615055816143ab565b9050919050565b6000602082019050818103600083015261507581614411565b9050919050565b6000602082019050818103600083015261509581614477565b9050919050565b600060208201905081810360008301526150b58161451d565b9050919050565b600060208201905081810360008301526150d5816145c3565b9050919050565b600060208201905081810360008301526150f581614629565b9050919050565b60006020820190508181036000830152615115816146b5565b9050919050565b600060208201905081810360008301526151358161475b565b9050919050565b60006020820190508181036000830152615155816147c1565b9050919050565b6000602082019050818103600083015261517581614827565b9050919050565b600060208201905081810360008301526151958161488d565b9050919050565b600060208201905081810360008301526151b5816148cd565b9050919050565b600060208201905081810360008301526151d581614973565b9050919050565b600060208201905081810360008301526151f5816149ff565b9050919050565b6000602082019050818103600083015261521581614a65565b9050919050565b6000602082019050818103600083015261523581614acb565b9050919050565b6000602082019050818103600083015261525581614b31565b9050919050565b6000602082019050818103600083015261527581614b97565b9050919050565b600060208201905081810360008301526152968184614bfd565b905092915050565b60006020820190506152b36000830184614c9c565b92915050565b60006040820190506152ce6000830185614c9c565b6152db6020830184614c9c565b9392505050565b6000604051905081810181811067ffffffffffffffff8211171561530957615308615671565b5b8060405250919050565b600067ffffffffffffffff82111561532e5761532d615671565b5b602082029050602081019050919050565b600067ffffffffffffffff82111561535a57615359615671565b5b602082029050602081019050919050565b600067ffffffffffffffff82111561538657615385615671565b5b601f19601f8301169050602081019050919050565b600067ffffffffffffffff8211156153b6576153b5615671565b5b601f19601f8301169050602081019050919050565b6000819050602082019050919050565b600081519050919050565b600081519050919050565b600081519050919050565b6000602082019050919050565b600082825260208201905092915050565b600082825260208201905092915050565b600082825260208201905092915050565b600082825260208201905092915050565b600081905092915050565b60006154638261554c565b915061546e8361554c565b9250827fffffffffffffffffffffffffffffffffffffffffffffffffffffffffffffffff038211156154a3576154a2615613565b5b828201905092915050565b60006154b98261554c565b91506154c48361554c565b9250828210156154d7576154d6615613565b5b828203905092915050565b60006154ed8261552c565b9050919050565b60008115159050919050565b60007fffffffff0000000000000000000000000000000000000000000000000000000082169050919050565b600073ffffffffffffffffffffffffffffffffffffffff82169050919050565b6000819050919050565b82818337600083830152505050565b60005b83811015615583578082015181840152602081019050615568565b83811115615592576000848401525b50505050565b600060028204905060018216806155b057607f821691505b602082108114156155c4576155c3615642565b5b50919050565b60006155d58261554c565b91507fffffffffffffffffffffffffffffffffffffffffffffffffffffffffffffffff82141561560857615607615613565b5b600182019050919050565b7f4e487b7100000000000000000000000000000000000000000000000000000000600052601160045260246000fd5b7f4e487b7100000000000000000000000000000000000000000000000000000000600052602260045260246000fd5b7f4e487b7100000000000000000000000000000000000000000000000000000000600052604160045260246000fd5b6000601f19601f8301169050919050565b60008160e01c9050919050565b600060443d10156156ce57615771565b60046000803e6156df6000516156b1565b6308c379a081146156f05750615771565b60405160043d036004823e80513d602482011167ffffffffffffffff8211171561571c57505050615771565b808201805167ffffffffffffffff81111561573b575050505050615771565b8060208301013d850181111561575657505050505050615771565b61575f826156a0565b60208401016040528296505050505050505b90565b61577d816154e2565b811461578857600080fd5b50565b615794816154f4565b811461579f57600080fd5b50565b6157ab81615500565b81146157b657600080fd5b50565b6157c28161554c565b81146157cd57600080fd5b5056fea26469706673582212203c189e5015d1cdbb172a430dfd53306f06f81614110f64921181619757b45a7464736f6c6343000800003368747470733a2f2f69336d61726b65742e636f6d2f6d61726b6574706c6163652f7b69647d2e6a736f6e",
  "immutableReferences": {},
  "source": "/**\n* Copyright (c) 2020-2022 in alphabetical order:\n* GFT, HOPU\n*\n* This program and the accompanying materials are made\n* available under the terms of the EUROPEAN UNION PUBLIC LICENCE v. 1.2\n* which is available at https://gitlab.com/i3-market/code/wp3/t3.3/tokenization/-/blob/main/LICENSE\n*\n* License-Identifier: Apache 2.0\n*\n* Contributors:\n*    Luca Marangoni (GFT)\n*    German Molina Carrasco (HOPU)\n*\n*/\n\npragma solidity >=0.7.0 <0.9.0;\npragma abicoder v2;\n\nimport \"@openzeppelin/contracts/token/ERC1155/ERC1155.sol\";\n\ncontract I3MarketTreasury is ERC1155 {\n    \n    event TokenTransferred(string transferId, string operation, address _sender);\n    event LogD(uint256 log);\n    \n    struct TokenTransfer {  \n        string transferId;\n        address fromAddress;\n        address toAddress;\n        uint tokenAmount;\n        bool isPaid;\n        string transferCode;\n    }\n    \n    struct Conflict {  \n        string transferId;\n        address applicant;\n        address recipient;\n        bool open;\n    }\n\n    mapping(string => Conflict) public openConflicts;\n    mapping(string => TokenTransfer) public transactions;\n    mapping(address => uint) public marketplacesIndex;\n    address[] public marketplaces;\n    uint public index = 0;\n\n\n    modifier onlyMarketplace(address _marketplaceAddress) {\n        require(msg.sender == _marketplaceAddress, \"ONLY THE MARKETPLACE CAN ADD ITSELF TO THE LIST OF THE AVAILABLE MARKETPLACES\");\n        _;\n    }\n\n    modifier validDestination(address _to) {\n        require(msg.sender != _to, \"MARKETPLACE CANNOT MINT TO ITSELF\");\n        _;\n    }\n\n    modifier onlyTheTokenReceiver(string memory _transferId) {\n        require(transactions[_transferId].toAddress == msg.sender, \"ONLY THE TOKEN RECEIVER CAN SET THE ISPAID TO TRUE\");\n        _;\n    }\n    \n    modifier onlyTheApplicant(string memory _transferId) {\n        require(openConflicts[_transferId].applicant == msg.sender, \"ONLY THE ORIGINAL APPLICANT CAN CLOSE THE CONFICT\");\n        _;\n    }\n\n    modifier onlyNewMarketplaceAddress(address _marketplaceAddress) {\n        require(marketplacesIndex[_marketplaceAddress] == 0, \"MARKETPLACE WAS ALREADY ADDED\");\n        _;\n    }\n    \n    modifier onlyPartiesOfTransaction(string memory _transferId, address recipient) {\n        require(msg.sender == transactions[_transferId].toAddress || msg.sender == transactions[_transferId].fromAddress, \"THE CONFLICT APPLICANT MUST BE ONE OF THE TRANSACTION PARTIES\");\n        require(recipient == transactions[_transferId].toAddress || recipient == transactions[_transferId].fromAddress, \"THE CONFLICT RECIPIENT MUST BE ONE OF THE TRANSACTION PARTIES\");\n        _;\n    }\n\n    constructor() ERC1155(\"https://i3market.com/marketplace/{id}.json\") {\n    }\n\n    /*\n    * add a new Data Marketplace in the platform\n    */\n    function addMarketplace(address _marketplaceAddress) external onlyMarketplace(_marketplaceAddress) onlyNewMarketplaceAddress(_marketplaceAddress) {\n        index += 1;\n        marketplaces.push(_marketplaceAddress);\n        marketplacesIndex[_marketplaceAddress] = index;\n    }\n\n    /*\n    * get a Data Marketplace uint identifier\n    */\n    function getMarketplaceIndex(address _marketplaceAddress) public view returns (uint) {\n        return marketplacesIndex[_marketplaceAddress];\n    }\n\n    /*\n    * exchange in function between a Data Marketplace and a Data Consumer\n    */\n    function exchangeIn(string memory transferId, address _userAddress, uint _tokensAmount) external payable validDestination(_userAddress) { \n        \n        require(marketplacesIndex[msg.sender] != 0, \"THIS ADDRESS IS NOT A REGULAR MARKETPLACE AND DOESN'T HAVE A TOKEN TYPE\");\n        //mint token from Data Marketplace to Data Consumer\n        _mint(_userAddress, marketplacesIndex[msg.sender], _tokensAmount, \"\");\n        //create transaction with isPaid param to True as Fiat money payment is already done\n        transactions[transferId] = TokenTransfer(transferId, msg.sender, _userAddress, _tokensAmount, true, \"\");\n        emit TokenTransferred(transferId, \"exchange_in\", _userAddress);\n    }\n\n    /*\n    * clearing function of a Data Marketplace\n    */\n    function clearing(string memory transferId) external payable { \n        \n        for (uint i = 0; i < marketplaces.length; ++i){\n            //clearing for every token type present in the marketplace balance apart from the token it owns\n            if(marketplaces[i]!=msg.sender){\n                uint amount = super.balanceOf(msg.sender,i+1);\n                super.safeTransferFrom(msg.sender,marketplaces[i],i+1, amount, \"0x0\");\n\n                //create transaction with isPaid param to False as Fiat money payment is not completed yet\n                transactions[transferId] = TokenTransfer(transferId, msg.sender, marketplaces[i], amount, false, \"\");\n                emit TokenTransferred(transferId, \"clearing\", marketplaces[i]);\n            }\n        }\n    }\n\n    /*\n    * payment function between a Data Consumer and a Data Provider\n    */\n    function payment(string memory transferId, address _dataProvider, uint256 amount) external payable { \n        \n        uint256[] memory _ids = new uint256[](index);\n        uint256[] memory _amounts = new uint256[](index);\n\n        //obtains the tokens needed to pay the amount\n        (_ids,_amounts) = configurePayment(amount);\n        super.safeBatchTransferFrom(msg.sender,_dataProvider,_ids,_amounts,\"0x0\");\n        transactions[transferId] = TokenTransfer(transferId, msg.sender, _dataProvider, getSum(_amounts), false, \"\");\n        emit TokenTransferred(transferId, \"payment\", _dataProvider);\n    }\n\n    /*\n    * exchange out function between a Data Provider and a Data Marketplace\n    */\n    function exchangeOut(string memory transferId, address _marketplaceAddress) external payable{ \n        \n        uint256[] memory _ids = new uint256[](index);\n        for (uint i = 0; i < index; ++i) {\n            _ids[i] = i + 1;\n        }\n        uint256[] memory _amounts = new uint256[](index);\n        //exchange out all the token available in the balance\n        _amounts = balanceOfAddress(msg.sender);\n\n        super.safeBatchTransferFrom(msg.sender,_marketplaceAddress, _ids, _amounts, \"0x0\");\n        transactions[transferId] = TokenTransfer(transferId, msg.sender, _marketplaceAddress, getSum(_amounts), false, \"\");\n        emit TokenTransferred(transferId, \"exchange_out\", _marketplaceAddress);\n    }\n\n    /*\n    * Returns the TokenTransfer informations associated with the _transferId identifier\n    */\n    function getTransaction(string memory _transferId) public view returns (TokenTransfer memory tokenTransfer) { \n        return transactions[_transferId];\n    }\n\n    /*\n    * Returns a pair with the token ids and the respective amounts to cover the amount required for payment. \n    * Tokens are taken starting from the first token type until the sum is reached\n    */\n    function configurePayment(uint256 amount) private view returns (uint256[] memory ids, uint256[] memory amounts){\n\n        uint256[] memory ids_ = new uint256[](index);\n        uint256[] memory amounts_ = new uint256[](index);\n\n        for (uint256 i = 0; i < index; ++i) {\n            uint256 balance = super.balanceOf(msg.sender, i + 1);\n            if (balance != 0) {\n                if (amount > balance) {\n                    ids_[i] = i + 1;\n                    amounts_[i] = balance;\n                    amount = amount - balance;\n                } else if (amount <= balance) {\n                    ids_[i] = i + 1;\n                    amounts_[i] = amount;\n                    amount = 0;\n                    break;\n                }\n            }\n        }\n        require(amount == 0, \"THE DATA CONSUMER DOESN'T HAVE ENOUGH TOKENS\");\n        return (ids_, amounts_);\n    }\n\n    /*\n    * Returns the sum of the elements in an array\n    */\n    function getSum(uint256[] memory _amounts) private pure returns (uint256){\n        uint i;\n        uint256 sum = 0;\n\n        for (i = 0; i < _amounts.length; i++) {\n            sum = sum + _amounts[i];\n        }\n        return sum;\n    }\n\n    /*\n    * in the TokenTransfer object of a transaction, set the isPaid param to true if the payment was also made with fiat money\n    */ \n    function setPaid(string memory _transferId, string memory _transferCode) external payable onlyTheTokenReceiver(_transferId){\t\n        transactions[_transferId].isPaid = true;\t\n        transactions[_transferId].transferCode = _transferCode;\t\n    }\n\n    /*\n    * in the TokenTransfer object of a transaction, set the transfer code param \n    */ \n    function setTransferCode(string memory _transferId, string memory transferCode) external payable onlyTheTokenReceiver(_transferId){ \n        transactions[_transferId].transferCode = transferCode;\n    }\n\n    /*\n    * open conflict on a specific transaction \n    */ \n    function openConflict(string memory _transferId, address recipient) external payable onlyPartiesOfTransaction(_transferId, recipient){ \n        openConflicts[_transferId] = Conflict(_transferId, msg.sender, recipient, true);\n    }\n\n    /*\n    * resolve conflict for a specific transaction \n    */ \n    function closeConflict(string memory _transferId) external payable onlyTheApplicant(_transferId){ \n        openConflicts[_transferId].open = false;\n    }\n    \n    /*\n    * return the overall balance of all the tokens owned by _owner\n    */\n    function balanceOfAddress(address _owner) public view returns (uint256[] memory) {\n        uint256[] memory balances_ = new uint256[](index);\n\n        for (uint256 i = 0; i < index; ++i) {\n            balances_[i] = super.balanceOf(_owner, i + 1);\n        }\n        return balances_;\n    }\n\n}\n",
  "sourcePath": "/home/hopu/WebstormProjects/nodejs-tokenization-treasury-api/contracts_tmp/contracts/Treasury.sol",
  "compiler": {
    "name": "solc",
    "version": "0.8.0+commit.c7dfd78e.Emscripten.clang"
  },
  "schemaVersion": "3.4.3",
  "updatedAt": "2022-04-06T06:27:36.376Z",
  "devdoc": {
    "kind": "dev",
    "methods": {
      "balanceOf(address,uint256)": {
        "details": "See {IERC1155-balanceOf}. Requirements: - `account` cannot be the zero address."
      },
      "balanceOfBatch(address[],uint256[])": {
        "details": "See {IERC1155-balanceOfBatch}. Requirements: - `accounts` and `ids` must have the same length."
      },
      "isApprovedForAll(address,address)": {
        "details": "See {IERC1155-isApprovedForAll}."
      },
      "safeBatchTransferFrom(address,address,uint256[],uint256[],bytes)": {
        "details": "See {IERC1155-safeBatchTransferFrom}."
      },
      "safeTransferFrom(address,address,uint256,uint256,bytes)": {
        "details": "See {IERC1155-safeTransferFrom}."
      },
      "setApprovalForAll(address,bool)": {
        "details": "See {IERC1155-setApprovalForAll}."
      },
      "supportsInterface(bytes4)": {
        "details": "See {IERC165-supportsInterface}."
      },
      "uri(uint256)": {
        "details": "See {IERC1155MetadataURI-uri}. This implementation returns the same URI for *all* token types. It relies on the token type ID substitution mechanism https://eips.ethereum.org/EIPS/eip-1155#metadata[defined in the EIP]. Clients calling this function must replace the `\\{id\\}` substring with the actual token type ID."
      }
    },
    "version": 1
  },
  "userdoc": {
    "kind": "user",
    "methods": {},
    "version": 1
  }
}