{
  "contractName": "I3MarketTreasury",
  "abi": [
    {
      "inputs": [],
      "stateMutability": "nonpayable",
      "type": "constructor"
    },
    {
      "anonymous": false,
      "inputs": [
        {
          "indexed": true,
          "internalType": "address",
          "name": "account",
          "type": "address"
        },
        {
          "indexed": true,
          "internalType": "address",
          "name": "operator",
          "type": "address"
        },
        {
          "indexed": false,
          "internalType": "bool",
          "name": "approved",
          "type": "bool"
        }
      ],
      "name": "ApprovalForAll",
      "type": "event"
    },
    {
      "anonymous": false,
      "inputs": [
        {
          "indexed": false,
          "internalType": "string",
          "name": "transferId",
          "type": "string"
        },
        {
          "indexed": false,
          "internalType": "string",
          "name": "operation",
          "type": "string"
        },
        {
          "indexed": false,
          "internalType": "address",
          "name": "fromAdd",
          "type": "address"
        }
      ],
      "name": "FiatMoneyPayment",
      "type": "event"
    },
    {
      "anonymous": false,
      "inputs": [
        {
          "indexed": false,
          "internalType": "string",
          "name": "transferId",
          "type": "string"
        },
        {
          "indexed": false,
          "internalType": "string",
          "name": "operation",
          "type": "string"
        },
        {
          "indexed": false,
          "internalType": "address",
          "name": "fromAdd",
          "type": "address"
        },
        {
          "indexed": false,
          "internalType": "address",
          "name": "toAdd",
          "type": "address"
        }
      ],
      "name": "TokenTransferred",
      "type": "event"
    },
    {
      "anonymous": false,
      "inputs": [
        {
          "indexed": true,
          "internalType": "address",
          "name": "operator",
          "type": "address"
        },
        {
          "indexed": true,
          "internalType": "address",
          "name": "from",
          "type": "address"
        },
        {
          "indexed": true,
          "internalType": "address",
          "name": "to",
          "type": "address"
        },
        {
          "indexed": false,
          "internalType": "uint256[]",
          "name": "ids",
          "type": "uint256[]"
        },
        {
          "indexed": false,
          "internalType": "uint256[]",
          "name": "values",
          "type": "uint256[]"
        }
      ],
      "name": "TransferBatch",
      "type": "event"
    },
    {
      "anonymous": false,
      "inputs": [
        {
          "indexed": true,
          "internalType": "address",
          "name": "operator",
          "type": "address"
        },
        {
          "indexed": true,
          "internalType": "address",
          "name": "from",
          "type": "address"
        },
        {
          "indexed": true,
          "internalType": "address",
          "name": "to",
          "type": "address"
        },
        {
          "indexed": false,
          "internalType": "uint256",
          "name": "id",
          "type": "uint256"
        },
        {
          "indexed": false,
          "internalType": "uint256",
          "name": "value",
          "type": "uint256"
        }
      ],
      "name": "TransferSingle",
      "type": "event"
    },
    {
      "anonymous": false,
      "inputs": [
        {
          "indexed": false,
          "internalType": "string",
          "name": "value",
          "type": "string"
        },
        {
          "indexed": true,
          "internalType": "uint256",
          "name": "id",
          "type": "uint256"
        }
      ],
      "name": "URI",
      "type": "event"
    },
    {
      "inputs": [
        {
          "internalType": "address",
          "name": "account",
          "type": "address"
        },
        {
          "internalType": "uint256",
          "name": "id",
          "type": "uint256"
        }
      ],
      "name": "balanceOf",
      "outputs": [
        {
          "internalType": "uint256",
          "name": "",
          "type": "uint256"
        }
      ],
      "stateMutability": "view",
      "type": "function"
    },
    {
      "inputs": [
        {
          "internalType": "address[]",
          "name": "accounts",
          "type": "address[]"
        },
        {
          "internalType": "uint256[]",
          "name": "ids",
          "type": "uint256[]"
        }
      ],
      "name": "balanceOfBatch",
      "outputs": [
        {
          "internalType": "uint256[]",
          "name": "",
          "type": "uint256[]"
        }
      ],
      "stateMutability": "view",
      "type": "function"
    },
    {
      "inputs": [],
      "name": "communityFee",
      "outputs": [
        {
          "internalType": "uint256",
          "name": "",
          "type": "uint256"
        }
      ],
      "stateMutability": "view",
      "type": "function"
    },
    {
      "inputs": [],
      "name": "communityWallet",
      "outputs": [
        {
          "internalType": "address",
          "name": "",
          "type": "address"
        }
      ],
      "stateMutability": "view",
      "type": "function"
    },
    {
      "inputs": [],
      "name": "index",
      "outputs": [
        {
          "internalType": "uint256",
          "name": "",
          "type": "uint256"
        }
      ],
      "stateMutability": "view",
      "type": "function"
    },
    {
      "inputs": [
        {
          "internalType": "address",
          "name": "account",
          "type": "address"
        },
        {
          "internalType": "address",
          "name": "operator",
          "type": "address"
        }
      ],
      "name": "isApprovedForAll",
      "outputs": [
        {
          "internalType": "bool",
          "name": "",
          "type": "bool"
        }
      ],
      "stateMutability": "view",
      "type": "function"
    },
    {
      "inputs": [
        {
          "internalType": "address",
          "name": "",
          "type": "address"
        }
      ],
      "name": "mpIndex",
      "outputs": [
        {
          "internalType": "uint256",
          "name": "",
          "type": "uint256"
        }
      ],
      "stateMutability": "view",
      "type": "function"
    },
    {
      "inputs": [
        {
          "internalType": "address",
          "name": "from",
          "type": "address"
        },
        {
          "internalType": "address",
          "name": "to",
          "type": "address"
        },
        {
          "internalType": "uint256[]",
          "name": "ids",
          "type": "uint256[]"
        },
        {
          "internalType": "uint256[]",
          "name": "amounts",
          "type": "uint256[]"
        },
        {
          "internalType": "bytes",
          "name": "data",
          "type": "bytes"
        }
      ],
      "name": "safeBatchTransferFrom",
      "outputs": [],
      "stateMutability": "nonpayable",
      "type": "function"
    },
    {
      "inputs": [
        {
          "internalType": "address",
          "name": "from",
          "type": "address"
        },
        {
          "internalType": "address",
          "name": "to",
          "type": "address"
        },
        {
          "internalType": "uint256",
          "name": "id",
          "type": "uint256"
        },
        {
          "internalType": "uint256",
          "name": "amount",
          "type": "uint256"
        },
        {
          "internalType": "bytes",
          "name": "data",
          "type": "bytes"
        }
      ],
      "name": "safeTransferFrom",
      "outputs": [],
      "stateMutability": "nonpayable",
      "type": "function"
    },
    {
      "inputs": [
        {
          "internalType": "address",
          "name": "operator",
          "type": "address"
        },
        {
          "internalType": "bool",
          "name": "approved",
          "type": "bool"
        }
      ],
      "name": "setApprovalForAll",
      "outputs": [],
      "stateMutability": "nonpayable",
      "type": "function"
    },
    {
      "inputs": [
        {
          "internalType": "bytes4",
          "name": "interfaceId",
          "type": "bytes4"
        }
      ],
      "name": "supportsInterface",
      "outputs": [
        {
          "internalType": "bool",
          "name": "",
          "type": "bool"
        }
      ],
      "stateMutability": "view",
      "type": "function"
    },
    {
      "inputs": [
        {
          "internalType": "string",
          "name": "",
          "type": "string"
        }
      ],
      "name": "txs",
      "outputs": [
        {
          "internalType": "string",
          "name": "transferId",
          "type": "string"
        },
        {
          "internalType": "address",
          "name": "fromAdd",
          "type": "address"
        },
        {
          "internalType": "address",
          "name": "toAdd",
          "type": "address"
        },
        {
          "internalType": "uint256",
          "name": "tokenAmount",
          "type": "uint256"
        },
        {
          "internalType": "bool",
          "name": "isPaid",
          "type": "bool"
        },
        {
          "internalType": "string",
          "name": "transferCode",
          "type": "string"
        }
      ],
      "stateMutability": "view",
      "type": "function"
    },
    {
      "inputs": [
        {
          "internalType": "uint256",
          "name": "",
          "type": "uint256"
        }
      ],
      "name": "uri",
      "outputs": [
        {
          "internalType": "string",
          "name": "",
          "type": "string"
        }
      ],
      "stateMutability": "view",
      "type": "function"
    },
    {
      "inputs": [
        {
          "internalType": "address",
          "name": "_mpAdd",
          "type": "address"
        }
      ],
      "name": "addMarketplace",
      "outputs": [],
      "stateMutability": "nonpayable",
      "type": "function"
    },
    {
      "inputs": [
        {
          "internalType": "string",
          "name": "transferId",
          "type": "string"
        },
        {
          "internalType": "address",
          "name": "_userAdd",
          "type": "address"
        },
        {
          "internalType": "uint256",
          "name": "_tokensAmount",
          "type": "uint256"
        }
      ],
      "name": "exchangeIn",
      "outputs": [],
      "stateMutability": "payable",
      "type": "function"
    },
    {
      "inputs": [
        {
          "components": [
            {
              "internalType": "string",
              "name": "transferId",
              "type": "string"
            },
            {
              "internalType": "address",
              "name": "toAdd",
              "type": "address"
            },
            {
              "internalType": "uint256",
              "name": "tokenAmount",
              "type": "uint256"
            }
          ],
          "internalType": "struct I3MarketTreasury.ClearingOperation[]",
          "name": "_clearingOps",
          "type": "tuple[]"
        }
      ],
      "name": "clearing",
      "outputs": [],
      "stateMutability": "payable",
      "type": "function"
    },
    {
      "inputs": [
        {
          "internalType": "string",
          "name": "transferId",
          "type": "string"
        },
        {
          "internalType": "address",
          "name": "_dataProvider",
          "type": "address"
        },
        {
          "internalType": "uint256",
          "name": "_amount",
          "type": "uint256"
        }
      ],
      "name": "payment",
      "outputs": [],
      "stateMutability": "payable",
      "type": "function"
    },
    {
      "inputs": [
        {
          "internalType": "string",
          "name": "_transferIdCommunity",
          "type": "string"
        },
        {
          "internalType": "string",
          "name": "_transferIdMp",
          "type": "string"
        },
        {
          "internalType": "address",
          "name": "_dataProviderMp",
          "type": "address"
        },
        {
          "internalType": "uint256",
          "name": "_feeAmount",
          "type": "uint256"
        }
      ],
      "name": "feePayment",
      "outputs": [],
      "stateMutability": "payable",
      "type": "function"
    },
    {
      "inputs": [
        {
          "internalType": "string",
          "name": "_transferId",
          "type": "string"
        },
        {
          "internalType": "address",
          "name": "_mpAdd",
          "type": "address"
        }
      ],
      "name": "exchangeOut",
      "outputs": [],
      "stateMutability": "payable",
      "type": "function"
    },
    {
      "inputs": [
        {
          "internalType": "string",
          "name": "_transferId",
          "type": "string"
        }
      ],
      "name": "getTransaction",
      "outputs": [
        {
          "components": [
            {
              "internalType": "string",
              "name": "transferId",
              "type": "string"
            },
            {
              "internalType": "address",
              "name": "fromAdd",
              "type": "address"
            },
            {
              "internalType": "address",
              "name": "toAdd",
              "type": "address"
            },
            {
              "internalType": "uint256",
              "name": "tokenAmount",
              "type": "uint256"
            },
            {
              "internalType": "bool",
              "name": "isPaid",
              "type": "bool"
            },
            {
              "internalType": "string",
              "name": "transferCode",
              "type": "string"
            }
          ],
          "internalType": "struct I3MarketTreasury.TokenTransfer",
          "name": "tokenTransfer",
          "type": "tuple"
        }
      ],
      "stateMutability": "view",
      "type": "function"
    },
    {
      "inputs": [
        {
          "internalType": "string",
          "name": "_transferId",
          "type": "string"
        },
        {
          "internalType": "string",
          "name": "_transferCode",
          "type": "string"
        }
      ],
      "name": "setPaid",
      "outputs": [],
      "stateMutability": "payable",
      "type": "function"
    },
    {
      "inputs": [
        {
          "internalType": "address",
          "name": "_owner",
          "type": "address"
        }
      ],
      "name": "balanceOfAddress",
      "outputs": [
        {
          "internalType": "uint256[]",
          "name": "",
          "type": "uint256[]"
        }
      ],
      "stateMutability": "view",
      "type": "function"
    },
    {
      "inputs": [
        {
          "internalType": "address",
          "name": "_communityWallett",
          "type": "address"
        },
        {
          "internalType": "uint256",
          "name": "_feeRate",
          "type": "uint256"
        }
      ],
      "name": "setCommunityWalletAndCommunityFee",
      "outputs": [],
      "stateMutability": "payable",
      "type": "function"
    },
    {
      "inputs": [
        {
          "internalType": "uint256",
          "name": "_clearingThreshold",
          "type": "uint256"
        }
      ],
      "name": "setMinimumClearingThreshold",
      "outputs": [],
      "stateMutability": "payable",
      "type": "function"
    },
    {
      "inputs": [
        {
          "internalType": "address",
          "name": "_mpAdd",
          "type": "address"
        },
        {
          "internalType": "string",
          "name": "message",
          "type": "string"
        }
      ],
      "name": "isMarketplace",
      "outputs": [],
      "stateMutability": "view",
      "type": "function"
    }
  ],
  "bytecode": "0x608060405260006005553480156200001657600080fd5b506040518060600160405280602a81526020016200590d602a913962000042816200004960201b60201c565b506200017a565b80600290805190602001906200006192919062000065565b5050565b828054620000739062000115565b90600052602060002090601f016020900481019282620000975760008555620000e3565b82601f10620000b257805160ff1916838001178555620000e3565b82800160010185558215620000e3579182015b82811115620000e2578251825591602001919060010190620000c5565b5b509050620000f29190620000f6565b5090565b5b8082111562000111576000816000905550600101620000f7565b5090565b600060028204905060018216806200012e57607f821691505b602082108114156200014557620001446200014b565b5b50919050565b7f4e487b7100000000000000000000000000000000000000000000000000000000600052602260045260246000fd5b615783806200018a6000396000f3fe6080604052600436106101655760003560e01c80638081e990116100d1578063ac2ccd071161008a578063c264679c11610064578063c264679c14610515578063c757483914610531578063e985e9c51461055c578063f242432a1461059957610165565b8063ac2ccd07146104a0578063b4b13c7e146104dd578063c1acc5d1146104f957610165565b80638081e990146103bb57806386212b8f146103d75780638961be6b14610414578063909770871461043f578063a22cb4651461045b578063aa5a185b1461048457610165565b806336d7b23a1161012357806336d7b23a1461029e57806339c53b10146102e05780634649fe67146102fc5780634e1273f41461031857806357af861914610355578063717713301461039257610165565b8062fdd58e1461016a57806301ffc9a7146101a75780630e89341c146101e457806328a513ea146102215780632986c0e51461024a5780632eb2c2d614610275575b600080fd5b34801561017657600080fd5b50610191600480360381019061018c9190613e85565b6105c2565b60405161019e9190615135565b60405180910390f35b3480156101b357600080fd5b506101ce60048036038101906101c99190613f6e565b61068b565b6040516101db9190614c8f565b60405180910390f35b3480156101f057600080fd5b5061020b600480360381019061020691906141bb565b61076d565b6040516102189190614caa565b60405180910390f35b34801561022d57600080fd5b5061024860048036038101906102439190613e31565b610801565b005b34801561025657600080fd5b5061025f61088c565b60405161026c9190615135565b60405180910390f35b34801561028157600080fd5b5061029c60048036038101906102979190613ca7565b610892565b005b3480156102aa57600080fd5b506102c560048036038101906102c09190613fc0565b610933565b6040516102d796959493929190614ccc565b60405180910390f35b6102fa60048036038101906102f59190614001565b610ae2565b005b610316600480360381019061031191906141bb565b610e51565b005b34801561032457600080fd5b5061033f600480360381019061033a9190613ec1565b610e9c565b60405161034c9190614c36565b60405180910390f35b34801561036157600080fd5b5061037c60048036038101906103779190613c42565b61104d565b6040516103899190615135565b60405180910390f35b34801561039e57600080fd5b506103b960048036038101906103b49190613c42565b611065565b005b6103d560048036038101906103d091906140bc565b61121f565b005b3480156103e357600080fd5b506103fe60048036038101906103f99190613c42565b61137d565b60405161040b9190614c36565b60405180910390f35b34801561042057600080fd5b50610429611477565b6040516104369190615135565b60405180910390f35b61045960048036038101906104549190614055565b61147d565b005b34801561046757600080fd5b50610482600480360381019061047d9190613df5565b611746565b005b61049e60048036038101906104999190613e85565b6118c7565b005b3480156104ac57600080fd5b506104c760048036038101906104c29190613fc0565b611954565b6040516104d49190615113565b60405180910390f35b6104f760048036038101906104f29190613f2d565b611b81565b005b610513600480360381019061050e9190614128565b611fc7565b005b61052f600480360381019061052a9190614055565b6123eb565b005b34801561053d57600080fd5b506105466125b4565b6040516105539190614b59565b60405180910390f35b34801561056857600080fd5b50610583600480360381019061057e9190613c6b565b6125da565b6040516105909190614c8f565b60405180910390f35b3480156105a557600080fd5b506105c060048036038101906105bb9190613d66565b61266e565b005b60008073ffffffffffffffffffffffffffffffffffffffff168373ffffffffffffffffffffffffffffffffffffffff161415610633576040517f08c379a000000000000000000000000000000000000000000000000000000000815260040161062a90614f53565b60405180910390fd5b60008083815260200190815260200160002060008473ffffffffffffffffffffffffffffffffffffffff1673ffffffffffffffffffffffffffffffffffffffff16815260200190815260200160002054905092915050565b60007fd9b67a26000000000000000000000000000000000000000000000000000000007bffffffffffffffffffffffffffffffffffffffffffffffffffffffff1916827bffffffffffffffffffffffffffffffffffffffffffffffffffffffff1916148061075657507f0e89341c000000000000000000000000000000000000000000000000000000007bffffffffffffffffffffffffffffffffffffffffffffffffffffffff1916827bffffffffffffffffffffffffffffffffffffffffffffffffffffffff1916145b8061076657506107658261270f565b5b9050919050565b60606002805461077c906154e6565b80601f01602080910402602001604051908101604052809291908181526020018280546107a8906154e6565b80156107f55780601f106107ca576101008083540402835291602001916107f5565b820191906000526020600020905b8154815290600101906020018083116107d857829003601f168201915b50505050509050919050565b6000600460008473ffffffffffffffffffffffffffffffffffffffff1673ffffffffffffffffffffffffffffffffffffffff1681526020019081526020016000205414158190610887576040517f08c379a000000000000000000000000000000000000000000000000000000000815260040161087e9190614caa565b60405180910390fd5b505050565b60055481565b61089a612779565b73ffffffffffffffffffffffffffffffffffffffff168573ffffffffffffffffffffffffffffffffffffffff1614806108e057506108df856108da612779565b6125da565b5b61091f576040517f08c379a000000000000000000000000000000000000000000000000000000000815260040161091690614fd3565b60405180910390fd5b61092c8585858585612781565b5050505050565b60038180516020810182018051848252602083016020850120818352809550505050505060009150905080600001805461096c906154e6565b80601f0160208091040260200160405190810160405280929190818152602001828054610998906154e6565b80156109e55780601f106109ba576101008083540402835291602001916109e5565b820191906000526020600020905b8154815290600101906020018083116109c857829003601f168201915b5050505050908060010160009054906101000a900473ffffffffffffffffffffffffffffffffffffffff16908060020160009054906101000a900473ffffffffffffffffffffffffffffffffffffffff16908060030154908060040160009054906101000a900460ff1690806005018054610a5f906154e6565b80601f0160208091040260200160405190810160405280929190818152602001828054610a8b906154e6565b8015610ad85780601f10610aad57610100808354040283529160200191610ad8565b820191906000526020600020905b815481529060010190602001808311610abb57829003601f168201915b5050505050905086565b600060055467ffffffffffffffff811115610b26577f4e487b7100000000000000000000000000000000000000000000000000000000600052604160045260246000fd5b604051908082528060200260200182016040528015610b545781602001602082028036833780820191505090505b50905060005b600554811015610bc757600181610b71919061531b565b828281518110610baa577f4e487b7100000000000000000000000000000000000000000000000000000000600052603260045260246000fd5b60200260200101818152505080610bc090615518565b9050610b5a565b50600060055467ffffffffffffffff811115610c0c577f4e487b7100000000000000000000000000000000000000000000000000000000600052604160045260246000fd5b604051908082528060200260200182016040528015610c3a5781602001602082028036833780820191505090505b509050610c463361137d565b9050610c8a338484846040518060400160405280600381526020017f3078300000000000000000000000000000000000000000000000000000000000815250610892565b6040518060c001604052808581526020013373ffffffffffffffffffffffffffffffffffffffff1681526020018473ffffffffffffffffffffffffffffffffffffffff168152602001610cdc83612ae1565b815260200160001515815260200160405180602001604052806000815250815250600385604051610d0d9190614b42565b90815260200160405180910390206000820151816000019080519060200190610d379291906137d7565b5060208201518160010160006101000a81548173ffffffffffffffffffffffffffffffffffffffff021916908373ffffffffffffffffffffffffffffffffffffffff16021790555060408201518160020160006101000a81548173ffffffffffffffffffffffffffffffffffffffff021916908373ffffffffffffffffffffffffffffffffffffffff1602179055506060820151816003015560808201518160040160006101000a81548160ff02191690831515021790555060a0820151816005019080519060200190610e0c9291906137d7565b509050507f2d0c372f282a09f6b7d15937a5da024a271cc1bedd09dca9381d542a0420844a843385604051610e4393929190614e71565b60405180910390a150505050565b33610e91816040518060400160405280600e81526020017f4144442049534e27542041204d50000000000000000000000000000000000000815250610801565b816007819055505050565b60608151835114610ee2576040517f08c379a0000000000000000000000000000000000000000000000000000000008152600401610ed9906150b3565b60405180910390fd5b6000835167ffffffffffffffff811115610f25577f4e487b7100000000000000000000000000000000000000000000000000000000600052604160045260246000fd5b604051908082528060200260200182016040528015610f535781602001602082028036833780820191505090505b50905060005b845181101561104257610fec858281518110610f9e577f4e487b7100000000000000000000000000000000000000000000000000000000600052603260045260246000fd5b6020026020010151858381518110610fdf577f4e487b7100000000000000000000000000000000000000000000000000000000600052603260045260246000fd5b60200260200101516105c2565b828281518110611025577f4e487b7100000000000000000000000000000000000000000000000000000000600052603260045260246000fd5b6020026020010181815250508061103b90615518565b9050610f59565b508091505092915050565b60046020528060005260406000206000915090505481565b808073ffffffffffffffffffffffffffffffffffffffff163373ffffffffffffffffffffffffffffffffffffffff16146110d4576040517f08c379a00000000000000000000000000000000000000000000000000000000081526004016110cb90615053565b60405180910390fd5b816000600460008373ffffffffffffffffffffffffffffffffffffffff1673ffffffffffffffffffffffffffffffffffffffff1681526020019081526020016000205414611157576040517f08c379a000000000000000000000000000000000000000000000000000000000815260040161114e90615073565b60405180910390fd5b60016005600082825461116a919061531b565b925050819055506006839080600181540180825580915050600190039060005260206000200160009091909190916101000a81548173ffffffffffffffffffffffffffffffffffffffff021916908373ffffffffffffffffffffffffffffffffffffffff160217905550600554600460008573ffffffffffffffffffffffffffffffffffffffff1673ffffffffffffffffffffffffffffffffffffffff16815260200190815260200160002081905550505050565b813373ffffffffffffffffffffffffffffffffffffffff166003826040516112479190614b42565b908152602001604051809103902060020160009054906101000a900473ffffffffffffffffffffffffffffffffffffffff1673ffffffffffffffffffffffffffffffffffffffff16146112cf576040517f08c379a00000000000000000000000000000000000000000000000000000000081526004016112c690615033565b60405180910390fd5b60016003846040516112e19190614b42565b908152602001604051809103902060040160006101000a81548160ff0219169083151502179055508160038460405161131a9190614b42565b9081526020016040518091039020600501908051906020019061133e9291906137d7565b507fe32210bed1b29bdce660d20fe6e1d5d221d7d8933aca47c9c196e1735f2d48028333604051611370929190614d3b565b60405180910390a1505050565b6060600060055467ffffffffffffffff8111156113c3577f4e487b7100000000000000000000000000000000000000000000000000000000600052604160045260246000fd5b6040519080825280602002602001820160405280156113f15781602001602082028036833780820191505090505b50905060005b60055481101561146d5761141784600183611412919061531b565b6105c2565b828281518110611450577f4e487b7100000000000000000000000000000000000000000000000000000000600052603260045260246000fd5b6020026020010181815250508061146690615518565b90506113f7565b5080915050919050565b60095481565b818073ffffffffffffffffffffffffffffffffffffffff163373ffffffffffffffffffffffffffffffffffffffff1614156114ed576040517f08c379a00000000000000000000000000000000000000000000000000000000081526004016114e490614f93565b60405180910390fd5b61152c336040518060400160405280600e81526020017f4144442049534e27542041204d50000000000000000000000000000000000000815250610801565b61158683600460003373ffffffffffffffffffffffffffffffffffffffff1673ffffffffffffffffffffffffffffffffffffffff168152602001908152602001600020548460405180602001604052806000815250612b5f565b6040518060c001604052808581526020013373ffffffffffffffffffffffffffffffffffffffff1681526020018473ffffffffffffffffffffffffffffffffffffffff168152602001838152602001600115158152602001604051806020016040528060008152508152506003856040516116019190614b42565b9081526020016040518091039020600082015181600001908051906020019061162b9291906137d7565b5060208201518160010160006101000a81548173ffffffffffffffffffffffffffffffffffffffff021916908373ffffffffffffffffffffffffffffffffffffffff16021790555060408201518160020160006101000a81548173ffffffffffffffffffffffffffffffffffffffff021916908373ffffffffffffffffffffffffffffffffffffffff1602179055506060820151816003015560808201518160040160006101000a81548160ff02191690831515021790555060a08201518160050190805190602001906117009291906137d7565b509050507f2d0c372f282a09f6b7d15937a5da024a271cc1bedd09dca9381d542a0420844a8484600060405161173893929190614e20565b60405180910390a150505050565b8173ffffffffffffffffffffffffffffffffffffffff16611765612779565b73ffffffffffffffffffffffffffffffffffffffff1614156117bc576040517f08c379a00000000000000000000000000000000000000000000000000000000081526004016117b390615093565b60405180910390fd5b80600160006117c9612779565b73ffffffffffffffffffffffffffffffffffffffff1673ffffffffffffffffffffffffffffffffffffffff16815260200190815260200160002060008473ffffffffffffffffffffffffffffffffffffffff1673ffffffffffffffffffffffffffffffffffffffff16815260200190815260200160002060006101000a81548160ff0219169083151502179055508173ffffffffffffffffffffffffffffffffffffffff16611876612779565b73ffffffffffffffffffffffffffffffffffffffff167f17307eab39ab6107e8899845ad3d59bd9653f200f220920489ca2b5937696c31836040516118bb9190614c8f565b60405180910390a35050565b33611907816040518060400160405280600e81526020017f4144442049534e27542041204d50000000000000000000000000000000000000815250610801565b82600860006101000a81548173ffffffffffffffffffffffffffffffffffffffff021916908373ffffffffffffffffffffffffffffffffffffffff16021790555081600981905550505050565b61195c61385d565b60038260405161196c9190614b42565b90815260200160405180910390206040518060c0016040529081600082018054611995906154e6565b80601f01602080910402602001604051908101604052809291908181526020018280546119c1906154e6565b8015611a0e5780601f106119e357610100808354040283529160200191611a0e565b820191906000526020600020905b8154815290600101906020018083116119f157829003601f168201915b505050505081526020016001820160009054906101000a900473ffffffffffffffffffffffffffffffffffffffff1673ffffffffffffffffffffffffffffffffffffffff1673ffffffffffffffffffffffffffffffffffffffff1681526020016002820160009054906101000a900473ffffffffffffffffffffffffffffffffffffffff1673ffffffffffffffffffffffffffffffffffffffff1673ffffffffffffffffffffffffffffffffffffffff168152602001600382015481526020016004820160009054906101000a900460ff16151515158152602001600582018054611af8906154e6565b80601f0160208091040260200160405190810160405280929190818152602001828054611b24906154e6565b8015611b715780601f10611b4657610100808354040283529160200191611b71565b820191906000526020600020905b815481529060010190602001808311611b5457829003601f168201915b5050505050815250509050919050565b33611bc1816040518060400160405280600e81526020017f4144442049534e27542041204d50000000000000000000000000000000000000815250610801565b60005b8251811015611fc2576000838281518110611c08577f4e487b7100000000000000000000000000000000000000000000000000000000600052603260045260246000fd5b60200260200101516040015190506000848381518110611c51577f4e487b7100000000000000000000000000000000000000000000000000000000600052603260045260246000fd5b6020026020010151602001519050611c9e816040518060400160405280600e81526020017f4144442049534e27542041204d50000000000000000000000000000000000000815250610801565b600754821115611faf57611d293382600460008573ffffffffffffffffffffffffffffffffffffffff1673ffffffffffffffffffffffffffffffffffffffff16815260200190815260200160002054856040518060400160405280600381526020017f307830000000000000000000000000000000000000000000000000000000000081525061266e565b6040518060c00160405280868581518110611d6d577f4e487b7100000000000000000000000000000000000000000000000000000000600052603260045260246000fd5b60200260200101516000015181526020013373ffffffffffffffffffffffffffffffffffffffff1681526020018273ffffffffffffffffffffffffffffffffffffffff168152602001838152602001600015158152602001604051806020016040528060008152508152506003868581518110611e13577f4e487b7100000000000000000000000000000000000000000000000000000000600052603260045260246000fd5b602002602001015160000151604051611e2c9190614b42565b90815260200160405180910390206000820151816000019080519060200190611e569291906137d7565b5060208201518160010160006101000a81548173ffffffffffffffffffffffffffffffffffffffff021916908373ffffffffffffffffffffffffffffffffffffffff16021790555060408201518160020160006101000a81548173ffffffffffffffffffffffffffffffffffffffff021916908373ffffffffffffffffffffffffffffffffffffffff1602179055506060820151816003015560808201518160040160006101000a81548160ff02191690831515021790555060a0820151816005019080519060200190611f2b9291906137d7565b509050507f2d0c372f282a09f6b7d15937a5da024a271cc1bedd09dca9381d542a0420844a858481518110611f89577f4e487b7100000000000000000000000000000000000000000000000000000000600052603260045260246000fd5b6020026020010151600001513383604051611fa693929190614dcf565b60405180910390a15b505080611fbb90615518565b9050611bc4565b505050565b6000606460095483611fd991906153a2565b611fe39190615371565b905060008183611ff391906153fc565b905061202233600860009054906101000a900473ffffffffffffffffffffffffffffffffffffffff1684612cf5565b6040518060c001604052808781526020013373ffffffffffffffffffffffffffffffffffffffff168152602001600860009054906101000a900473ffffffffffffffffffffffffffffffffffffffff1673ffffffffffffffffffffffffffffffffffffffff168152602001838152602001600015158152602001604051806020016040528060008152508152506003876040516120bf9190614b42565b908152602001604051809103902060008201518160000190805190602001906120e99291906137d7565b5060208201518160010160006101000a81548173ffffffffffffffffffffffffffffffffffffffff021916908373ffffffffffffffffffffffffffffffffffffffff16021790555060408201518160020160006101000a81548173ffffffffffffffffffffffffffffffffffffffff021916908373ffffffffffffffffffffffffffffffffffffffff1602179055506060820151816003015560808201518160040160006101000a81548160ff02191690831515021790555060a08201518160050190805190602001906121be9291906137d7565b509050507f2d0c372f282a09f6b7d15937a5da024a271cc1bedd09dca9381d542a0420844a8633600860009054906101000a900473ffffffffffffffffffffffffffffffffffffffff1660405161221793929190614ec2565b60405180910390a161222a338583612cf5565b6040518060c001604052808681526020013373ffffffffffffffffffffffffffffffffffffffff1681526020018573ffffffffffffffffffffffffffffffffffffffff168152602001828152602001600015158152602001604051806020016040528060008152508152506003866040516122a59190614b42565b908152602001604051809103902060008201518160000190805190602001906122cf9291906137d7565b5060208201518160010160006101000a81548173ffffffffffffffffffffffffffffffffffffffff021916908373ffffffffffffffffffffffffffffffffffffffff16021790555060408201518160020160006101000a81548173ffffffffffffffffffffffffffffffffffffffff021916908373ffffffffffffffffffffffffffffffffffffffff1602179055506060820151816003015560808201518160040160006101000a81548160ff02191690831515021790555060a08201518160050190805190602001906123a49291906137d7565b509050507f2d0c372f282a09f6b7d15937a5da024a271cc1bedd09dca9381d542a0420844a8533866040516123db93929190614ec2565b60405180910390a1505050505050565b6123f6338383612cf5565b6040518060c001604052808481526020013373ffffffffffffffffffffffffffffffffffffffff1681526020018373ffffffffffffffffffffffffffffffffffffffff168152602001828152602001600015158152602001604051806020016040528060008152508152506003846040516124719190614b42565b9081526020016040518091039020600082015181600001908051906020019061249b9291906137d7565b5060208201518160010160006101000a81548173ffffffffffffffffffffffffffffffffffffffff021916908373ffffffffffffffffffffffffffffffffffffffff16021790555060408201518160020160006101000a81548173ffffffffffffffffffffffffffffffffffffffff021916908373ffffffffffffffffffffffffffffffffffffffff1602179055506060820151816003015560808201518160040160006101000a81548160ff02191690831515021790555060a08201518160050190805190602001906125709291906137d7565b509050507f2d0c372f282a09f6b7d15937a5da024a271cc1bedd09dca9381d542a0420844a8333846040516125a793929190614d7e565b60405180910390a1505050565b600860009054906101000a900473ffffffffffffffffffffffffffffffffffffffff1681565b6000600160008473ffffffffffffffffffffffffffffffffffffffff1673ffffffffffffffffffffffffffffffffffffffff16815260200190815260200160002060008373ffffffffffffffffffffffffffffffffffffffff1673ffffffffffffffffffffffffffffffffffffffff16815260200190815260200160002060009054906101000a900460ff16905092915050565b612676612779565b73ffffffffffffffffffffffffffffffffffffffff168573ffffffffffffffffffffffffffffffffffffffff1614806126bc57506126bb856126b6612779565b6125da565b5b6126fb576040517f08c379a00000000000000000000000000000000000000000000000000000000081526004016126f290614f73565b60405180910390fd5b6127088585858585612e3a565b5050505050565b60007f01ffc9a7000000000000000000000000000000000000000000000000000000007bffffffffffffffffffffffffffffffffffffffffffffffffffffffff1916827bffffffffffffffffffffffffffffffffffffffffffffffffffffffff1916149050919050565b600033905090565b81518351146127c5576040517f08c379a00000000000000000000000000000000000000000000000000000000081526004016127bc906150d3565b60405180910390fd5b600073ffffffffffffffffffffffffffffffffffffffff168473ffffffffffffffffffffffffffffffffffffffff161415612835576040517f08c379a000000000000000000000000000000000000000000000000000000000815260040161282c90614fb3565b60405180910390fd5b600061283f612779565b905061284f8187878787876130bc565b60005b8451811015612a4c576000858281518110612896577f4e487b7100000000000000000000000000000000000000000000000000000000600052603260045260246000fd5b6020026020010151905060008583815181106128db577f4e487b7100000000000000000000000000000000000000000000000000000000600052603260045260246000fd5b60200260200101519050600080600084815260200190815260200160002060008b73ffffffffffffffffffffffffffffffffffffffff1673ffffffffffffffffffffffffffffffffffffffff1681526020019081526020016000205490508181101561297c576040517f08c379a000000000000000000000000000000000000000000000000000000000815260040161297390614ff3565b60405180910390fd5b81810360008085815260200190815260200160002060008c73ffffffffffffffffffffffffffffffffffffffff1673ffffffffffffffffffffffffffffffffffffffff168152602001908152602001600020819055508160008085815260200190815260200160002060008b73ffffffffffffffffffffffffffffffffffffffff1673ffffffffffffffffffffffffffffffffffffffff1681526020019081526020016000206000828254612a31919061531b565b9250508190555050505080612a4590615518565b9050612852565b508473ffffffffffffffffffffffffffffffffffffffff168673ffffffffffffffffffffffffffffffffffffffff168273ffffffffffffffffffffffffffffffffffffffff167f4a39dc06d4c0dbc64b70af90fd698a233a518aa5d07e595d983b8c0526c8f7fb8787604051612ac3929190614c58565b60405180910390a4612ad98187878787876130c4565b505050505050565b6000806000905060005b8351811015612b5557838181518110612b2d577f4e487b7100000000000000000000000000000000000000000000000000000000600052603260045260246000fd5b602002602001015182612b40919061531b565b91508080612b4d90615518565b915050612aeb565b5080915050919050565b600073ffffffffffffffffffffffffffffffffffffffff168473ffffffffffffffffffffffffffffffffffffffff161415612bcf576040517f08c379a0000000000000000000000000000000000000000000000000000000008152600401612bc6906150f3565b60405180910390fd5b6000612bd9612779565b9050612bfa81600087612beb88613294565b612bf488613294565b876130bc565b8260008086815260200190815260200160002060008773ffffffffffffffffffffffffffffffffffffffff1673ffffffffffffffffffffffffffffffffffffffff1681526020019081526020016000206000828254612c59919061531b565b925050819055508473ffffffffffffffffffffffffffffffffffffffff16600073ffffffffffffffffffffffffffffffffffffffff168273ffffffffffffffffffffffffffffffffffffffff167fc3d58168c5ae7397731d063d5bbf3d657854427343f4c083240f7aacaa2d0f628787604051612cd7929190615150565b60405180910390a4612cee8160008787878761335a565b5050505050565b600060055467ffffffffffffffff811115612d39577f4e487b7100000000000000000000000000000000000000000000000000000000600052604160045260246000fd5b604051908082528060200260200182016040528015612d675781602001602082028036833780820191505090505b509050600060055467ffffffffffffffff811115612dae577f4e487b7100000000000000000000000000000000000000000000000000000000600052604160045260246000fd5b604051908082528060200260200182016040528015612ddc5781602001602082028036833780820191505090505b509050612de9858461352a565b8092508193505050612e33858584846040518060400160405280600381526020017f3078300000000000000000000000000000000000000000000000000000000000815250610892565b5050505050565b600073ffffffffffffffffffffffffffffffffffffffff168473ffffffffffffffffffffffffffffffffffffffff161415612eaa576040517f08c379a0000000000000000000000000000000000000000000000000000000008152600401612ea190614fb3565b60405180910390fd5b6000612eb4612779565b9050612ed4818787612ec588613294565b612ece88613294565b876130bc565b600080600086815260200190815260200160002060008873ffffffffffffffffffffffffffffffffffffffff1673ffffffffffffffffffffffffffffffffffffffff16815260200190815260200160002054905083811015612f6b576040517f08c379a0000000000000000000000000000000000000000000000000000000008152600401612f6290614ff3565b60405180910390fd5b83810360008087815260200190815260200160002060008973ffffffffffffffffffffffffffffffffffffffff1673ffffffffffffffffffffffffffffffffffffffff168152602001908152602001600020819055508360008087815260200190815260200160002060008873ffffffffffffffffffffffffffffffffffffffff1673ffffffffffffffffffffffffffffffffffffffff1681526020019081526020016000206000828254613020919061531b565b925050819055508573ffffffffffffffffffffffffffffffffffffffff168773ffffffffffffffffffffffffffffffffffffffff168373ffffffffffffffffffffffffffffffffffffffff167fc3d58168c5ae7397731d063d5bbf3d657854427343f4c083240f7aacaa2d0f62888860405161309d929190615150565b60405180910390a46130b382888888888861335a565b50505050505050565b505050505050565b6130e38473ffffffffffffffffffffffffffffffffffffffff166137a8565b1561328c578373ffffffffffffffffffffffffffffffffffffffff1663bc197c8187878686866040518663ffffffff1660e01b8152600401613129959493929190614b74565b602060405180830381600087803b15801561314357600080fd5b505af192505050801561317457506040513d601f19601f820116820180604052508101906131719190613f97565b60015b6132035761318061563b565b8061318b57506131c8565b806040517f08c379a00000000000000000000000000000000000000000000000000000000081526004016131bf9190614caa565b60405180910390fd5b6040517f08c379a00000000000000000000000000000000000000000000000000000000081526004016131fa90614f13565b60405180910390fd5b63bc197c8160e01b7bffffffffffffffffffffffffffffffffffffffffffffffffffffffff1916817bffffffffffffffffffffffffffffffffffffffffffffffffffffffff19161461328a576040517f08c379a000000000000000000000000000000000000000000000000000000000815260040161328190614f33565b60405180910390fd5b505b505050505050565b60606000600167ffffffffffffffff8111156132d9577f4e487b7100000000000000000000000000000000000000000000000000000000600052604160045260246000fd5b6040519080825280602002602001820160405280156133075781602001602082028036833780820191505090505b5090508281600081518110613345577f4e487b7100000000000000000000000000000000000000000000000000000000600052603260045260246000fd5b60200260200101818152505080915050919050565b6133798473ffffffffffffffffffffffffffffffffffffffff166137a8565b15613522578373ffffffffffffffffffffffffffffffffffffffff1663f23a6e6187878686866040518663ffffffff1660e01b81526004016133bf959493929190614bdc565b602060405180830381600087803b1580156133d957600080fd5b505af192505050801561340a57506040513d601f19601f820116820180604052508101906134079190613f97565b60015b6134995761341661563b565b80613421575061345e565b806040517f08c379a00000000000000000000000000000000000000000000000000000000081526004016134559190614caa565b60405180910390fd5b6040517f08c379a000000000000000000000000000000000000000000000000000000000815260040161349090614f13565b60405180910390fd5b63f23a6e6160e01b7bffffffffffffffffffffffffffffffffffffffffffffffffffffffff1916817bffffffffffffffffffffffffffffffffffffffffffffffffffffffff191614613520576040517f08c379a000000000000000000000000000000000000000000000000000000000815260040161351790614f33565b60405180910390fd5b505b505050505050565b606080600060055467ffffffffffffffff811115613571577f4e487b7100000000000000000000000000000000000000000000000000000000600052604160045260246000fd5b60405190808252806020026020018201604052801561359f5781602001602082028036833780820191505090505b509050600060055467ffffffffffffffff8111156135e6577f4e487b7100000000000000000000000000000000000000000000000000000000600052604160045260246000fd5b6040519080825280602002602001820160405280156136145781602001602082028036833780820191505090505b50905060005b6005548110801561362c575060008614155b1561375557600061364988600184613644919061531b565b6105c2565b90506000811461374357600182613660919061531b565b848381518110613699577f4e487b7100000000000000000000000000000000000000000000000000000000600052603260045260246000fd5b6020026020010181815250506136af81886137bb565b8383815181106136e8577f4e487b7100000000000000000000000000000000000000000000000000000000600052603260045260246000fd5b60200260200101818152505082828151811061372d577f4e487b7100000000000000000000000000000000000000000000000000000000600052603260045260246000fd5b60200260200101518761374091906153fc565b96505b508061374e90615518565b905061361a565b5060008514613799576040517f08c379a000000000000000000000000000000000000000000000000000000000815260040161379090615013565b60405180910390fd5b81819350935050509250929050565b600080823b905060008111915050919050565b6000828211156137cd578290506137d1565b8190505b92915050565b8280546137e3906154e6565b90600052602060002090601f016020900481019282613805576000855561384c565b82601f1061381e57805160ff191683800117855561384c565b8280016001018555821561384c579182015b8281111561384b578251825591602001919060010190613830565b5b50905061385991906138c1565b5090565b6040518060c0016040528060608152602001600073ffffffffffffffffffffffffffffffffffffffff168152602001600073ffffffffffffffffffffffffffffffffffffffff16815260200160008152602001600015158152602001606081525090565b5b808211156138da5760008160009055506001016138c2565b5090565b60006138f16138ec846151aa565b615179565b9050808382526020820190508285602086028201111561391057600080fd5b60005b8581101561394057816139268882613a8f565b845260208401935060208301925050600181019050613913565b5050509392505050565b600061395d613958846151d6565b615179565b9050808382526020820190508260005b8581101561399d57813585016139838882613bb5565b84526020840193506020830192505060018101905061396d565b5050509392505050565b60006139ba6139b584615202565b615179565b905080838252602082019050828560208602820111156139d957600080fd5b60005b85811015613a0957816139ef8882613c2d565b8452602084019350602083019250506001810190506139dc565b5050509392505050565b6000613a26613a218461522e565b615179565b905082815260208101848484011115613a3e57600080fd5b613a498482856154a4565b509392505050565b6000613a64613a5f8461525e565b615179565b905082815260208101848484011115613a7c57600080fd5b613a878482856154a4565b509392505050565b600081359050613a9e816156f1565b92915050565b600082601f830112613ab557600080fd5b8135613ac58482602086016138de565b91505092915050565b600082601f830112613adf57600080fd5b8135613aef84826020860161394a565b91505092915050565b600082601f830112613b0957600080fd5b8135613b198482602086016139a7565b91505092915050565b600081359050613b3181615708565b92915050565b600081359050613b468161571f565b92915050565b600081519050613b5b8161571f565b92915050565b600082601f830112613b7257600080fd5b8135613b82848260208601613a13565b91505092915050565b600082601f830112613b9c57600080fd5b8135613bac848260208601613a51565b91505092915050565b600060608284031215613bc757600080fd5b613bd16060615179565b9050600082013567ffffffffffffffff811115613bed57600080fd5b613bf984828501613b8b565b6000830152506020613c0d84828501613a8f565b6020830152506040613c2184828501613c2d565b60408301525092915050565b600081359050613c3c81615736565b92915050565b600060208284031215613c5457600080fd5b6000613c6284828501613a8f565b91505092915050565b60008060408385031215613c7e57600080fd5b6000613c8c85828601613a8f565b9250506020613c9d85828601613a8f565b9150509250929050565b600080600080600060a08688031215613cbf57600080fd5b6000613ccd88828901613a8f565b9550506020613cde88828901613a8f565b945050604086013567ffffffffffffffff811115613cfb57600080fd5b613d0788828901613af8565b935050606086013567ffffffffffffffff811115613d2457600080fd5b613d3088828901613af8565b925050608086013567ffffffffffffffff811115613d4d57600080fd5b613d5988828901613b61565b9150509295509295909350565b600080600080600060a08688031215613d7e57600080fd5b6000613d8c88828901613a8f565b9550506020613d9d88828901613a8f565b9450506040613dae88828901613c2d565b9350506060613dbf88828901613c2d565b925050608086013567ffffffffffffffff811115613ddc57600080fd5b613de888828901613b61565b9150509295509295909350565b60008060408385031215613e0857600080fd5b6000613e1685828601613a8f565b9250506020613e2785828601613b22565b9150509250929050565b60008060408385031215613e4457600080fd5b6000613e5285828601613a8f565b925050602083013567ffffffffffffffff811115613e6f57600080fd5b613e7b85828601613b8b565b9150509250929050565b60008060408385031215613e9857600080fd5b6000613ea685828601613a8f565b9250506020613eb785828601613c2d565b9150509250929050565b60008060408385031215613ed457600080fd5b600083013567ffffffffffffffff811115613eee57600080fd5b613efa85828601613aa4565b925050602083013567ffffffffffffffff811115613f1757600080fd5b613f2385828601613af8565b9150509250929050565b600060208284031215613f3f57600080fd5b600082013567ffffffffffffffff811115613f5957600080fd5b613f6584828501613ace565b91505092915050565b600060208284031215613f8057600080fd5b6000613f8e84828501613b37565b91505092915050565b600060208284031215613fa957600080fd5b6000613fb784828501613b4c565b91505092915050565b600060208284031215613fd257600080fd5b600082013567ffffffffffffffff811115613fec57600080fd5b613ff884828501613b8b565b91505092915050565b6000806040838503121561401457600080fd5b600083013567ffffffffffffffff81111561402e57600080fd5b61403a85828601613b8b565b925050602061404b85828601613a8f565b9150509250929050565b60008060006060848603121561406a57600080fd5b600084013567ffffffffffffffff81111561408457600080fd5b61409086828701613b8b565b93505060206140a186828701613a8f565b92505060406140b286828701613c2d565b9150509250925092565b600080604083850312156140cf57600080fd5b600083013567ffffffffffffffff8111156140e957600080fd5b6140f585828601613b8b565b925050602083013567ffffffffffffffff81111561411257600080fd5b61411e85828601613b8b565b9150509250929050565b6000806000806080858703121561413e57600080fd5b600085013567ffffffffffffffff81111561415857600080fd5b61416487828801613b8b565b945050602085013567ffffffffffffffff81111561418157600080fd5b61418d87828801613b8b565b935050604061419e87828801613a8f565b92505060606141af87828801613c2d565b91505092959194509250565b6000602082840312156141cd57600080fd5b60006141db84828501613c2d565b91505092915050565b60006141f08383614b24565b60208301905092915050565b61420581615430565b82525050565b61421481615430565b82525050565b60006142258261529e565b61422f81856152cc565b935061423a8361528e565b8060005b8381101561426b57815161425288826141e4565b975061425d836152bf565b92505060018101905061423e565b5085935050505092915050565b61428181615442565b82525050565b61429081615442565b82525050565b60006142a1826152a9565b6142ab81856152dd565b93506142bb8185602086016154b3565b6142c48161561d565b840191505092915050565b60006142da826152b4565b6142e481856152ee565b93506142f48185602086016154b3565b6142fd8161561d565b840191505092915050565b6000614313826152b4565b61431d81856152ff565b935061432d8185602086016154b3565b6143368161561d565b840191505092915050565b600061434c826152b4565b6143568185615310565b93506143668185602086016154b3565b80840191505092915050565b600061437f6034836152ff565b91507f455243313135353a207472616e7366657220746f206e6f6e204552433131353560008301527f526563656976657220696d706c656d656e7465720000000000000000000000006020830152604082019050919050565b60006143e56028836152ff565b91507f455243313135353a204552433131353552656365697665722072656a6563746560008301527f6420746f6b656e730000000000000000000000000000000000000000000000006020830152604082019050919050565b600061444b6008836152ff565b91507f7365745f706169640000000000000000000000000000000000000000000000006000830152602082019050919050565b600061448b602b836152ff565b91507f455243313135353a2062616c616e636520717565727920666f7220746865207a60008301527f65726f20616464726573730000000000000000000000000000000000000000006020830152604082019050919050565b60006144f16007836152ff565b91507f7061796d656e74000000000000000000000000000000000000000000000000006000830152602082019050919050565b60006145316008836152ff565b91507f636c656172696e670000000000000000000000000000000000000000000000006000830152602082019050919050565b60006145716029836152ff565b91507f455243313135353a2063616c6c6572206973206e6f74206f776e6572206e6f7260008301527f20617070726f76656400000000000000000000000000000000000000000000006020830152604082019050919050565b60006145d7600b836152ff565b91507f65786368616e67655f696e0000000000000000000000000000000000000000006000830152602082019050919050565b60006146176018836152ff565b91507f4d502043414e4e4f54204d494e5420544f20495453454c4600000000000000006000830152602082019050919050565b60006146576025836152ff565b91507f455243313135353a207472616e7366657220746f20746865207a65726f20616460008301527f64726573730000000000000000000000000000000000000000000000000000006020830152604082019050919050565b60006146bd6032836152ff565b91507f455243313135353a207472616e736665722063616c6c6572206973206e6f742060008301527f6f776e6572206e6f7220617070726f76656400000000000000000000000000006020830152604082019050919050565b6000614723602a836152ff565b91507f455243313135353a20696e73756666696369656e742062616c616e636520666f60008301527f72207472616e73666572000000000000000000000000000000000000000000006020830152604082019050919050565b60006147896011836152ff565b91507f4e4f5420454e4f55474820544f4b454e530000000000000000000000000000006000830152602082019050919050565b60006147c9601f836152ff565b91507f4f4e4c592052454345495645522043414e204348414e474520495350414944006000830152602082019050919050565b6000614809601a836152ff565b91507f4f4e4c5920544845204d502043414e2041444420495453454c460000000000006000830152602082019050919050565b6000614849600c836152ff565b91507f65786368616e67655f6f757400000000000000000000000000000000000000006000830152602082019050919050565b60006148896010836152ff565b91507f4d5020414c5245414459204144444544000000000000000000000000000000006000830152602082019050919050565b60006148c96029836152ff565b91507f455243313135353a2073657474696e6720617070726f76616c2073746174757360008301527f20666f722073656c6600000000000000000000000000000000000000000000006020830152604082019050919050565b600061492f6029836152ff565b91507f455243313135353a206163636f756e747320616e6420696473206c656e67746860008301527f206d69736d6174636800000000000000000000000000000000000000000000006020830152604082019050919050565b6000614995600b836152ff565b91507f6665655f7061796d656e740000000000000000000000000000000000000000006000830152602082019050919050565b60006149d56028836152ff565b91507f455243313135353a2069647320616e6420616d6f756e7473206c656e6774682060008301527f6d69736d617463680000000000000000000000000000000000000000000000006020830152604082019050919050565b6000614a3b6021836152ff565b91507f455243313135353a206d696e7420746f20746865207a65726f2061646472657360008301527f73000000000000000000000000000000000000000000000000000000000000006020830152604082019050919050565b600060c0830160008301518482036000860152614ab182826142cf565b9150506020830151614ac660208601826141fc565b506040830151614ad960408601826141fc565b506060830151614aec6060860182614b24565b506080830151614aff6080860182614278565b5060a083015184820360a0860152614b1782826142cf565b9150508091505092915050565b614b2d8161549a565b82525050565b614b3c8161549a565b82525050565b6000614b4e8284614341565b915081905092915050565b6000602082019050614b6e600083018461420b565b92915050565b600060a082019050614b89600083018861420b565b614b96602083018761420b565b8181036040830152614ba8818661421a565b90508181036060830152614bbc818561421a565b90508181036080830152614bd08184614296565b90509695505050505050565b600060a082019050614bf1600083018861420b565b614bfe602083018761420b565b614c0b6040830186614b33565b614c186060830185614b33565b8181036080830152614c2a8184614296565b90509695505050505050565b60006020820190508181036000830152614c50818461421a565b905092915050565b60006040820190508181036000830152614c72818561421a565b90508181036020830152614c86818461421a565b90509392505050565b6000602082019050614ca46000830184614287565b92915050565b60006020820190508181036000830152614cc48184614308565b905092915050565b600060c0820190508181036000830152614ce68189614308565b9050614cf5602083018861420b565b614d02604083018761420b565b614d0f6060830186614b33565b614d1c6080830185614287565b81810360a0830152614d2e8184614308565b9050979650505050505050565b60006060820190508181036000830152614d558185614308565b90508181036020830152614d688161443e565b9050614d77604083018461420b565b9392505050565b60006080820190508181036000830152614d988186614308565b90508181036020830152614dab816144e4565b9050614dba604083018561420b565b614dc7606083018461420b565b949350505050565b60006080820190508181036000830152614de98186614308565b90508181036020830152614dfc81614524565b9050614e0b604083018561420b565b614e18606083018461420b565b949350505050565b60006080820190508181036000830152614e3a8186614308565b90508181036020830152614e4d816145ca565b9050614e5c604083018561420b565b614e69606083018461420b565b949350505050565b60006080820190508181036000830152614e8b8186614308565b90508181036020830152614e9e8161483c565b9050614ead604083018561420b565b614eba606083018461420b565b949350505050565b60006080820190508181036000830152614edc8186614308565b90508181036020830152614eef81614988565b9050614efe604083018561420b565b614f0b606083018461420b565b949350505050565b60006020820190508181036000830152614f2c81614372565b9050919050565b60006020820190508181036000830152614f4c816143d8565b9050919050565b60006020820190508181036000830152614f6c8161447e565b9050919050565b60006020820190508181036000830152614f8c81614564565b9050919050565b60006020820190508181036000830152614fac8161460a565b9050919050565b60006020820190508181036000830152614fcc8161464a565b9050919050565b60006020820190508181036000830152614fec816146b0565b9050919050565b6000602082019050818103600083015261500c81614716565b9050919050565b6000602082019050818103600083015261502c8161477c565b9050919050565b6000602082019050818103600083015261504c816147bc565b9050919050565b6000602082019050818103600083015261506c816147fc565b9050919050565b6000602082019050818103600083015261508c8161487c565b9050919050565b600060208201905081810360008301526150ac816148bc565b9050919050565b600060208201905081810360008301526150cc81614922565b9050919050565b600060208201905081810360008301526150ec816149c8565b9050919050565b6000602082019050818103600083015261510c81614a2e565b9050919050565b6000602082019050818103600083015261512d8184614a94565b905092915050565b600060208201905061514a6000830184614b33565b92915050565b60006040820190506151656000830185614b33565b6151726020830184614b33565b9392505050565b6000604051905081810181811067ffffffffffffffff821117156151a05761519f6155ee565b5b8060405250919050565b600067ffffffffffffffff8211156151c5576151c46155ee565b5b602082029050602081019050919050565b600067ffffffffffffffff8211156151f1576151f06155ee565b5b602082029050602081019050919050565b600067ffffffffffffffff82111561521d5761521c6155ee565b5b602082029050602081019050919050565b600067ffffffffffffffff821115615249576152486155ee565b5b601f19601f8301169050602081019050919050565b600067ffffffffffffffff821115615279576152786155ee565b5b601f19601f8301169050602081019050919050565b6000819050602082019050919050565b600081519050919050565b600081519050919050565b600081519050919050565b6000602082019050919050565b600082825260208201905092915050565b600082825260208201905092915050565b600082825260208201905092915050565b600082825260208201905092915050565b600081905092915050565b60006153268261549a565b91506153318361549a565b9250827fffffffffffffffffffffffffffffffffffffffffffffffffffffffffffffffff0382111561536657615365615561565b5b828201905092915050565b600061537c8261549a565b91506153878361549a565b92508261539757615396615590565b5b828204905092915050565b60006153ad8261549a565b91506153b88361549a565b9250817fffffffffffffffffffffffffffffffffffffffffffffffffffffffffffffffff04831182151516156153f1576153f0615561565b5b828202905092915050565b60006154078261549a565b91506154128361549a565b92508282101561542557615424615561565b5b828203905092915050565b600061543b8261547a565b9050919050565b60008115159050919050565b60007fffffffff0000000000000000000000000000000000000000000000000000000082169050919050565b600073ffffffffffffffffffffffffffffffffffffffff82169050919050565b6000819050919050565b82818337600083830152505050565b60005b838110156154d15780820151818401526020810190506154b6565b838111156154e0576000848401525b50505050565b600060028204905060018216806154fe57607f821691505b60208210811415615512576155116155bf565b5b50919050565b60006155238261549a565b91507fffffffffffffffffffffffffffffffffffffffffffffffffffffffffffffffff82141561555657615555615561565b5b600182019050919050565b7f4e487b7100000000000000000000000000000000000000000000000000000000600052601160045260246000fd5b7f4e487b7100000000000000000000000000000000000000000000000000000000600052601260045260246000fd5b7f4e487b7100000000000000000000000000000000000000000000000000000000600052602260045260246000fd5b7f4e487b7100000000000000000000000000000000000000000000000000000000600052604160045260246000fd5b6000601f19601f8301169050919050565b60008160e01c9050919050565b600060443d101561564b576156ee565b60046000803e61565c60005161562e565b6308c379a0811461566d57506156ee565b60405160043d036004823e80513d602482011167ffffffffffffffff82111715615699575050506156ee565b808201805167ffffffffffffffff8111156156b85750505050506156ee565b8060208301013d85018111156156d3575050505050506156ee565b6156dc8261561d565b60208401016040528296505050505050505b90565b6156fa81615430565b811461570557600080fd5b50565b61571181615442565b811461571c57600080fd5b50565b6157288161544e565b811461573357600080fd5b50565b61573f8161549a565b811461574a57600080fd5b5056fea26469706673582212202fa5c2daf6f263ac88713a054481d37f0d09a03a19f9097e57fa49ce52da876a64736f6c6343000800003368747470733a2f2f69336d61726b65742e636f6d2f6d61726b6574706c6163652f7b69647d2e6a736f6e",
  "immutableReferences": {},
  "source": "/**\n* SPDX-License-Identifier: Apache-2.0\n* Copyright (c) 2020-2022 in alphabetical order:\n* GFT, HOPU\n*\n* This program and the accompanying materials are made\n* available under the terms of the EUROPEAN UNION PUBLIC LICENCE v. 1.2\n* which is available at https://gitlab.com/i3-market/code/wp3/t3.3/tokenization/-/blob/main/LICENSE\n*\n* License-Identifier: Apache 2.0\n*\n* Contributors:\n*    Luca Marangoni (GFT)\n*    German Molina Carrasco (HOPU)\n*\n*/\n\npragma solidity >=0.7.0 <0.9.0;\npragma abicoder v2;\n\nimport \"@openzeppelin/contracts/token/ERC1155/ERC1155.sol\";\n\n\ncontract I3MarketTreasury is ERC1155 {\n    \n    event TokenTransferred(string transferId, string operation, address fromAdd, address toAdd);\n    event FiatMoneyPayment(string transferId, string operation, address fromAdd);\n    \n    struct TokenTransfer {  \n        string transferId;\n        address fromAdd;\n        address toAdd;\n        uint tokenAmount;\n        bool isPaid;\n        string transferCode;\n    }\n    \n    struct ClearingOperation{\n        string transferId;\n        address toAdd;\n        uint tokenAmount;\n    }\n\n    // transactions array\n    mapping(string => TokenTransfer) public txs;\n\n    // marketplace index array\n    mapping(address => uint) public mpIndex;\n    uint public index = 0;\n\n    // marketplaces address array\n    address[] private marketplaces;\n    \n    // variable that define the minimum amount accettable to start a clearing operation\n    uint private minimumClearingThreshold;\n\n    // address that represent the Community wallet - edits to this variable should be regulated\n    address public communityWallet;\n\n    // Community fee percentage \n    uint public communityFee;\n\n    modifier onlySameAdd(address _mpAdd) {\n        require(msg.sender == _mpAdd, \"ONLY THE MP CAN ADD ITSELF\");\n        _;\n    }\n\n    modifier onlyMp(address _mpAdd) {\n        isMarketplace(_mpAdd,\"ADD ISN'T A MP\");\n        _;\n    }\n\n    modifier validDestination(address _to) {\n        require(msg.sender != _to, \"MP CANNOT MINT TO ITSELF\");\n        _;\n    }\n\n    modifier onlyTheTokenReceiver(string memory _transferId) {\n        require(txs[_transferId].toAdd == msg.sender, \"ONLY RECEIVER CAN CHANGE ISPAID\");\n        _;\n    }\n\n    modifier onlyNewMpAdd(address _mpAdd) {\n        require(mpIndex[_mpAdd] == 0, \"MP ALREADY ADDED\");\n        _;\n    }\n\n    constructor() ERC1155(\"https://i3market.com/marketplace/{id}.json\") {\n    }\n\n    /*\n    * add a new Data Marketplace in the platform\n    */\n    function addMarketplace(address _mpAdd) external onlySameAdd(_mpAdd) onlyNewMpAdd(_mpAdd) {\n        index += 1;\n        marketplaces.push(_mpAdd);\n        mpIndex[_mpAdd] = index;\n    }\n\n    /*\n    * exchange in function between a Data Marketplace and a Data Consumer\n    */\n    function exchangeIn(string memory transferId, address _userAdd, uint _tokensAmount) external payable validDestination(_userAdd) { \n        \n        isMarketplace(msg.sender,\"ADD ISN'T A MP\");\n        //mint token from Data Marketplace to Data Consumer\n        _mint(_userAdd, mpIndex[msg.sender], _tokensAmount, \"\");\n        //create transaction with isPaid param to True as Fiat money payment is already done\n        txs[transferId] = TokenTransfer(transferId, msg.sender, _userAdd, _tokensAmount, true, \"\");\n        emit TokenTransferred(transferId, \"exchange_in\", _userAdd, address(0));\n    }\n\n    /*\n    * clearing function of a Data Marketplace\n    */\n    function clearing(ClearingOperation[] memory _clearingOps) external payable onlyMp(msg.sender){ \n        \n        //clearing for each marketplace contained\n        for (uint i = 0; i < _clearingOps.length; ++i){\n            uint amount = _clearingOps[i].tokenAmount;\n            address toMp = _clearingOps[i].toAdd;\n            isMarketplace(toMp,\"ADD ISN'T A MP\");\n            if(amount > minimumClearingThreshold) {\n                super.safeTransferFrom(msg.sender,toMp,mpIndex[toMp], amount, \"0x0\");\n\n                //create transaction with isPaid param to False as Fiat money payment is not completed yet\n                txs[_clearingOps[i].transferId] = TokenTransfer(_clearingOps[i].transferId, msg.sender, toMp, amount, false, \"\");\n                emit TokenTransferred(_clearingOps[i].transferId, \"clearing\", msg.sender, toMp);\n            }\n        }\n    }\n\n    /*  \n    * payment function between a Data Consumer and a Data Provider  \n    */  \n    function payment(string memory transferId, address _dataProvider, uint256 _amount) external payable {    \n        _transferFrom(msg.sender, _dataProvider, _amount);   \n        txs[transferId] = TokenTransfer(transferId, msg.sender, _dataProvider, _amount, false, \"\"); \n        emit TokenTransferred(transferId, \"payment\", msg.sender, _dataProvider);    \n    }   \n\n    /*  \n    * token transfer function \n    */  \n    function _transferFrom(address _from, address _to, uint256 _amount) internal { \n        uint256[] memory _ids = new uint256[](index);   \n        uint256[] memory _amounts = new uint256[](index);   \n        //obtains the tokens needed to pay the amount   \n        (_ids, _amounts) = configurePayment(_from, _amount);  \n        super.safeBatchTransferFrom(_from, _to, _ids, _amounts, \"0x0\");   \n    }\n\n    /*  \n    * fees payment function from a Data Consumer to the Community Wallet and the Data Provider Marketplace  \n    */  \n    function feePayment(string memory _transferIdCommunity, string memory _transferIdMp, address _dataProviderMp, uint256 _feeAmount) external payable {  \n\n        uint _amountCommunity = _feeAmount * communityFee / 100; \n        uint _amountMarketplace = _feeAmount - _amountCommunity;\n          \n        // tranfer token to the Community wallet\n        _transferFrom(msg.sender, communityWallet, _amountCommunity);\n        txs[_transferIdCommunity] = TokenTransfer(_transferIdCommunity, msg.sender, communityWallet, _amountCommunity, false, \"\");\n        emit TokenTransferred(_transferIdCommunity, \"fee_payment\", msg.sender, communityWallet);    \n\n        // transfer token to the Data Provider Host Marketplace\n        _transferFrom(msg.sender, _dataProviderMp, _amountMarketplace);\n        txs[_transferIdMp] = TokenTransfer(_transferIdMp, msg.sender, _dataProviderMp, _amountMarketplace, false, \"\"); \n        emit TokenTransferred(_transferIdMp, \"fee_payment\", msg.sender, _dataProviderMp);   \n    }   \n\n\n    /*\n    * exchange out function between a Data Provider and a Data Marketplace\n    */\n    function exchangeOut(string memory _transferId, address _mpAdd) external payable{ \n        \n        uint256[] memory _ids = new uint256[](index);\n        for (uint i = 0; i < index; ++i) {\n            _ids[i] = i + 1;\n        }\n        uint256[] memory _amounts = new uint256[](index);\n        //exchange out all the token available in the balance\n        _amounts = balanceOfAddress(msg.sender);\n\n        super.safeBatchTransferFrom(msg.sender,_mpAdd, _ids, _amounts, \"0x0\");\n        txs[_transferId] = TokenTransfer(_transferId, msg.sender, _mpAdd, getSum(_amounts), false, \"\");\n        emit TokenTransferred(_transferId, \"exchange_out\", msg.sender, _mpAdd);\n    }\n\n    /*\n    * Returns the TokenTransfer informations associated with the transferId identifier\n    */\n    function getTransaction(string memory _transferId) public view returns (TokenTransfer memory tokenTransfer) { \n        return txs[_transferId];\n    }\n\n    /*\n    * Returns a pair with the token ids and the respective amounts to cover the amount required for payment. \n    * Tokens are taken starting from the first token type until the sum is reached\n    */\n    function configurePayment(address from, uint256 amount) private view returns (uint256[] memory ids, uint256[] memory amounts) { \n        uint256[] memory mpIds = new uint256[](index);  \n        uint256[] memory mpTokens = new uint256[](index);   \n        for (uint256 i = 0; i < index && amount != 0; ++i) {    \n            uint256 mpBalance = super.balanceOf(from, i + 1);   \n            if (mpBalance != 0) {   \n                mpIds[i] = i + 1;   \n                mpTokens[i] = getMarketplaceNeededTokens(mpBalance, amount);    \n                amount = amount - mpTokens[i];  \n            }   \n        }   \n        require(amount == 0, \"NOT ENOUGH TOKENS\");  \n        return (mpIds, mpTokens);   \n    }\n\n    function getMarketplaceNeededTokens(uint256 balance, uint256 amount) private pure returns (uint256) {   \n        if (amount > balance) { \n            return balance; \n        }   \n        return amount;  \n    }\n\n    /*  \n    * Returns the sum of the elements in an array   \n    */  \n    function getSum(uint256[] memory _amounts) private pure returns (uint256){  \n        uint256 sum = 0;    \n        for (uint i = 0; i < _amounts.length; i++) {    \n            sum = sum + _amounts[i];    \n        }   \n        return sum; \n    }\n\n    /*\n    * in the TokenTransfer object of a transaction, set the isPaid param to true if the payment was also made with fiat money\n    */ \n    function setPaid(string memory _transferId, string memory _transferCode) external payable onlyTheTokenReceiver(_transferId){    \n        txs[_transferId].isPaid = true;    \n        txs[_transferId].transferCode = _transferCode; \n        emit FiatMoneyPayment(_transferId, \"set_paid\", msg.sender);\n    }\n\n    /*\n    * in the TokenTransfer object of a transaction, set the transfer code param \n    */ \n    //function setTransferCode(string memory _transferId, string memory _transferCode) external payable onlyTheTokenReceiver(_transferId){ \n    //    txs[_transferId].transferCode = _transferCode;\n    //}\n    \n    /*\n    * return the overall balance of all the tokens owned by _owner\n    */\n    function balanceOfAddress(address _owner) public view returns (uint256[] memory) {\n        uint256[] memory balances_ = new uint256[](index);\n\n        for (uint256 i = 0; i < index; ++i) {\n            balances_[i] = super.balanceOf(_owner, i + 1);\n        }\n        return balances_;\n    }\n\n    /*\n    * Set Community fee rate and address\n    */\n    function setCommunityWalletAndCommunityFee(address _communityWallett, uint _feeRate) external payable onlyMp(msg.sender){\n        communityWallet = _communityWallett;\n        communityFee = _feeRate;\n    }\n\n    /*\n    * Set minimum CLearing threshold\n    */\n    function setMinimumClearingThreshold(uint _clearingThreshold) external payable onlyMp(msg.sender){\n        minimumClearingThreshold = _clearingThreshold;\n    }\n\n    /*\n    * Check if address is a regular marketplace\n    */\n    function isMarketplace(address _mpAdd, string memory message) public view {\n        require(mpIndex[_mpAdd] != 0, message);\n    }\n\n}\n",
  "sourcePath": "/home/hopu/PycharmProjects/i3-market-tokenization/contracts/Treasury.sol",
  "compiler": {
    "name": "solc",
    "version": "0.8.0+commit.c7dfd78e.Emscripten.clang"
  },
  "schemaVersion": "3.4.3",
  "updatedAt": "2022-04-30T18:17:02.080Z",
  "devdoc": {
    "kind": "dev",
    "methods": {
      "balanceOf(address,uint256)": {
        "details": "See {IERC1155-balanceOf}. Requirements: - `account` cannot be the zero address."
      },
      "balanceOfBatch(address[],uint256[])": {
        "details": "See {IERC1155-balanceOfBatch}. Requirements: - `accounts` and `ids` must have the same length."
      },
      "isApprovedForAll(address,address)": {
        "details": "See {IERC1155-isApprovedForAll}."
      },
      "safeBatchTransferFrom(address,address,uint256[],uint256[],bytes)": {
        "details": "See {IERC1155-safeBatchTransferFrom}."
      },
      "safeTransferFrom(address,address,uint256,uint256,bytes)": {
        "details": "See {IERC1155-safeTransferFrom}."
      },
      "setApprovalForAll(address,bool)": {
        "details": "See {IERC1155-setApprovalForAll}."
      },
      "supportsInterface(bytes4)": {
        "details": "See {IERC165-supportsInterface}."
      },
      "uri(uint256)": {
        "details": "See {IERC1155MetadataURI-uri}. This implementation returns the same URI for *all* token types. It relies on the token type ID substitution mechanism https://eips.ethereum.org/EIPS/eip-1155#metadata[defined in the EIP]. Clients calling this function must replace the `\\{id\\}` substring with the actual token type ID."
      }
    },
    "version": 1
  },
  "userdoc": {
    "kind": "user",
    "methods": {},
    "version": 1
  }
}