{
  "contractName": "TreasuryWithAllowance",
  "abi": [
    {
      "inputs": [],
      "stateMutability": "nonpayable",
      "type": "constructor"
    },
    {
      "anonymous": false,
      "inputs": [
        {
          "indexed": true,
          "internalType": "address",
          "name": "_owner",
          "type": "address"
        },
        {
          "indexed": true,
          "internalType": "address",
          "name": "_spender",
          "type": "address"
        },
        {
          "indexed": false,
          "internalType": "uint256",
          "name": "_oldValue",
          "type": "uint256"
        },
        {
          "indexed": false,
          "internalType": "uint256",
          "name": "_value",
          "type": "uint256"
        }
      ],
      "name": "Approval",
      "type": "event"
    },
    {
      "anonymous": false,
      "inputs": [
        {
          "indexed": true,
          "internalType": "address",
          "name": "account",
          "type": "address"
        },
        {
          "indexed": true,
          "internalType": "address",
          "name": "operator",
          "type": "address"
        },
        {
          "indexed": false,
          "internalType": "bool",
          "name": "approved",
          "type": "bool"
        }
      ],
      "name": "ApprovalForAll",
      "type": "event"
    },
    {
      "anonymous": false,
      "inputs": [
        {
          "indexed": false,
          "internalType": "string",
          "name": "transferId",
          "type": "string"
        },
        {
          "indexed": false,
          "internalType": "string",
          "name": "operation",
          "type": "string"
        },
        {
          "indexed": false,
          "internalType": "address",
          "name": "fromAdd",
          "type": "address"
        }
      ],
      "name": "FiatMoneyPayment",
      "type": "event"
    },
    {
      "anonymous": false,
      "inputs": [
        {
          "indexed": false,
          "internalType": "string",
          "name": "transferId",
          "type": "string"
        },
        {
          "indexed": false,
          "internalType": "string",
          "name": "operation",
          "type": "string"
        },
        {
          "indexed": false,
          "internalType": "address",
          "name": "fromAdd",
          "type": "address"
        },
        {
          "indexed": false,
          "internalType": "address",
          "name": "toAdd",
          "type": "address"
        }
      ],
      "name": "TokenTransferred",
      "type": "event"
    },
    {
      "anonymous": false,
      "inputs": [
        {
          "indexed": true,
          "internalType": "address",
          "name": "from",
          "type": "address"
        },
        {
          "indexed": true,
          "internalType": "address",
          "name": "to",
          "type": "address"
        },
        {
          "indexed": false,
          "internalType": "uint256",
          "name": "value",
          "type": "uint256"
        }
      ],
      "name": "Transfer",
      "type": "event"
    },
    {
      "anonymous": false,
      "inputs": [
        {
          "indexed": true,
          "internalType": "address",
          "name": "operator",
          "type": "address"
        },
        {
          "indexed": true,
          "internalType": "address",
          "name": "from",
          "type": "address"
        },
        {
          "indexed": true,
          "internalType": "address",
          "name": "to",
          "type": "address"
        },
        {
          "indexed": false,
          "internalType": "uint256[]",
          "name": "ids",
          "type": "uint256[]"
        },
        {
          "indexed": false,
          "internalType": "uint256[]",
          "name": "values",
          "type": "uint256[]"
        }
      ],
      "name": "TransferBatch",
      "type": "event"
    },
    {
      "anonymous": false,
      "inputs": [
        {
          "indexed": true,
          "internalType": "address",
          "name": "operator",
          "type": "address"
        },
        {
          "indexed": true,
          "internalType": "address",
          "name": "from",
          "type": "address"
        },
        {
          "indexed": true,
          "internalType": "address",
          "name": "to",
          "type": "address"
        },
        {
          "indexed": false,
          "internalType": "uint256",
          "name": "id",
          "type": "uint256"
        },
        {
          "indexed": false,
          "internalType": "uint256",
          "name": "value",
          "type": "uint256"
        }
      ],
      "name": "TransferSingle",
      "type": "event"
    },
    {
      "anonymous": false,
      "inputs": [
        {
          "indexed": false,
          "internalType": "string",
          "name": "value",
          "type": "string"
        },
        {
          "indexed": true,
          "internalType": "uint256",
          "name": "id",
          "type": "uint256"
        }
      ],
      "name": "URI",
      "type": "event"
    },
    {
      "inputs": [
        {
          "internalType": "address",
          "name": "_mpAdd",
          "type": "address"
        }
      ],
      "name": "addMarketplace",
      "outputs": [],
      "stateMutability": "nonpayable",
      "type": "function"
    },
    {
      "inputs": [
        {
          "internalType": "address",
          "name": "account",
          "type": "address"
        },
        {
          "internalType": "uint256",
          "name": "id",
          "type": "uint256"
        }
      ],
      "name": "balanceOf",
      "outputs": [
        {
          "internalType": "uint256",
          "name": "",
          "type": "uint256"
        }
      ],
      "stateMutability": "view",
      "type": "function",
      "constant": true
    },
    {
      "inputs": [
        {
          "internalType": "address",
          "name": "_owner",
          "type": "address"
        }
      ],
      "name": "balanceOfAddress",
      "outputs": [
        {
          "internalType": "uint256[]",
          "name": "",
          "type": "uint256[]"
        }
      ],
      "stateMutability": "view",
      "type": "function",
      "constant": true
    },
    {
      "inputs": [
        {
          "internalType": "address[]",
          "name": "accounts",
          "type": "address[]"
        },
        {
          "internalType": "uint256[]",
          "name": "ids",
          "type": "uint256[]"
        }
      ],
      "name": "balanceOfBatch",
      "outputs": [
        {
          "internalType": "uint256[]",
          "name": "",
          "type": "uint256[]"
        }
      ],
      "stateMutability": "view",
      "type": "function",
      "constant": true
    },
    {
      "inputs": [
        {
          "components": [
            {
              "internalType": "string",
              "name": "transferId",
              "type": "string"
            },
            {
              "internalType": "address",
              "name": "toAdd",
              "type": "address"
            },
            {
              "internalType": "uint256",
              "name": "tokenAmount",
              "type": "uint256"
            }
          ],
          "internalType": "struct I3MarketTreasury.ClearingOperation[]",
          "name": "_clearingOps",
          "type": "tuple[]"
        }
      ],
      "name": "clearing",
      "outputs": [],
      "stateMutability": "payable",
      "type": "function",
      "payable": true
    },
    {
      "inputs": [],
      "name": "communityFee",
      "outputs": [
        {
          "internalType": "uint256",
          "name": "",
          "type": "uint256"
        }
      ],
      "stateMutability": "view",
      "type": "function",
      "constant": true
    },
    {
      "inputs": [],
      "name": "communityWallet",
      "outputs": [
        {
          "internalType": "address",
          "name": "",
          "type": "address"
        }
      ],
      "stateMutability": "view",
      "type": "function",
      "constant": true
    },
    {
      "inputs": [
        {
          "internalType": "string",
          "name": "transferId",
          "type": "string"
        },
        {
          "internalType": "address",
          "name": "_userAdd",
          "type": "address"
        },
        {
          "internalType": "uint256",
          "name": "_tokensAmount",
          "type": "uint256"
        }
      ],
      "name": "exchangeIn",
      "outputs": [],
      "stateMutability": "payable",
      "type": "function",
      "payable": true
    },
    {
      "inputs": [
        {
          "internalType": "string",
          "name": "_transferId",
          "type": "string"
        },
        {
          "internalType": "address",
          "name": "_mpAdd",
          "type": "address"
        }
      ],
      "name": "exchangeOut",
      "outputs": [],
      "stateMutability": "payable",
      "type": "function",
      "payable": true
    },
    {
      "inputs": [
        {
          "internalType": "string",
          "name": "_transferIdCommunity",
          "type": "string"
        },
        {
          "internalType": "string",
          "name": "_transferIdMp",
          "type": "string"
        },
        {
          "internalType": "address",
          "name": "_dataProviderMp",
          "type": "address"
        },
        {
          "internalType": "uint256",
          "name": "_feeAmount",
          "type": "uint256"
        }
      ],
      "name": "feePayment",
      "outputs": [],
      "stateMutability": "payable",
      "type": "function",
      "payable": true
    },
    {
      "inputs": [
        {
          "internalType": "string",
          "name": "_transferId",
          "type": "string"
        }
      ],
      "name": "getTransaction",
      "outputs": [
        {
          "components": [
            {
              "internalType": "string",
              "name": "transferId",
              "type": "string"
            },
            {
              "internalType": "address",
              "name": "fromAdd",
              "type": "address"
            },
            {
              "internalType": "address",
              "name": "toAdd",
              "type": "address"
            },
            {
              "internalType": "uint256",
              "name": "tokenAmount",
              "type": "uint256"
            },
            {
              "internalType": "bool",
              "name": "isPaid",
              "type": "bool"
            },
            {
              "internalType": "string",
              "name": "transferCode",
              "type": "string"
            }
          ],
          "internalType": "struct I3MarketTreasury.TokenTransfer",
          "name": "tokenTransfer",
          "type": "tuple"
        }
      ],
      "stateMutability": "view",
      "type": "function",
      "constant": true
    },
    {
      "inputs": [],
      "name": "index",
      "outputs": [
        {
          "internalType": "uint256",
          "name": "",
          "type": "uint256"
        }
      ],
      "stateMutability": "view",
      "type": "function",
      "constant": true
    },
    {
      "inputs": [
        {
          "internalType": "address",
          "name": "_mpAdd",
          "type": "address"
        },
        {
          "internalType": "string",
          "name": "message",
          "type": "string"
        }
      ],
      "name": "isMarketplace",
      "outputs": [],
      "stateMutability": "view",
      "type": "function",
      "constant": true
    },
    {
      "inputs": [
        {
          "internalType": "address",
          "name": "",
          "type": "address"
        }
      ],
      "name": "mpIndex",
      "outputs": [
        {
          "internalType": "uint256",
          "name": "",
          "type": "uint256"
        }
      ],
      "stateMutability": "view",
      "type": "function",
      "constant": true
    },
    {
      "inputs": [
        {
          "internalType": "string",
          "name": "transferId",
          "type": "string"
        },
        {
          "internalType": "address",
          "name": "_dataProvider",
          "type": "address"
        },
        {
          "internalType": "uint256",
          "name": "_amount",
          "type": "uint256"
        }
      ],
      "name": "payment",
      "outputs": [],
      "stateMutability": "payable",
      "type": "function",
      "payable": true
    },
    {
      "inputs": [
        {
          "internalType": "address",
          "name": "from",
          "type": "address"
        },
        {
          "internalType": "address",
          "name": "to",
          "type": "address"
        },
        {
          "internalType": "uint256[]",
          "name": "ids",
          "type": "uint256[]"
        },
        {
          "internalType": "uint256[]",
          "name": "amounts",
          "type": "uint256[]"
        },
        {
          "internalType": "bytes",
          "name": "data",
          "type": "bytes"
        }
      ],
      "name": "safeBatchTransferFrom",
      "outputs": [],
      "stateMutability": "nonpayable",
      "type": "function"
    },
    {
      "inputs": [
        {
          "internalType": "address",
          "name": "from",
          "type": "address"
        },
        {
          "internalType": "address",
          "name": "to",
          "type": "address"
        },
        {
          "internalType": "uint256",
          "name": "id",
          "type": "uint256"
        },
        {
          "internalType": "uint256",
          "name": "amount",
          "type": "uint256"
        },
        {
          "internalType": "bytes",
          "name": "data",
          "type": "bytes"
        }
      ],
      "name": "safeTransferFrom",
      "outputs": [],
      "stateMutability": "nonpayable",
      "type": "function"
    },
    {
      "inputs": [
        {
          "internalType": "address",
          "name": "_communityWallett",
          "type": "address"
        },
        {
          "internalType": "uint256",
          "name": "_feeRate",
          "type": "uint256"
        }
      ],
      "name": "setCommunityWalletAndCommunityFee",
      "outputs": [],
      "stateMutability": "payable",
      "type": "function",
      "payable": true
    },
    {
      "inputs": [
        {
          "internalType": "uint256",
          "name": "_clearingThreshold",
          "type": "uint256"
        }
      ],
      "name": "setMinimumClearingThreshold",
      "outputs": [],
      "stateMutability": "payable",
      "type": "function",
      "payable": true
    },
    {
      "inputs": [
        {
          "internalType": "string",
          "name": "_transferId",
          "type": "string"
        },
        {
          "internalType": "string",
          "name": "_transferCode",
          "type": "string"
        }
      ],
      "name": "setPaid",
      "outputs": [],
      "stateMutability": "payable",
      "type": "function",
      "payable": true
    },
    {
      "inputs": [
        {
          "internalType": "bytes4",
          "name": "interfaceId",
          "type": "bytes4"
        }
      ],
      "name": "supportsInterface",
      "outputs": [
        {
          "internalType": "bool",
          "name": "",
          "type": "bool"
        }
      ],
      "stateMutability": "view",
      "type": "function",
      "constant": true
    },
    {
      "inputs": [
        {
          "internalType": "string",
          "name": "",
          "type": "string"
        }
      ],
      "name": "txs",
      "outputs": [
        {
          "internalType": "string",
          "name": "transferId",
          "type": "string"
        },
        {
          "internalType": "address",
          "name": "fromAdd",
          "type": "address"
        },
        {
          "internalType": "address",
          "name": "toAdd",
          "type": "address"
        },
        {
          "internalType": "uint256",
          "name": "tokenAmount",
          "type": "uint256"
        },
        {
          "internalType": "bool",
          "name": "isPaid",
          "type": "bool"
        },
        {
          "internalType": "string",
          "name": "transferCode",
          "type": "string"
        }
      ],
      "stateMutability": "view",
      "type": "function",
      "constant": true
    },
    {
      "inputs": [
        {
          "internalType": "uint256",
          "name": "",
          "type": "uint256"
        }
      ],
      "name": "uri",
      "outputs": [
        {
          "internalType": "string",
          "name": "",
          "type": "string"
        }
      ],
      "stateMutability": "view",
      "type": "function",
      "constant": true
    },
    {
      "inputs": [
        {
          "internalType": "address",
          "name": "owner",
          "type": "address"
        },
        {
          "internalType": "address",
          "name": "spender",
          "type": "address"
        }
      ],
      "name": "allowance",
      "outputs": [
        {
          "internalType": "uint256",
          "name": "",
          "type": "uint256"
        }
      ],
      "stateMutability": "view",
      "type": "function",
      "constant": true
    },
    {
      "inputs": [
        {
          "internalType": "address",
          "name": "spender",
          "type": "address"
        },
        {
          "internalType": "uint256",
          "name": "currentValue",
          "type": "uint256"
        },
        {
          "internalType": "uint256",
          "name": "value",
          "type": "uint256"
        }
      ],
      "name": "approve",
      "outputs": [
        {
          "internalType": "bool",
          "name": "",
          "type": "bool"
        }
      ],
      "stateMutability": "nonpayable",
      "type": "function"
    },
    {
      "inputs": [
        {
          "internalType": "string",
          "name": "transferId",
          "type": "string"
        },
        {
          "internalType": "address",
          "name": "from",
          "type": "address"
        },
        {
          "internalType": "address",
          "name": "to",
          "type": "address"
        },
        {
          "internalType": "uint256",
          "name": "value",
          "type": "uint256"
        }
      ],
      "name": "allowanceTransfer",
      "outputs": [
        {
          "internalType": "bool",
          "name": "",
          "type": "bool"
        }
      ],
      "stateMutability": "nonpayable",
      "type": "function"
    },
    {
      "inputs": [
        {
          "internalType": "address",
          "name": "account",
          "type": "address"
        },
        {
          "internalType": "address",
          "name": "operator",
          "type": "address"
        }
      ],
      "name": "isApprovedForAll",
      "outputs": [
        {
          "internalType": "bool",
          "name": "",
          "type": "bool"
        }
      ],
      "stateMutability": "view",
      "type": "function",
      "constant": true
    },
    {
      "inputs": [
        {
          "internalType": "address",
          "name": "operator",
          "type": "address"
        },
        {
          "internalType": "bool",
          "name": "approved",
          "type": "bool"
        }
      ],
      "name": "setApprovalForAll",
      "outputs": [],
      "stateMutability": "nonpayable",
      "type": "function"
    }
  ],
  "bytecode": "0x608060405260006005553480156200001657600080fd5b506040518060600160405280602a815260200162005fd8602a913962000042816200004960201b60201c565b506200017a565b80600290805190602001906200006192919062000065565b5050565b828054620000739062000115565b90600052602060002090601f016020900481019282620000975760008555620000e3565b82601f10620000b257805160ff1916838001178555620000e3565b82800160010185558215620000e3579182015b82811115620000e2578251825591602001919060010190620000c5565b5b509050620000f29190620000f6565b5090565b5b8082111562000111576000816000905550600101620000f7565b5090565b600060028204905060018216806200012e57607f821691505b602082108114156200014557620001446200014b565b5b50919050565b7f4e487b7100000000000000000000000000000000000000000000000000000000600052602260045260246000fd5b615e4e806200018a6000396000f3fe6080604052600436106101b65760003560e01c806386212b8f116100ec578063c1acc5d11161008a578063cc4dd6f211610064578063cc4dd6f2146105ea578063dd62ed3e14610627578063e985e9c514610664578063f242432a146106a1576101b6565b8063c1acc5d114610587578063c264679c146105a3578063c7574839146105bf576101b6565b8063a22cb465116100c6578063a22cb465146104e9578063aa5a185b14610512578063ac2ccd071461052e578063b4b13c7e1461056b576101b6565b806386212b8f146104655780638961be6b146104a257806390977087146104cd576101b6565b806339c53b10116101595780634e1273f4116101335780634e1273f4146103a657806357af8619146103e357806371771330146104205780638081e99014610449576101b6565b806339c53b1014610331578063426a84931461034d5780634649fe671461038a576101b6565b806328a513ea1161019557806328a513ea146102725780632986c0e51461029b5780632eb2c2d6146102c657806336d7b23a146102ef576101b6565b8062fdd58e146101bb57806301ffc9a7146101f85780630e89341c14610235575b600080fd5b3480156101c757600080fd5b506101e260048036038101906101dd919061444c565b6106ca565b6040516101ef9190615800565b60405180910390f35b34801561020457600080fd5b5061021f600480360381019061021a9190614584565b610793565b60405161022c919061533a565b60405180910390f35b34801561024157600080fd5b5061025c6004803603810190610257919061484c565b610875565b6040516102699190615355565b60405180910390f35b34801561027e57600080fd5b50610299600480360381019061029491906143f8565b610909565b005b3480156102a757600080fd5b506102b0610994565b6040516102bd9190615800565b60405180910390f35b3480156102d257600080fd5b506102ed60048036038101906102e8919061426e565b61099a565b005b3480156102fb57600080fd5b50610316600480360381019061031191906145d6565b610a3b565b60405161032896959493929190615377565b60405180910390f35b61034b60048036038101906103469190614617565b610bea565b005b34801561035957600080fd5b50610374600480360381019061036f9190614488565b610f59565b604051610381919061533a565b60405180910390f35b6103a4600480360381019061039f919061484c565b611146565b005b3480156103b257600080fd5b506103cd60048036038101906103c891906144d7565b611191565b6040516103da91906152e1565b60405180910390f35b3480156103ef57600080fd5b5061040a60048036038101906104059190614209565b611342565b6040516104179190615800565b60405180910390f35b34801561042c57600080fd5b5061044760048036038101906104429190614209565b61135a565b005b610463600480360381019061045e919061474d565b611514565b005b34801561047157600080fd5b5061048c60048036038101906104879190614209565b611672565b60405161049991906152e1565b60405180910390f35b3480156104ae57600080fd5b506104b761176c565b6040516104c49190615800565b60405180910390f35b6104e760048036038101906104e291906146e6565b611772565b005b3480156104f557600080fd5b50610510600480360381019061050b91906143bc565b611a3a565b005b61052c6004803603810190610527919061444c565b611a3f565b005b34801561053a57600080fd5b50610555600480360381019061055091906145d6565b611acc565b60405161056291906157de565b60405180910390f35b61058560048036038101906105809190614543565b611cf9565b005b6105a1600480360381019061059c91906147b9565b61213f565b005b6105bd60048036038101906105b891906146e6565b612563565b005b3480156105cb57600080fd5b506105d461272c565b6040516105e19190615204565b60405180910390f35b3480156105f657600080fd5b50610611600480360381019061060c919061466b565b612752565b60405161061e919061533a565b60405180910390f35b34801561063357600080fd5b5061064e60048036038101906106499190614232565b612b25565b60405161065b9190615800565b60405180910390f35b34801561067057600080fd5b5061068b60048036038101906106869190614232565b612bac565b604051610698919061533a565b60405180910390f35b3480156106ad57600080fd5b506106c860048036038101906106c3919061432d565b612c35565b005b60008073ffffffffffffffffffffffffffffffffffffffff168373ffffffffffffffffffffffffffffffffffffffff16141561073b576040517f08c379a0000000000000000000000000000000000000000000000000000000008152600401610732906155fe565b60405180910390fd5b60008083815260200190815260200160002060008473ffffffffffffffffffffffffffffffffffffffff1673ffffffffffffffffffffffffffffffffffffffff16815260200190815260200160002054905092915050565b60007fd9b67a26000000000000000000000000000000000000000000000000000000007bffffffffffffffffffffffffffffffffffffffffffffffffffffffff1916827bffffffffffffffffffffffffffffffffffffffffffffffffffffffff1916148061085e57507f0e89341c000000000000000000000000000000000000000000000000000000007bffffffffffffffffffffffffffffffffffffffffffffffffffffffff1916827bffffffffffffffffffffffffffffffffffffffffffffffffffffffff1916145b8061086e575061086d82612cd6565b5b9050919050565b60606002805461088490615bb1565b80601f01602080910402602001604051908101604052809291908181526020018280546108b090615bb1565b80156108fd5780601f106108d2576101008083540402835291602001916108fd565b820191906000526020600020905b8154815290600101906020018083116108e057829003601f168201915b50505050509050919050565b6000600460008473ffffffffffffffffffffffffffffffffffffffff1673ffffffffffffffffffffffffffffffffffffffff168152602001908152602001600020541415819061098f576040517f08c379a00000000000000000000000000000000000000000000000000000000081526004016109869190615355565b60405180910390fd5b505050565b60055481565b6109a2612d40565b73ffffffffffffffffffffffffffffffffffffffff168573ffffffffffffffffffffffffffffffffffffffff1614806109e857506109e7856109e2612d40565b612bac565b5b610a27576040517f08c379a0000000000000000000000000000000000000000000000000000000008152600401610a1e9061567e565b60405180910390fd5b610a348585858585612d48565b5050505050565b600381805160208101820180518482526020830160208501208183528095505050505050600091509050806000018054610a7490615bb1565b80601f0160208091040260200160405190810160405280929190818152602001828054610aa090615bb1565b8015610aed5780601f10610ac257610100808354040283529160200191610aed565b820191906000526020600020905b815481529060010190602001808311610ad057829003601f168201915b5050505050908060010160009054906101000a900473ffffffffffffffffffffffffffffffffffffffff16908060020160009054906101000a900473ffffffffffffffffffffffffffffffffffffffff16908060030154908060040160009054906101000a900460ff1690806005018054610b6790615bb1565b80601f0160208091040260200160405190810160405280929190818152602001828054610b9390615bb1565b8015610be05780601f10610bb557610100808354040283529160200191610be0565b820191906000526020600020905b815481529060010190602001808311610bc357829003601f168201915b5050505050905086565b600060055467ffffffffffffffff811115610c2e577f4e487b7100000000000000000000000000000000000000000000000000000000600052604160045260246000fd5b604051908082528060200260200182016040528015610c5c5781602001602082028036833780820191505090505b50905060005b600554811015610ccf57600181610c7991906159e6565b828281518110610cb2577f4e487b7100000000000000000000000000000000000000000000000000000000600052603260045260246000fd5b60200260200101818152505080610cc890615be3565b9050610c62565b50600060055467ffffffffffffffff811115610d14577f4e487b7100000000000000000000000000000000000000000000000000000000600052604160045260246000fd5b604051908082528060200260200182016040528015610d425781602001602082028036833780820191505090505b509050610d4e33611672565b9050610d92338484846040518060400160405280600381526020017f307830000000000000000000000000000000000000000000000000000000000081525061099a565b6040518060c001604052808581526020013373ffffffffffffffffffffffffffffffffffffffff1681526020018473ffffffffffffffffffffffffffffffffffffffff168152602001610de4836130a8565b815260200160001515815260200160405180602001604052806000815250815250600385604051610e1591906151ed565b90815260200160405180910390206000820151816000019080519060200190610e3f929190613d9e565b5060208201518160010160006101000a81548173ffffffffffffffffffffffffffffffffffffffff021916908373ffffffffffffffffffffffffffffffffffffffff16021790555060408201518160020160006101000a81548173ffffffffffffffffffffffffffffffffffffffff021916908373ffffffffffffffffffffffffffffffffffffffff1602179055506060820151816003015560808201518160040160006101000a81548160ff02191690831515021790555060a0820151816005019080519060200190610f14929190613d9e565b509050507f2d0c372f282a09f6b7d15937a5da024a271cc1bedd09dca9381d542a0420844a843385604051610f4b9392919061551c565b60405180910390a150505050565b600082600a60003373ffffffffffffffffffffffffffffffffffffffff1673ffffffffffffffffffffffffffffffffffffffff16815260200190815260200160002060008673ffffffffffffffffffffffffffffffffffffffff1673ffffffffffffffffffffffffffffffffffffffff1681526020019081526020016000205414611019576040517f08c379a00000000000000000000000000000000000000000000000000000000081526004016110109061569e565b60405180910390fd5b600073ffffffffffffffffffffffffffffffffffffffff168473ffffffffffffffffffffffffffffffffffffffff16141561105357600080fd5b81600a60003373ffffffffffffffffffffffffffffffffffffffff1673ffffffffffffffffffffffffffffffffffffffff16815260200190815260200160002060008673ffffffffffffffffffffffffffffffffffffffff1673ffffffffffffffffffffffffffffffffffffffff168152602001908152602001600020819055508373ffffffffffffffffffffffffffffffffffffffff163373ffffffffffffffffffffffffffffffffffffffff167fb3fd5071835887567a0671151121894ddccc2842f1d10bedad13e0d17cace9a7858560405161113392919061581b565b60405180910390a3600190509392505050565b33611186816040518060400160405280600e81526020017f4144442049534e27542041204d50000000000000000000000000000000000000815250610909565b816007819055505050565b606081518351146111d7576040517f08c379a00000000000000000000000000000000000000000000000000000000081526004016111ce9061577e565b60405180910390fd5b6000835167ffffffffffffffff81111561121a577f4e487b7100000000000000000000000000000000000000000000000000000000600052604160045260246000fd5b6040519080825280602002602001820160405280156112485781602001602082028036833780820191505090505b50905060005b8451811015611337576112e1858281518110611293577f4e487b7100000000000000000000000000000000000000000000000000000000600052603260045260246000fd5b60200260200101518583815181106112d4577f4e487b7100000000000000000000000000000000000000000000000000000000600052603260045260246000fd5b60200260200101516106ca565b82828151811061131a577f4e487b7100000000000000000000000000000000000000000000000000000000600052603260045260246000fd5b6020026020010181815250508061133090615be3565b905061124e565b508091505092915050565b60046020528060005260406000206000915090505481565b808073ffffffffffffffffffffffffffffffffffffffff163373ffffffffffffffffffffffffffffffffffffffff16146113c9576040517f08c379a00000000000000000000000000000000000000000000000000000000081526004016113c09061573e565b60405180910390fd5b816000600460008373ffffffffffffffffffffffffffffffffffffffff1673ffffffffffffffffffffffffffffffffffffffff168152602001908152602001600020541461144c576040517f08c379a00000000000000000000000000000000000000000000000000000000081526004016114439061575e565b60405180910390fd5b60016005600082825461145f91906159e6565b925050819055506006839080600181540180825580915050600190039060005260206000200160009091909190916101000a81548173ffffffffffffffffffffffffffffffffffffffff021916908373ffffffffffffffffffffffffffffffffffffffff160217905550600554600460008573ffffffffffffffffffffffffffffffffffffffff1673ffffffffffffffffffffffffffffffffffffffff16815260200190815260200160002081905550505050565b813373ffffffffffffffffffffffffffffffffffffffff1660038260405161153c91906151ed565b908152602001604051809103902060020160009054906101000a900473ffffffffffffffffffffffffffffffffffffffff1673ffffffffffffffffffffffffffffffffffffffff16146115c4576040517f08c379a00000000000000000000000000000000000000000000000000000000081526004016115bb906156fe565b60405180910390fd5b60016003846040516115d691906151ed565b908152602001604051809103902060040160006101000a81548160ff0219169083151502179055508160038460405161160f91906151ed565b90815260200160405180910390206005019080519060200190611633929190613d9e565b507fe32210bed1b29bdce660d20fe6e1d5d221d7d8933aca47c9c196e1735f2d480283336040516116659291906153e6565b60405180910390a1505050565b6060600060055467ffffffffffffffff8111156116b8577f4e487b7100000000000000000000000000000000000000000000000000000000600052604160045260246000fd5b6040519080825280602002602001820160405280156116e65781602001602082028036833780820191505090505b50905060005b6005548110156117625761170c8460018361170791906159e6565b6106ca565b828281518110611745577f4e487b7100000000000000000000000000000000000000000000000000000000600052603260045260246000fd5b6020026020010181815250508061175b90615be3565b90506116ec565b5080915050919050565b60095481565b818073ffffffffffffffffffffffffffffffffffffffff163373ffffffffffffffffffffffffffffffffffffffff1614156117e2576040517f08c379a00000000000000000000000000000000000000000000000000000000081526004016117d99061563e565b60405180910390fd5b611821336040518060400160405280600e81526020017f4144442049534e27542041204d50000000000000000000000000000000000000815250610909565b61187b83600460003373ffffffffffffffffffffffffffffffffffffffff1673ffffffffffffffffffffffffffffffffffffffff168152602001908152602001600020548460405180602001604052806000815250613126565b6040518060c001604052808581526020013373ffffffffffffffffffffffffffffffffffffffff1681526020018473ffffffffffffffffffffffffffffffffffffffff168152602001838152602001600115158152602001604051806020016040528060008152508152506003856040516118f691906151ed565b90815260200160405180910390206000820151816000019080519060200190611920929190613d9e565b5060208201518160010160006101000a81548173ffffffffffffffffffffffffffffffffffffffff021916908373ffffffffffffffffffffffffffffffffffffffff16021790555060408201518160020160006101000a81548173ffffffffffffffffffffffffffffffffffffffff021916908373ffffffffffffffffffffffffffffffffffffffff1602179055506060820151816003015560808201518160040160006101000a81548160ff02191690831515021790555060a08201518160050190805190602001906119f5929190613d9e565b509050507f2d0c372f282a09f6b7d15937a5da024a271cc1bedd09dca9381d542a0420844a843385604051611a2c939291906154cb565b60405180910390a150505050565b600080fd5b33611a7f816040518060400160405280600e81526020017f4144442049534e27542041204d50000000000000000000000000000000000000815250610909565b82600860006101000a81548173ffffffffffffffffffffffffffffffffffffffff021916908373ffffffffffffffffffffffffffffffffffffffff16021790555081600981905550505050565b611ad4613e24565b600382604051611ae491906151ed565b90815260200160405180910390206040518060c0016040529081600082018054611b0d90615bb1565b80601f0160208091040260200160405190810160405280929190818152602001828054611b3990615bb1565b8015611b865780601f10611b5b57610100808354040283529160200191611b86565b820191906000526020600020905b815481529060010190602001808311611b6957829003601f168201915b505050505081526020016001820160009054906101000a900473ffffffffffffffffffffffffffffffffffffffff1673ffffffffffffffffffffffffffffffffffffffff1673ffffffffffffffffffffffffffffffffffffffff1681526020016002820160009054906101000a900473ffffffffffffffffffffffffffffffffffffffff1673ffffffffffffffffffffffffffffffffffffffff1673ffffffffffffffffffffffffffffffffffffffff168152602001600382015481526020016004820160009054906101000a900460ff16151515158152602001600582018054611c7090615bb1565b80601f0160208091040260200160405190810160405280929190818152602001828054611c9c90615bb1565b8015611ce95780601f10611cbe57610100808354040283529160200191611ce9565b820191906000526020600020905b815481529060010190602001808311611ccc57829003601f168201915b5050505050815250509050919050565b33611d39816040518060400160405280600e81526020017f4144442049534e27542041204d50000000000000000000000000000000000000815250610909565b60005b825181101561213a576000838281518110611d80577f4e487b7100000000000000000000000000000000000000000000000000000000600052603260045260246000fd5b60200260200101516040015190506000848381518110611dc9577f4e487b7100000000000000000000000000000000000000000000000000000000600052603260045260246000fd5b6020026020010151602001519050611e16816040518060400160405280600e81526020017f4144442049534e27542041204d50000000000000000000000000000000000000815250610909565b60075482111561212757611ea13382600460008573ffffffffffffffffffffffffffffffffffffffff1673ffffffffffffffffffffffffffffffffffffffff16815260200190815260200160002054856040518060400160405280600381526020017f3078300000000000000000000000000000000000000000000000000000000000815250612c35565b6040518060c00160405280868581518110611ee5577f4e487b7100000000000000000000000000000000000000000000000000000000600052603260045260246000fd5b60200260200101516000015181526020013373ffffffffffffffffffffffffffffffffffffffff1681526020018273ffffffffffffffffffffffffffffffffffffffff168152602001838152602001600015158152602001604051806020016040528060008152508152506003868581518110611f8b577f4e487b7100000000000000000000000000000000000000000000000000000000600052603260045260246000fd5b602002602001015160000151604051611fa491906151ed565b90815260200160405180910390206000820151816000019080519060200190611fce929190613d9e565b5060208201518160010160006101000a81548173ffffffffffffffffffffffffffffffffffffffff021916908373ffffffffffffffffffffffffffffffffffffffff16021790555060408201518160020160006101000a81548173ffffffffffffffffffffffffffffffffffffffff021916908373ffffffffffffffffffffffffffffffffffffffff1602179055506060820151816003015560808201518160040160006101000a81548160ff02191690831515021790555060a08201518160050190805190602001906120a3929190613d9e565b509050507f2d0c372f282a09f6b7d15937a5da024a271cc1bedd09dca9381d542a0420844a858481518110612101577f4e487b7100000000000000000000000000000000000000000000000000000000600052603260045260246000fd5b602002602001015160000151338360405161211e9392919061547a565b60405180910390a15b50508061213390615be3565b9050611d3c565b505050565b60006064600954836121519190615a6d565b61215b9190615a3c565b90506000818361216b9190615ac7565b905061219a33600860009054906101000a900473ffffffffffffffffffffffffffffffffffffffff16846132bc565b6040518060c001604052808781526020013373ffffffffffffffffffffffffffffffffffffffff168152602001600860009054906101000a900473ffffffffffffffffffffffffffffffffffffffff1673ffffffffffffffffffffffffffffffffffffffff1681526020018381526020016000151581526020016040518060200160405280600081525081525060038760405161223791906151ed565b90815260200160405180910390206000820151816000019080519060200190612261929190613d9e565b5060208201518160010160006101000a81548173ffffffffffffffffffffffffffffffffffffffff021916908373ffffffffffffffffffffffffffffffffffffffff16021790555060408201518160020160006101000a81548173ffffffffffffffffffffffffffffffffffffffff021916908373ffffffffffffffffffffffffffffffffffffffff1602179055506060820151816003015560808201518160040160006101000a81548160ff02191690831515021790555060a0820151816005019080519060200190612336929190613d9e565b509050507f2d0c372f282a09f6b7d15937a5da024a271cc1bedd09dca9381d542a0420844a8633600860009054906101000a900473ffffffffffffffffffffffffffffffffffffffff1660405161238f9392919061556d565b60405180910390a16123a23385836132bc565b6040518060c001604052808681526020013373ffffffffffffffffffffffffffffffffffffffff1681526020018573ffffffffffffffffffffffffffffffffffffffff1681526020018281526020016000151581526020016040518060200160405280600081525081525060038660405161241d91906151ed565b90815260200160405180910390206000820151816000019080519060200190612447929190613d9e565b5060208201518160010160006101000a81548173ffffffffffffffffffffffffffffffffffffffff021916908373ffffffffffffffffffffffffffffffffffffffff16021790555060408201518160020160006101000a81548173ffffffffffffffffffffffffffffffffffffffff021916908373ffffffffffffffffffffffffffffffffffffffff1602179055506060820151816003015560808201518160040160006101000a81548160ff02191690831515021790555060a082015181600501908051906020019061251c929190613d9e565b509050507f2d0c372f282a09f6b7d15937a5da024a271cc1bedd09dca9381d542a0420844a8533866040516125539392919061556d565b60405180910390a1505050505050565b61256e3383836132bc565b6040518060c001604052808481526020013373ffffffffffffffffffffffffffffffffffffffff1681526020018373ffffffffffffffffffffffffffffffffffffffff168152602001828152602001600015158152602001604051806020016040528060008152508152506003846040516125e991906151ed565b90815260200160405180910390206000820151816000019080519060200190612613929190613d9e565b5060208201518160010160006101000a81548173ffffffffffffffffffffffffffffffffffffffff021916908373ffffffffffffffffffffffffffffffffffffffff16021790555060408201518160020160006101000a81548173ffffffffffffffffffffffffffffffffffffffff021916908373ffffffffffffffffffffffffffffffffffffffff1602179055506060820151816003015560808201518160040160006101000a81548160ff02191690831515021790555060a08201518160050190805190602001906126e8929190613d9e565b509050507f2d0c372f282a09f6b7d15937a5da024a271cc1bedd09dca9381d542a0420844a83338460405161271f93929190615429565b60405180910390a1505050565b600860009054906101000a900473ffffffffffffffffffffffffffffffffffffffff1681565b6000600a60008573ffffffffffffffffffffffffffffffffffffffff1673ffffffffffffffffffffffffffffffffffffffff16815260200190815260200160002060003373ffffffffffffffffffffffffffffffffffffffff1673ffffffffffffffffffffffffffffffffffffffff16815260200190815260200160002054821115612813576040517f08c379a000000000000000000000000000000000000000000000000000000000815260040161280a9061571e565b60405180910390fd5b600073ffffffffffffffffffffffffffffffffffffffff168373ffffffffffffffffffffffffffffffffffffffff16141561284d57600080fd5b6128588484846132bc565b81600a60008673ffffffffffffffffffffffffffffffffffffffff1673ffffffffffffffffffffffffffffffffffffffff16815260200190815260200160002060003373ffffffffffffffffffffffffffffffffffffffff1673ffffffffffffffffffffffffffffffffffffffff168152602001908152602001600020546128e09190615ac7565b600a60008673ffffffffffffffffffffffffffffffffffffffff1673ffffffffffffffffffffffffffffffffffffffff16815260200190815260200160002060003373ffffffffffffffffffffffffffffffffffffffff1673ffffffffffffffffffffffffffffffffffffffff168152602001908152602001600020819055506040518060c001604052808681526020018573ffffffffffffffffffffffffffffffffffffffff1681526020018473ffffffffffffffffffffffffffffffffffffffff168152602001838152602001600015158152602001604051806020016040528060008152508152506003866040516129db91906151ed565b90815260200160405180910390206000820151816000019080519060200190612a05929190613d9e565b5060208201518160010160006101000a81548173ffffffffffffffffffffffffffffffffffffffff021916908373ffffffffffffffffffffffffffffffffffffffff16021790555060408201518160020160006101000a81548173ffffffffffffffffffffffffffffffffffffffff021916908373ffffffffffffffffffffffffffffffffffffffff1602179055506060820151816003015560808201518160040160006101000a81548160ff02191690831515021790555060a0820151816005019080519060200190612ada929190613d9e565b509050507f2d0c372f282a09f6b7d15937a5da024a271cc1bedd09dca9381d542a0420844a853385604051612b1193929190615429565b60405180910390a160019050949350505050565b6000600a60008473ffffffffffffffffffffffffffffffffffffffff1673ffffffffffffffffffffffffffffffffffffffff16815260200190815260200160002060008373ffffffffffffffffffffffffffffffffffffffff1673ffffffffffffffffffffffffffffffffffffffff16815260200190815260200160002054905092915050565b600080600a60008573ffffffffffffffffffffffffffffffffffffffff1673ffffffffffffffffffffffffffffffffffffffff16815260200190815260200160002060008473ffffffffffffffffffffffffffffffffffffffff1673ffffffffffffffffffffffffffffffffffffffff1681526020019081526020016000205411905092915050565b612c3d612d40565b73ffffffffffffffffffffffffffffffffffffffff168573ffffffffffffffffffffffffffffffffffffffff161480612c835750612c8285612c7d612d40565b612bac565b5b612cc2576040517f08c379a0000000000000000000000000000000000000000000000000000000008152600401612cb99061561e565b60405180910390fd5b612ccf8585858585613401565b5050505050565b60007f01ffc9a7000000000000000000000000000000000000000000000000000000007bffffffffffffffffffffffffffffffffffffffffffffffffffffffff1916827bffffffffffffffffffffffffffffffffffffffffffffffffffffffff1916149050919050565b600033905090565b8151835114612d8c576040517f08c379a0000000000000000000000000000000000000000000000000000000008152600401612d839061579e565b60405180910390fd5b600073ffffffffffffffffffffffffffffffffffffffff168473ffffffffffffffffffffffffffffffffffffffff161415612dfc576040517f08c379a0000000000000000000000000000000000000000000000000000000008152600401612df39061565e565b60405180910390fd5b6000612e06612d40565b9050612e16818787878787613683565b60005b8451811015613013576000858281518110612e5d577f4e487b7100000000000000000000000000000000000000000000000000000000600052603260045260246000fd5b602002602001015190506000858381518110612ea2577f4e487b7100000000000000000000000000000000000000000000000000000000600052603260045260246000fd5b60200260200101519050600080600084815260200190815260200160002060008b73ffffffffffffffffffffffffffffffffffffffff1673ffffffffffffffffffffffffffffffffffffffff16815260200190815260200160002054905081811015612f43576040517f08c379a0000000000000000000000000000000000000000000000000000000008152600401612f3a906156be565b60405180910390fd5b81810360008085815260200190815260200160002060008c73ffffffffffffffffffffffffffffffffffffffff1673ffffffffffffffffffffffffffffffffffffffff168152602001908152602001600020819055508160008085815260200190815260200160002060008b73ffffffffffffffffffffffffffffffffffffffff1673ffffffffffffffffffffffffffffffffffffffff1681526020019081526020016000206000828254612ff891906159e6565b925050819055505050508061300c90615be3565b9050612e19565b508473ffffffffffffffffffffffffffffffffffffffff168673ffffffffffffffffffffffffffffffffffffffff168273ffffffffffffffffffffffffffffffffffffffff167f4a39dc06d4c0dbc64b70af90fd698a233a518aa5d07e595d983b8c0526c8f7fb878760405161308a929190615303565b60405180910390a46130a081878787878761368b565b505050505050565b6000806000905060005b835181101561311c578381815181106130f4577f4e487b7100000000000000000000000000000000000000000000000000000000600052603260045260246000fd5b60200260200101518261310791906159e6565b9150808061311490615be3565b9150506130b2565b5080915050919050565b600073ffffffffffffffffffffffffffffffffffffffff168473ffffffffffffffffffffffffffffffffffffffff161415613196576040517f08c379a000000000000000000000000000000000000000000000000000000000815260040161318d906157be565b60405180910390fd5b60006131a0612d40565b90506131c1816000876131b28861385b565b6131bb8861385b565b87613683565b8260008086815260200190815260200160002060008773ffffffffffffffffffffffffffffffffffffffff1673ffffffffffffffffffffffffffffffffffffffff168152602001908152602001600020600082825461322091906159e6565b925050819055508473ffffffffffffffffffffffffffffffffffffffff16600073ffffffffffffffffffffffffffffffffffffffff168273ffffffffffffffffffffffffffffffffffffffff167fc3d58168c5ae7397731d063d5bbf3d657854427343f4c083240f7aacaa2d0f62878760405161329e92919061581b565b60405180910390a46132b581600087878787613921565b5050505050565b600060055467ffffffffffffffff811115613300577f4e487b7100000000000000000000000000000000000000000000000000000000600052604160045260246000fd5b60405190808252806020026020018201604052801561332e5781602001602082028036833780820191505090505b509050600060055467ffffffffffffffff811115613375577f4e487b7100000000000000000000000000000000000000000000000000000000600052604160045260246000fd5b6040519080825280602002602001820160405280156133a35781602001602082028036833780820191505090505b5090506133b08584613af1565b80925081935050506133fa858584846040518060400160405280600381526020017f307830000000000000000000000000000000000000000000000000000000000081525061099a565b5050505050565b600073ffffffffffffffffffffffffffffffffffffffff168473ffffffffffffffffffffffffffffffffffffffff161415613471576040517f08c379a00000000000000000000000000000000000000000000000000000000081526004016134689061565e565b60405180910390fd5b600061347b612d40565b905061349b81878761348c8861385b565b6134958861385b565b87613683565b600080600086815260200190815260200160002060008873ffffffffffffffffffffffffffffffffffffffff1673ffffffffffffffffffffffffffffffffffffffff16815260200190815260200160002054905083811015613532576040517f08c379a0000000000000000000000000000000000000000000000000000000008152600401613529906156be565b60405180910390fd5b83810360008087815260200190815260200160002060008973ffffffffffffffffffffffffffffffffffffffff1673ffffffffffffffffffffffffffffffffffffffff168152602001908152602001600020819055508360008087815260200190815260200160002060008873ffffffffffffffffffffffffffffffffffffffff1673ffffffffffffffffffffffffffffffffffffffff16815260200190815260200160002060008282546135e791906159e6565b925050819055508573ffffffffffffffffffffffffffffffffffffffff168773ffffffffffffffffffffffffffffffffffffffff168373ffffffffffffffffffffffffffffffffffffffff167fc3d58168c5ae7397731d063d5bbf3d657854427343f4c083240f7aacaa2d0f62888860405161366492919061581b565b60405180910390a461367a828888888888613921565b50505050505050565b505050505050565b6136aa8473ffffffffffffffffffffffffffffffffffffffff16613d6f565b15613853578373ffffffffffffffffffffffffffffffffffffffff1663bc197c8187878686866040518663ffffffff1660e01b81526004016136f095949392919061521f565b602060405180830381600087803b15801561370a57600080fd5b505af192505050801561373b57506040513d601f19601f8201168201806040525081019061373891906145ad565b60015b6137ca57613747615d06565b80613752575061378f565b806040517f08c379a00000000000000000000000000000000000000000000000000000000081526004016137869190615355565b60405180910390fd5b6040517f08c379a00000000000000000000000000000000000000000000000000000000081526004016137c1906155be565b60405180910390fd5b63bc197c8160e01b7bffffffffffffffffffffffffffffffffffffffffffffffffffffffff1916817bffffffffffffffffffffffffffffffffffffffffffffffffffffffff191614613851576040517f08c379a0000000000000000000000000000000000000000000000000000000008152600401613848906155de565b60405180910390fd5b505b505050505050565b60606000600167ffffffffffffffff8111156138a0577f4e487b7100000000000000000000000000000000000000000000000000000000600052604160045260246000fd5b6040519080825280602002602001820160405280156138ce5781602001602082028036833780820191505090505b509050828160008151811061390c577f4e487b7100000000000000000000000000000000000000000000000000000000600052603260045260246000fd5b60200260200101818152505080915050919050565b6139408473ffffffffffffffffffffffffffffffffffffffff16613d6f565b15613ae9578373ffffffffffffffffffffffffffffffffffffffff1663f23a6e6187878686866040518663ffffffff1660e01b8152600401613986959493929190615287565b602060405180830381600087803b1580156139a057600080fd5b505af19250505080156139d157506040513d601f19601f820116820180604052508101906139ce91906145ad565b60015b613a60576139dd615d06565b806139e85750613a25565b806040517f08c379a0000000000000000000000000000000000000000000000000000000008152600401613a1c9190615355565b60405180910390fd5b6040517f08c379a0000000000000000000000000000000000000000000000000000000008152600401613a57906155be565b60405180910390fd5b63f23a6e6160e01b7bffffffffffffffffffffffffffffffffffffffffffffffffffffffff1916817bffffffffffffffffffffffffffffffffffffffffffffffffffffffff191614613ae7576040517f08c379a0000000000000000000000000000000000000000000000000000000008152600401613ade906155de565b60405180910390fd5b505b505050505050565b606080600060055467ffffffffffffffff811115613b38577f4e487b7100000000000000000000000000000000000000000000000000000000600052604160045260246000fd5b604051908082528060200260200182016040528015613b665781602001602082028036833780820191505090505b509050600060055467ffffffffffffffff811115613bad577f4e487b7100000000000000000000000000000000000000000000000000000000600052604160045260246000fd5b604051908082528060200260200182016040528015613bdb5781602001602082028036833780820191505090505b50905060005b60055481108015613bf3575060008614155b15613d1c576000613c1088600184613c0b91906159e6565b6106ca565b905060008114613d0a57600182613c2791906159e6565b848381518110613c60577f4e487b7100000000000000000000000000000000000000000000000000000000600052603260045260246000fd5b602002602001018181525050613c768188613d82565b838381518110613caf577f4e487b7100000000000000000000000000000000000000000000000000000000600052603260045260246000fd5b602002602001018181525050828281518110613cf4577f4e487b7100000000000000000000000000000000000000000000000000000000600052603260045260246000fd5b602002602001015187613d079190615ac7565b96505b5080613d1590615be3565b9050613be1565b5060008514613d60576040517f08c379a0000000000000000000000000000000000000000000000000000000008152600401613d57906156de565b60405180910390fd5b81819350935050509250929050565b600080823b905060008111915050919050565b600082821115613d9457829050613d98565b8190505b92915050565b828054613daa90615bb1565b90600052602060002090601f016020900481019282613dcc5760008555613e13565b82601f10613de557805160ff1916838001178555613e13565b82800160010185558215613e13579182015b82811115613e12578251825591602001919060010190613df7565b5b509050613e209190613e88565b5090565b6040518060c0016040528060608152602001600073ffffffffffffffffffffffffffffffffffffffff168152602001600073ffffffffffffffffffffffffffffffffffffffff16815260200160008152602001600015158152602001606081525090565b5b80821115613ea1576000816000905550600101613e89565b5090565b6000613eb8613eb384615875565b615844565b90508083825260208201905082856020860282011115613ed757600080fd5b60005b85811015613f075781613eed8882614056565b845260208401935060208301925050600181019050613eda565b5050509392505050565b6000613f24613f1f846158a1565b615844565b9050808382526020820190508260005b85811015613f645781358501613f4a888261417c565b845260208401935060208301925050600181019050613f34565b5050509392505050565b6000613f81613f7c846158cd565b615844565b90508083825260208201905082856020860282011115613fa057600080fd5b60005b85811015613fd05781613fb688826141f4565b845260208401935060208301925050600181019050613fa3565b5050509392505050565b6000613fed613fe8846158f9565b615844565b90508281526020810184848401111561400557600080fd5b614010848285615b6f565b509392505050565b600061402b61402684615929565b615844565b90508281526020810184848401111561404357600080fd5b61404e848285615b6f565b509392505050565b60008135905061406581615dbc565b92915050565b600082601f83011261407c57600080fd5b813561408c848260208601613ea5565b91505092915050565b600082601f8301126140a657600080fd5b81356140b6848260208601613f11565b91505092915050565b600082601f8301126140d057600080fd5b81356140e0848260208601613f6e565b91505092915050565b6000813590506140f881615dd3565b92915050565b60008135905061410d81615dea565b92915050565b60008151905061412281615dea565b92915050565b600082601f83011261413957600080fd5b8135614149848260208601613fda565b91505092915050565b600082601f83011261416357600080fd5b8135614173848260208601614018565b91505092915050565b60006060828403121561418e57600080fd5b6141986060615844565b9050600082013567ffffffffffffffff8111156141b457600080fd5b6141c084828501614152565b60008301525060206141d484828501614056565b60208301525060406141e8848285016141f4565b60408301525092915050565b60008135905061420381615e01565b92915050565b60006020828403121561421b57600080fd5b600061422984828501614056565b91505092915050565b6000806040838503121561424557600080fd5b600061425385828601614056565b925050602061426485828601614056565b9150509250929050565b600080600080600060a0868803121561428657600080fd5b600061429488828901614056565b95505060206142a588828901614056565b945050604086013567ffffffffffffffff8111156142c257600080fd5b6142ce888289016140bf565b935050606086013567ffffffffffffffff8111156142eb57600080fd5b6142f7888289016140bf565b925050608086013567ffffffffffffffff81111561431457600080fd5b61432088828901614128565b9150509295509295909350565b600080600080600060a0868803121561434557600080fd5b600061435388828901614056565b955050602061436488828901614056565b9450506040614375888289016141f4565b9350506060614386888289016141f4565b925050608086013567ffffffffffffffff8111156143a357600080fd5b6143af88828901614128565b9150509295509295909350565b600080604083850312156143cf57600080fd5b60006143dd85828601614056565b92505060206143ee858286016140e9565b9150509250929050565b6000806040838503121561440b57600080fd5b600061441985828601614056565b925050602083013567ffffffffffffffff81111561443657600080fd5b61444285828601614152565b9150509250929050565b6000806040838503121561445f57600080fd5b600061446d85828601614056565b925050602061447e858286016141f4565b9150509250929050565b60008060006060848603121561449d57600080fd5b60006144ab86828701614056565b93505060206144bc868287016141f4565b92505060406144cd868287016141f4565b9150509250925092565b600080604083850312156144ea57600080fd5b600083013567ffffffffffffffff81111561450457600080fd5b6145108582860161406b565b925050602083013567ffffffffffffffff81111561452d57600080fd5b614539858286016140bf565b9150509250929050565b60006020828403121561455557600080fd5b600082013567ffffffffffffffff81111561456f57600080fd5b61457b84828501614095565b91505092915050565b60006020828403121561459657600080fd5b60006145a4848285016140fe565b91505092915050565b6000602082840312156145bf57600080fd5b60006145cd84828501614113565b91505092915050565b6000602082840312156145e857600080fd5b600082013567ffffffffffffffff81111561460257600080fd5b61460e84828501614152565b91505092915050565b6000806040838503121561462a57600080fd5b600083013567ffffffffffffffff81111561464457600080fd5b61465085828601614152565b925050602061466185828601614056565b9150509250929050565b6000806000806080858703121561468157600080fd5b600085013567ffffffffffffffff81111561469b57600080fd5b6146a787828801614152565b94505060206146b887828801614056565b93505060406146c987828801614056565b92505060606146da878288016141f4565b91505092959194509250565b6000806000606084860312156146fb57600080fd5b600084013567ffffffffffffffff81111561471557600080fd5b61472186828701614152565b935050602061473286828701614056565b9250506040614743868287016141f4565b9150509250925092565b6000806040838503121561476057600080fd5b600083013567ffffffffffffffff81111561477a57600080fd5b61478685828601614152565b925050602083013567ffffffffffffffff8111156147a357600080fd5b6147af85828601614152565b9150509250929050565b600080600080608085870312156147cf57600080fd5b600085013567ffffffffffffffff8111156147e957600080fd5b6147f587828801614152565b945050602085013567ffffffffffffffff81111561481257600080fd5b61481e87828801614152565b935050604061482f87828801614056565b9250506060614840878288016141f4565b91505092959194509250565b60006020828403121561485e57600080fd5b600061486c848285016141f4565b91505092915050565b600061488183836151cf565b60208301905092915050565b61489681615afb565b82525050565b6148a581615afb565b82525050565b60006148b682615969565b6148c08185615997565b93506148cb83615959565b8060005b838110156148fc5781516148e38882614875565b97506148ee8361598a565b9250506001810190506148cf565b5085935050505092915050565b61491281615b0d565b82525050565b61492181615b0d565b82525050565b600061493282615974565b61493c81856159a8565b935061494c818560208601615b7e565b61495581615ce8565b840191505092915050565b600061496b8261597f565b61497581856159b9565b9350614985818560208601615b7e565b61498e81615ce8565b840191505092915050565b60006149a48261597f565b6149ae81856159ca565b93506149be818560208601615b7e565b6149c781615ce8565b840191505092915050565b60006149dd8261597f565b6149e781856159db565b93506149f7818560208601615b7e565b80840191505092915050565b6000614a106034836159ca565b91507f455243313135353a207472616e7366657220746f206e6f6e204552433131353560008301527f526563656976657220696d706c656d656e7465720000000000000000000000006020830152604082019050919050565b6000614a766028836159ca565b91507f455243313135353a204552433131353552656365697665722072656a6563746560008301527f6420746f6b656e730000000000000000000000000000000000000000000000006020830152604082019050919050565b6000614adc6008836159ca565b91507f7365745f706169640000000000000000000000000000000000000000000000006000830152602082019050919050565b6000614b1c602b836159ca565b91507f455243313135353a2062616c616e636520717565727920666f7220746865207a60008301527f65726f20616464726573730000000000000000000000000000000000000000006020830152604082019050919050565b6000614b826007836159ca565b91507f7061796d656e74000000000000000000000000000000000000000000000000006000830152602082019050919050565b6000614bc26008836159ca565b91507f636c656172696e670000000000000000000000000000000000000000000000006000830152602082019050919050565b6000614c026029836159ca565b91507f455243313135353a2063616c6c6572206973206e6f74206f776e6572206e6f7260008301527f20617070726f76656400000000000000000000000000000000000000000000006020830152604082019050919050565b6000614c68600b836159ca565b91507f65786368616e67655f696e0000000000000000000000000000000000000000006000830152602082019050919050565b6000614ca86018836159ca565b91507f4d502043414e4e4f54204d494e5420544f20495453454c4600000000000000006000830152602082019050919050565b6000614ce86025836159ca565b91507f455243313135353a207472616e7366657220746f20746865207a65726f20616460008301527f64726573730000000000000000000000000000000000000000000000000000006020830152604082019050919050565b6000614d4e6032836159ca565b91507f455243313135353a207472616e736665722063616c6c6572206973206e6f742060008301527f6f776e6572206e6f7220617070726f76656400000000000000000000000000006020830152604082019050919050565b6000614db46013836159ca565b91507f57524f4e472043555252454e542056414c5545000000000000000000000000006000830152602082019050919050565b6000614df4602a836159ca565b91507f455243313135353a20696e73756666696369656e742062616c616e636520666f60008301527f72207472616e73666572000000000000000000000000000000000000000000006020830152604082019050919050565b6000614e5a6011836159ca565b91507f4e4f5420454e4f55474820544f4b454e530000000000000000000000000000006000830152602082019050919050565b6000614e9a601f836159ca565b91507f4f4e4c592052454345495645522043414e204348414e474520495350414944006000830152602082019050919050565b6000614eda6018836159ca565b91507f4e4f5420454e4f55474820544f4b454e20414c4c4f57454400000000000000006000830152602082019050919050565b6000614f1a601a836159ca565b91507f4f4e4c5920544845204d502043414e2041444420495453454c460000000000006000830152602082019050919050565b6000614f5a600c836159ca565b91507f65786368616e67655f6f757400000000000000000000000000000000000000006000830152602082019050919050565b6000614f9a6010836159ca565b91507f4d5020414c5245414459204144444544000000000000000000000000000000006000830152602082019050919050565b6000614fda6029836159ca565b91507f455243313135353a206163636f756e747320616e6420696473206c656e67746860008301527f206d69736d6174636800000000000000000000000000000000000000000000006020830152604082019050919050565b6000615040600b836159ca565b91507f6665655f7061796d656e740000000000000000000000000000000000000000006000830152602082019050919050565b60006150806028836159ca565b91507f455243313135353a2069647320616e6420616d6f756e7473206c656e6774682060008301527f6d69736d617463680000000000000000000000000000000000000000000000006020830152604082019050919050565b60006150e66021836159ca565b91507f455243313135353a206d696e7420746f20746865207a65726f2061646472657360008301527f73000000000000000000000000000000000000000000000000000000000000006020830152604082019050919050565b600060c083016000830151848203600086015261515c8282614960565b9150506020830151615171602086018261488d565b506040830151615184604086018261488d565b50606083015161519760608601826151cf565b5060808301516151aa6080860182614909565b5060a083015184820360a08601526151c28282614960565b9150508091505092915050565b6151d881615b65565b82525050565b6151e781615b65565b82525050565b60006151f982846149d2565b915081905092915050565b6000602082019050615219600083018461489c565b92915050565b600060a082019050615234600083018861489c565b615241602083018761489c565b818103604083015261525381866148ab565b9050818103606083015261526781856148ab565b9050818103608083015261527b8184614927565b90509695505050505050565b600060a08201905061529c600083018861489c565b6152a9602083018761489c565b6152b660408301866151de565b6152c360608301856151de565b81810360808301526152d58184614927565b90509695505050505050565b600060208201905081810360008301526152fb81846148ab565b905092915050565b6000604082019050818103600083015261531d81856148ab565b9050818103602083015261533181846148ab565b90509392505050565b600060208201905061534f6000830184614918565b92915050565b6000602082019050818103600083015261536f8184614999565b905092915050565b600060c08201905081810360008301526153918189614999565b90506153a0602083018861489c565b6153ad604083018761489c565b6153ba60608301866151de565b6153c76080830185614918565b81810360a08301526153d98184614999565b9050979650505050505050565b600060608201905081810360008301526154008185614999565b9050818103602083015261541381614acf565b9050615422604083018461489c565b9392505050565b600060808201905081810360008301526154438186614999565b9050818103602083015261545681614b75565b9050615465604083018561489c565b615472606083018461489c565b949350505050565b600060808201905081810360008301526154948186614999565b905081810360208301526154a781614bb5565b90506154b6604083018561489c565b6154c3606083018461489c565b949350505050565b600060808201905081810360008301526154e58186614999565b905081810360208301526154f881614c5b565b9050615507604083018561489c565b615514606083018461489c565b949350505050565b600060808201905081810360008301526155368186614999565b9050818103602083015261554981614f4d565b9050615558604083018561489c565b615565606083018461489c565b949350505050565b600060808201905081810360008301526155878186614999565b9050818103602083015261559a81615033565b90506155a9604083018561489c565b6155b6606083018461489c565b949350505050565b600060208201905081810360008301526155d781614a03565b9050919050565b600060208201905081810360008301526155f781614a69565b9050919050565b6000602082019050818103600083015261561781614b0f565b9050919050565b6000602082019050818103600083015261563781614bf5565b9050919050565b6000602082019050818103600083015261565781614c9b565b9050919050565b6000602082019050818103600083015261567781614cdb565b9050919050565b6000602082019050818103600083015261569781614d41565b9050919050565b600060208201905081810360008301526156b781614da7565b9050919050565b600060208201905081810360008301526156d781614de7565b9050919050565b600060208201905081810360008301526156f781614e4d565b9050919050565b6000602082019050818103600083015261571781614e8d565b9050919050565b6000602082019050818103600083015261573781614ecd565b9050919050565b6000602082019050818103600083015261575781614f0d565b9050919050565b6000602082019050818103600083015261577781614f8d565b9050919050565b6000602082019050818103600083015261579781614fcd565b9050919050565b600060208201905081810360008301526157b781615073565b9050919050565b600060208201905081810360008301526157d7816150d9565b9050919050565b600060208201905081810360008301526157f8818461513f565b905092915050565b600060208201905061581560008301846151de565b92915050565b600060408201905061583060008301856151de565b61583d60208301846151de565b9392505050565b6000604051905081810181811067ffffffffffffffff8211171561586b5761586a615cb9565b5b8060405250919050565b600067ffffffffffffffff8211156158905761588f615cb9565b5b602082029050602081019050919050565b600067ffffffffffffffff8211156158bc576158bb615cb9565b5b602082029050602081019050919050565b600067ffffffffffffffff8211156158e8576158e7615cb9565b5b602082029050602081019050919050565b600067ffffffffffffffff82111561591457615913615cb9565b5b601f19601f8301169050602081019050919050565b600067ffffffffffffffff82111561594457615943615cb9565b5b601f19601f8301169050602081019050919050565b6000819050602082019050919050565b600081519050919050565b600081519050919050565b600081519050919050565b6000602082019050919050565b600082825260208201905092915050565b600082825260208201905092915050565b600082825260208201905092915050565b600082825260208201905092915050565b600081905092915050565b60006159f182615b65565b91506159fc83615b65565b9250827fffffffffffffffffffffffffffffffffffffffffffffffffffffffffffffffff03821115615a3157615a30615c2c565b5b828201905092915050565b6000615a4782615b65565b9150615a5283615b65565b925082615a6257615a61615c5b565b5b828204905092915050565b6000615a7882615b65565b9150615a8383615b65565b9250817fffffffffffffffffffffffffffffffffffffffffffffffffffffffffffffffff0483118215151615615abc57615abb615c2c565b5b828202905092915050565b6000615ad282615b65565b9150615add83615b65565b925082821015615af057615aef615c2c565b5b828203905092915050565b6000615b0682615b45565b9050919050565b60008115159050919050565b60007fffffffff0000000000000000000000000000000000000000000000000000000082169050919050565b600073ffffffffffffffffffffffffffffffffffffffff82169050919050565b6000819050919050565b82818337600083830152505050565b60005b83811015615b9c578082015181840152602081019050615b81565b83811115615bab576000848401525b50505050565b60006002820490506001821680615bc957607f821691505b60208210811415615bdd57615bdc615c8a565b5b50919050565b6000615bee82615b65565b91507fffffffffffffffffffffffffffffffffffffffffffffffffffffffffffffffff821415615c2157615c20615c2c565b5b600182019050919050565b7f4e487b7100000000000000000000000000000000000000000000000000000000600052601160045260246000fd5b7f4e487b7100000000000000000000000000000000000000000000000000000000600052601260045260246000fd5b7f4e487b7100000000000000000000000000000000000000000000000000000000600052602260045260246000fd5b7f4e487b7100000000000000000000000000000000000000000000000000000000600052604160045260246000fd5b6000601f19601f8301169050919050565b60008160e01c9050919050565b600060443d1015615d1657615db9565b60046000803e615d27600051615cf9565b6308c379a08114615d385750615db9565b60405160043d036004823e80513d602482011167ffffffffffffffff82111715615d6457505050615db9565b808201805167ffffffffffffffff811115615d83575050505050615db9565b8060208301013d8501811115615d9e57505050505050615db9565b615da782615ce8565b60208401016040528296505050505050505b90565b615dc581615afb565b8114615dd057600080fd5b50565b615ddc81615b0d565b8114615de757600080fd5b50565b615df381615b19565b8114615dfe57600080fd5b50565b615e0a81615b65565b8114615e1557600080fd5b5056fea2646970667358221220956c01a36e2b4720c49523c58a641dd9af7fdd584f71bfd11d897bd14adfd0a664736f6c6343000800003368747470733a2f2f69336d61726b65742e636f6d2f6d61726b6574706c6163652f7b69647d2e6a736f6e",
  "immutableReferences": {},
  "source": "/**\n* Copyright (c) 2020-2022 in alphabetical order:\n* GFT, HOPU\n*\n* This program and the accompanying materials are made\n* available under the terms of the EUROPEAN UNION PUBLIC LICENCE v. 1.2\n* which is available at https://gitlab.com/i3-market/code/wp3/t3.3/tokenization/-/blob/main/LICENSE\n*\n* License-Identifier: Apache 2.0\n*\n* Contributors:\n*    Luca Marangoni (GFT)\n*    German Molina Carrasco (HOPU)\n*\n*/\n\npragma solidity >=0.7.0 <0.9.0;\npragma abicoder v2;\n\nimport \"./Treasury.sol\";\n\ncontract TreasuryWithAllowance is I3MarketTreasury {\n    mapping(address => mapping(address => uint256)) private _allowed;\n\n    constructor() I3MarketTreasury() {\n\n    }\n\n    /**\n     * @dev Emitted when `value` tokens are moved from one account (`from`) to\n     * another (`to`).\n     *\n     * Note that `value` may be zero.\n     */\n    event Transfer(address indexed from, address indexed to, uint256 value);\n\n    /**\n     * @dev Emitted when the allowance of a `spender` for an `owner` is set by\n     * a call to {approve}. `value` is the new allowance.\n     */\n    event Approval(address indexed _owner, address indexed _spender, uint256 _oldValue, uint256 _value);\n\n    /**\n     * @dev Function to check the amount of tokens that an owner allowed to a spender.\n     * @param owner address The address which owns the funds.\n     * @param spender address The address which will spend the funds.\n     * @return A uint256 specifying the amount of tokens still available for the spender.\n     */\n    function allowance(address owner, address spender) public view returns (uint256)    {\n        return _allowed[owner][spender];\n    }\n\n    /**\n     * @dev Approve the passed address to spend the specified amount of tokens on behalf of msg.sender.\n     * Beware that changing an allowance with this method brings the risk that someone may use both the old\n     * and the new allowance by unfortunate transaction ordering. One possible solution to mitigate this\n     * race condition is to first reduce the spender's allowance to 0 and set the desired value afterwards:\n     * https://github.com/ethereum/EIPs/issues/20#issuecomment-263524729\n     * @param spender The address which will spend the funds.\n     * @param value The amount of tokens to be spent.\n     */\n    function approve(address spender, uint256 currentValue, uint256 value) public returns (bool)\n    {\n        require(_allowed[msg.sender][spender] == currentValue, 'WRONG CURRENT VALUE');\n        require(spender != address(0));\n\n        _allowed[msg.sender][spender] = value;\n        emit Approval(msg.sender, spender, currentValue, value);\n        return true;\n    }\n\n\n    /**\n     * @dev Transfer tokens from one address to another\n     * @param transferId unique id of the transfer\n     * @param from address The address which you want to send tokens from\n     * @param to address The address which you want to transfer to\n     * @param value uint256 the amount of tokens to be transferred\n     */\n    function allowanceTransfer(string memory transferId, address from, address to, uint256 value) public returns (bool)\n    {\n        require(value <= _allowed[from][msg.sender], 'NOT ENOUGH TOKEN ALLOWED');\n        require(to != address(0));\n\n        super._transferFrom(from, to, value);\n        _allowed[from][msg.sender] = _allowed[from][msg.sender] - value;\n\n        txs[transferId] = TokenTransfer(transferId, from, to, value, false, \"\");\n        emit TokenTransferred(transferId, \"payment\", msg.sender, to);\n        return true;\n    }\n\n    /**\n     * @dev See {IERC1155-isApprovedForAll}.\n     * @param account address of the owner of the tokens\n     * @param account address of the spender of the tokens\n     */\n    function isApprovedForAll(address account, address operator) public view virtual override returns (bool) {\n        return _allowed[account][operator] > 0;\n    }\n\n     /**\n        @notice Enable or disable approval for a third party (\"operator\") to manage all of `msg.sender`'s tokens.\n        @dev MUST emit the ApprovalForAll event on success.\n    */\n    function setApprovalForAll(address operator, bool approved) public virtual override  {\n        // Do this on the wrapped contract directly. We can't do this here\n        revert();\n    }\n}\n",
  "sourcePath": "/home/hopu/PycharmProjects/i3-market-tokenization/contracts/TreasuryWithAllowance.sol",
  "compiler": {
    "name": "solc",
    "version": "0.8.0+commit.c7dfd78e.Emscripten.clang"
  },
  "schemaVersion": "3.4.3",
  "updatedAt": "2022-05-09T06:05:48.668Z",
  "networkType": "ethereum",
  "devdoc": {
    "events": {
      "Approval(address,address,uint256,uint256)": {
        "details": "Emitted when the allowance of a `spender` for an `owner` is set by a call to {approve}. `value` is the new allowance."
      },
      "Transfer(address,address,uint256)": {
        "details": "Emitted when `value` tokens are moved from one account (`from`) to another (`to`). Note that `value` may be zero."
      }
    },
    "kind": "dev",
    "methods": {
      "allowance(address,address)": {
        "details": "Function to check the amount of tokens that an owner allowed to a spender.",
        "params": {
          "owner": "address The address which owns the funds.",
          "spender": "address The address which will spend the funds."
        },
        "returns": {
          "_0": "A uint256 specifying the amount of tokens still available for the spender."
        }
      },
      "allowanceTransfer(string,address,address,uint256)": {
        "details": "Transfer tokens from one address to another",
        "params": {
          "from": "address The address which you want to send tokens from",
          "to": "address The address which you want to transfer to",
          "transferId": "unique id of the transfer",
          "value": "uint256 the amount of tokens to be transferred"
        }
      },
      "approve(address,uint256,uint256)": {
        "details": "Approve the passed address to spend the specified amount of tokens on behalf of msg.sender. Beware that changing an allowance with this method brings the risk that someone may use both the old and the new allowance by unfortunate transaction ordering. One possible solution to mitigate this race condition is to first reduce the spender's allowance to 0 and set the desired value afterwards: https://github.com/ethereum/EIPs/issues/20#issuecomment-263524729",
        "params": {
          "spender": "The address which will spend the funds.",
          "value": "The amount of tokens to be spent."
        }
      },
      "balanceOf(address,uint256)": {
        "details": "See {IERC1155-balanceOf}. Requirements: - `account` cannot be the zero address."
      },
      "balanceOfBatch(address[],uint256[])": {
        "details": "See {IERC1155-balanceOfBatch}. Requirements: - `accounts` and `ids` must have the same length."
      },
      "isApprovedForAll(address,address)": {
        "details": "See {IERC1155-isApprovedForAll}.",
        "params": {
          "account": "address of the spender of the tokens"
        }
      },
      "safeBatchTransferFrom(address,address,uint256[],uint256[],bytes)": {
        "details": "See {IERC1155-safeBatchTransferFrom}."
      },
      "safeTransferFrom(address,address,uint256,uint256,bytes)": {
        "details": "See {IERC1155-safeTransferFrom}."
      },
      "setApprovalForAll(address,bool)": {
        "details": "MUST emit the ApprovalForAll event on success."
      },
      "supportsInterface(bytes4)": {
        "details": "See {IERC165-supportsInterface}."
      },
      "uri(uint256)": {
        "details": "See {IERC1155MetadataURI-uri}. This implementation returns the same URI for *all* token types. It relies on the token type ID substitution mechanism https://eips.ethereum.org/EIPS/eip-1155#metadata[defined in the EIP]. Clients calling this function must replace the `\\{id\\}` substring with the actual token type ID."
      }
    },
    "version": 1
  },
  "userdoc": {
    "kind": "user",
    "methods": {
      "setApprovalForAll(address,bool)": {
        "notice": "Enable or disable approval for a third party (\"operator\") to manage all of `msg.sender`'s tokens."
      }
    },
    "version": 1
  }
}