{
  "contractName": "TreasuryWithAllowance",
  "abi": [
    {
      "inputs": [],
      "stateMutability": "nonpayable",
      "type": "constructor"
    },
    {
      "anonymous": false,
      "inputs": [
        {
          "indexed": true,
          "internalType": "address",
          "name": "_owner",
          "type": "address"
        },
        {
          "indexed": true,
          "internalType": "address",
          "name": "_spender",
          "type": "address"
        },
        {
          "indexed": false,
          "internalType": "uint256",
          "name": "_oldValue",
          "type": "uint256"
        },
        {
          "indexed": false,
          "internalType": "uint256",
          "name": "_value",
          "type": "uint256"
        }
      ],
      "name": "Approval",
      "type": "event"
    },
    {
      "anonymous": false,
      "inputs": [
        {
          "indexed": true,
          "internalType": "address",
          "name": "account",
          "type": "address"
        },
        {
          "indexed": true,
          "internalType": "address",
          "name": "operator",
          "type": "address"
        },
        {
          "indexed": false,
          "internalType": "bool",
          "name": "approved",
          "type": "bool"
        }
      ],
      "name": "ApprovalForAll",
      "type": "event"
    },
    {
      "anonymous": false,
      "inputs": [
        {
          "indexed": false,
          "internalType": "string",
          "name": "transferId",
          "type": "string"
        },
        {
          "indexed": false,
          "internalType": "string",
          "name": "operation",
          "type": "string"
        },
        {
          "indexed": false,
          "internalType": "address",
          "name": "fromAdd",
          "type": "address"
        },
        {
          "indexed": false,
          "internalType": "address",
          "name": "toAdd",
          "type": "address"
        }
      ],
      "name": "FiatMoneyPayment",
      "type": "event"
    },
    {
      "anonymous": false,
      "inputs": [
        {
          "indexed": false,
          "internalType": "string",
          "name": "transferId",
          "type": "string"
        },
        {
          "indexed": false,
          "internalType": "string",
          "name": "operation",
          "type": "string"
        },
        {
          "indexed": false,
          "internalType": "address",
          "name": "fromAdd",
          "type": "address"
        },
        {
          "indexed": false,
          "internalType": "address",
          "name": "toAdd",
          "type": "address"
        }
      ],
      "name": "TokenTransferred",
      "type": "event"
    },
    {
      "anonymous": false,
      "inputs": [
        {
          "indexed": true,
          "internalType": "address",
          "name": "operator",
          "type": "address"
        },
        {
          "indexed": true,
          "internalType": "address",
          "name": "from",
          "type": "address"
        },
        {
          "indexed": true,
          "internalType": "address",
          "name": "to",
          "type": "address"
        },
        {
          "indexed": false,
          "internalType": "uint256[]",
          "name": "ids",
          "type": "uint256[]"
        },
        {
          "indexed": false,
          "internalType": "uint256[]",
          "name": "values",
          "type": "uint256[]"
        }
      ],
      "name": "TransferBatch",
      "type": "event"
    },
    {
      "anonymous": false,
      "inputs": [
        {
          "indexed": true,
          "internalType": "address",
          "name": "operator",
          "type": "address"
        },
        {
          "indexed": true,
          "internalType": "address",
          "name": "from",
          "type": "address"
        },
        {
          "indexed": true,
          "internalType": "address",
          "name": "to",
          "type": "address"
        },
        {
          "indexed": false,
          "internalType": "uint256",
          "name": "id",
          "type": "uint256"
        },
        {
          "indexed": false,
          "internalType": "uint256",
          "name": "value",
          "type": "uint256"
        }
      ],
      "name": "TransferSingle",
      "type": "event"
    },
    {
      "anonymous": false,
      "inputs": [
        {
          "indexed": false,
          "internalType": "string",
          "name": "value",
          "type": "string"
        },
        {
          "indexed": true,
          "internalType": "uint256",
          "name": "id",
          "type": "uint256"
        }
      ],
      "name": "URI",
      "type": "event"
    },
    {
      "inputs": [
        {
          "internalType": "address",
          "name": "_mpAdd",
          "type": "address"
        }
      ],
      "name": "addMarketplace",
      "outputs": [],
      "stateMutability": "nonpayable",
      "type": "function"
    },
    {
      "inputs": [
        {
          "internalType": "address",
          "name": "account",
          "type": "address"
        },
        {
          "internalType": "uint256",
          "name": "id",
          "type": "uint256"
        }
      ],
      "name": "balanceOf",
      "outputs": [
        {
          "internalType": "uint256",
          "name": "",
          "type": "uint256"
        }
      ],
      "stateMutability": "view",
      "type": "function",
      "constant": true
    },
    {
      "inputs": [
        {
          "internalType": "address[]",
          "name": "accounts",
          "type": "address[]"
        },
        {
          "internalType": "uint256[]",
          "name": "ids",
          "type": "uint256[]"
        }
      ],
      "name": "balanceOfBatch",
      "outputs": [
        {
          "internalType": "uint256[]",
          "name": "",
          "type": "uint256[]"
        }
      ],
      "stateMutability": "view",
      "type": "function",
      "constant": true
    },
    {
      "inputs": [
        {
          "components": [
            {
              "internalType": "string",
              "name": "transferId",
              "type": "string"
            },
            {
              "internalType": "address",
              "name": "toAdd",
              "type": "address"
            },
            {
              "internalType": "uint256",
              "name": "tokenAmount",
              "type": "uint256"
            }
          ],
          "internalType": "struct I3MarketTreasury.ClearingOperation[]",
          "name": "_clearingOps",
          "type": "tuple[]"
        }
      ],
      "name": "clearing",
      "outputs": [],
      "stateMutability": "payable",
      "type": "function",
      "payable": true
    },
    {
      "inputs": [],
      "name": "communityFee",
      "outputs": [
        {
          "internalType": "uint256",
          "name": "",
          "type": "uint256"
        }
      ],
      "stateMutability": "view",
      "type": "function",
      "constant": true
    },
    {
      "inputs": [],
      "name": "communityWallet",
      "outputs": [
        {
          "internalType": "address",
          "name": "",
          "type": "address"
        }
      ],
      "stateMutability": "view",
      "type": "function",
      "constant": true
    },
    {
      "inputs": [
        {
          "internalType": "string",
          "name": "transferId",
          "type": "string"
        },
        {
          "internalType": "address",
          "name": "_userAdd",
          "type": "address"
        },
        {
          "internalType": "uint256",
          "name": "_tokensAmount",
          "type": "uint256"
        }
      ],
      "name": "exchangeIn",
      "outputs": [],
      "stateMutability": "payable",
      "type": "function",
      "payable": true
    },
    {
      "inputs": [
        {
          "internalType": "string",
          "name": "_transferId",
          "type": "string"
        },
        {
          "internalType": "address",
          "name": "_mpAdd",
          "type": "address"
        }
      ],
      "name": "exchangeOut",
      "outputs": [],
      "stateMutability": "payable",
      "type": "function",
      "payable": true
    },
    {
      "inputs": [
        {
          "internalType": "string",
          "name": "_transferIdCommunity",
          "type": "string"
        },
        {
          "internalType": "string",
          "name": "_transferIdMp",
          "type": "string"
        },
        {
          "internalType": "address",
          "name": "_dataProviderMp",
          "type": "address"
        },
        {
          "internalType": "uint256",
          "name": "_feeAmount",
          "type": "uint256"
        }
      ],
      "name": "feePayment",
      "outputs": [],
      "stateMutability": "payable",
      "type": "function",
      "payable": true
    },
    {
      "inputs": [],
      "name": "index",
      "outputs": [
        {
          "internalType": "uint256",
          "name": "",
          "type": "uint256"
        }
      ],
      "stateMutability": "view",
      "type": "function",
      "constant": true
    },
    {
      "inputs": [
        {
          "internalType": "uint256",
          "name": "",
          "type": "uint256"
        }
      ],
      "name": "marketplaces",
      "outputs": [
        {
          "internalType": "address",
          "name": "",
          "type": "address"
        }
      ],
      "stateMutability": "view",
      "type": "function",
      "constant": true
    },
    {
      "inputs": [
        {
          "internalType": "address",
          "name": "",
          "type": "address"
        }
      ],
      "name": "mpIndex",
      "outputs": [
        {
          "internalType": "uint256",
          "name": "",
          "type": "uint256"
        }
      ],
      "stateMutability": "view",
      "type": "function",
      "constant": true
    },
    {
      "inputs": [
        {
          "internalType": "string",
          "name": "transferId",
          "type": "string"
        },
        {
          "internalType": "address",
          "name": "_dataProvider",
          "type": "address"
        },
        {
          "internalType": "uint256",
          "name": "_amount",
          "type": "uint256"
        }
      ],
      "name": "payment",
      "outputs": [],
      "stateMutability": "payable",
      "type": "function",
      "payable": true
    },
    {
      "inputs": [
        {
          "internalType": "address",
          "name": "from",
          "type": "address"
        },
        {
          "internalType": "address",
          "name": "to",
          "type": "address"
        },
        {
          "internalType": "uint256[]",
          "name": "ids",
          "type": "uint256[]"
        },
        {
          "internalType": "uint256[]",
          "name": "amounts",
          "type": "uint256[]"
        },
        {
          "internalType": "bytes",
          "name": "data",
          "type": "bytes"
        }
      ],
      "name": "safeBatchTransferFrom",
      "outputs": [],
      "stateMutability": "nonpayable",
      "type": "function"
    },
    {
      "inputs": [
        {
          "internalType": "address",
          "name": "from",
          "type": "address"
        },
        {
          "internalType": "address",
          "name": "to",
          "type": "address"
        },
        {
          "internalType": "uint256",
          "name": "id",
          "type": "uint256"
        },
        {
          "internalType": "uint256",
          "name": "amount",
          "type": "uint256"
        },
        {
          "internalType": "bytes",
          "name": "data",
          "type": "bytes"
        }
      ],
      "name": "safeTransferFrom",
      "outputs": [],
      "stateMutability": "nonpayable",
      "type": "function"
    },
    {
      "inputs": [
        {
          "internalType": "address",
          "name": "_communityWallett",
          "type": "address"
        },
        {
          "internalType": "uint256",
          "name": "_feeRate",
          "type": "uint256"
        }
      ],
      "name": "setCommunityWalletAndCommunityFee",
      "outputs": [],
      "stateMutability": "payable",
      "type": "function",
      "payable": true
    },
    {
      "inputs": [
        {
          "internalType": "uint256",
          "name": "_clearingThreshold",
          "type": "uint256"
        }
      ],
      "name": "setMinimumClearingThreshold",
      "outputs": [],
      "stateMutability": "payable",
      "type": "function",
      "payable": true
    },
    {
      "inputs": [
        {
          "internalType": "string",
          "name": "_transferId",
          "type": "string"
        },
        {
          "internalType": "string",
          "name": "_transferCode",
          "type": "string"
        }
      ],
      "name": "setPaid",
      "outputs": [],
      "stateMutability": "payable",
      "type": "function",
      "payable": true
    },
    {
      "inputs": [
        {
          "internalType": "bytes4",
          "name": "interfaceId",
          "type": "bytes4"
        }
      ],
      "name": "supportsInterface",
      "outputs": [
        {
          "internalType": "bool",
          "name": "",
          "type": "bool"
        }
      ],
      "stateMutability": "view",
      "type": "function",
      "constant": true
    },
    {
      "inputs": [
        {
          "internalType": "string",
          "name": "",
          "type": "string"
        }
      ],
      "name": "txs",
      "outputs": [
        {
          "internalType": "string",
          "name": "transferId",
          "type": "string"
        },
        {
          "internalType": "address",
          "name": "fromAdd",
          "type": "address"
        },
        {
          "internalType": "address",
          "name": "toAdd",
          "type": "address"
        },
        {
          "internalType": "uint256",
          "name": "tokenAmount",
          "type": "uint256"
        },
        {
          "internalType": "bool",
          "name": "isPaid",
          "type": "bool"
        },
        {
          "internalType": "string",
          "name": "transferCode",
          "type": "string"
        }
      ],
      "stateMutability": "view",
      "type": "function",
      "constant": true
    },
    {
      "inputs": [
        {
          "internalType": "uint256",
          "name": "",
          "type": "uint256"
        }
      ],
      "name": "uri",
      "outputs": [
        {
          "internalType": "string",
          "name": "",
          "type": "string"
        }
      ],
      "stateMutability": "view",
      "type": "function",
      "constant": true
    },
    {
      "inputs": [
        {
          "internalType": "address",
          "name": "owner",
          "type": "address"
        },
        {
          "internalType": "address",
          "name": "spender",
          "type": "address"
        }
      ],
      "name": "allowance",
      "outputs": [
        {
          "internalType": "uint256",
          "name": "",
          "type": "uint256"
        }
      ],
      "stateMutability": "view",
      "type": "function",
      "constant": true
    },
    {
      "inputs": [
        {
          "internalType": "address",
          "name": "spender",
          "type": "address"
        },
        {
          "internalType": "uint256",
          "name": "currentValue",
          "type": "uint256"
        },
        {
          "internalType": "uint256",
          "name": "value",
          "type": "uint256"
        }
      ],
      "name": "approve",
      "outputs": [
        {
          "internalType": "bool",
          "name": "",
          "type": "bool"
        }
      ],
      "stateMutability": "nonpayable",
      "type": "function"
    },
    {
      "inputs": [
        {
          "internalType": "string",
          "name": "transferId",
          "type": "string"
        },
        {
          "internalType": "address",
          "name": "from",
          "type": "address"
        },
        {
          "internalType": "address",
          "name": "to",
          "type": "address"
        },
        {
          "internalType": "uint256",
          "name": "value",
          "type": "uint256"
        }
      ],
      "name": "allowanceTransfer",
      "outputs": [
        {
          "internalType": "bool",
          "name": "",
          "type": "bool"
        }
      ],
      "stateMutability": "nonpayable",
      "type": "function"
    },
    {
      "inputs": [
        {
          "internalType": "address",
          "name": "account",
          "type": "address"
        },
        {
          "internalType": "address",
          "name": "operator",
          "type": "address"
        }
      ],
      "name": "isApprovedForAll",
      "outputs": [
        {
          "internalType": "bool",
          "name": "",
          "type": "bool"
        }
      ],
      "stateMutability": "view",
      "type": "function",
      "constant": true
    },
    {
      "inputs": [
        {
          "internalType": "address",
          "name": "operator",
          "type": "address"
        },
        {
          "internalType": "bool",
          "name": "approved",
          "type": "bool"
        }
      ],
      "name": "setApprovalForAll",
      "outputs": [],
      "stateMutability": "nonpayable",
      "type": "function"
    }
  ],
  "bytecode": "0x60806040526000600555600a6007553480156200001b57600080fd5b506040518060600160405280602a815260200162005e68602a913962000047816200004e60201b60201c565b506200017f565b8060029080519060200190620000669291906200006a565b5050565b82805462000078906200011a565b90600052602060002090601f0160209004810192826200009c5760008555620000e8565b82601f10620000b757805160ff1916838001178555620000e8565b82800160010185558215620000e8579182015b82811115620000e7578251825591602001919060010190620000ca565b5b509050620000f79190620000fb565b5090565b5b8082111562000116576000816000905550600101620000fc565b5090565b600060028204905060018216806200013357607f821691505b602082108114156200014a576200014962000150565b5b50919050565b7f4e487b7100000000000000000000000000000000000000000000000000000000600052602260045260246000fd5b615cd9806200018f6000396000f3fe6080604052600436106101805760003560e01c80638081e990116100d1578063c1acc5d11161008a578063cc4dd6f211610064578063cc4dd6f21461054e578063dd62ed3e1461058b578063e985e9c5146105c8578063f242432a1461060557610180565b8063c1acc5d1146104eb578063c264679c14610507578063c75748391461052357610180565b80638081e990146104275780638961be6b14610443578063909770871461046e578063a22cb4651461048a578063aa5a185b146104b3578063b4b13c7e146104cf57610180565b806336d7b23a1161013e5780634649fe67116101185780634649fe67146103685780634e1273f41461038457806357af8619146103c157806371771330146103fe57610180565b806336d7b23a146102cd57806339c53b101461030f578063426a84931461032b57610180565b8062fdd58e1461018557806301ffc9a7146101c25780630e89341c146101ff5780632986c0e51461023c5780632b64deec146102675780632eb2c2d6146102a4575b600080fd5b34801561019157600080fd5b506101ac60048036038101906101a791906142a6565b61062e565b6040516101b99190615148565b60405180910390f35b3480156101ce57600080fd5b506101e960048036038101906101e491906143de565b6106f7565b6040516101f69190614c96565b60405180910390f35b34801561020b57600080fd5b50610226600480360381019061022191906146a6565b6107d9565b6040516102339190614cb1565b60405180910390f35b34801561024857600080fd5b5061025161086d565b60405161025e9190615148565b60405180910390f35b34801561027357600080fd5b5061028e600480360381019061028991906146a6565b610873565b60405161029b9190614b60565b60405180910390f35b3480156102b057600080fd5b506102cb60048036038101906102c6919061411c565b6108b2565b005b3480156102d957600080fd5b506102f460048036038101906102ef9190614430565b610953565b60405161030696959493929190614cd3565b60405180910390f35b61032960048036038101906103249190614471565b610b02565b005b34801561033757600080fd5b50610352600480360381019061034d91906142e2565b610e71565b60405161035f9190614c96565b60405180910390f35b610382600480360381019061037d91906146a6565b610ff7565b005b34801561039057600080fd5b506103ab60048036038101906103a69190614331565b611042565b6040516103b89190614c3d565b60405180910390f35b3480156103cd57600080fd5b506103e860048036038101906103e391906140b7565b6111f3565b6040516103f59190615148565b60405180910390f35b34801561040a57600080fd5b50610425600480360381019061042091906140b7565b61120b565b005b610441600480360381019061043c91906145a7565b6113c5565b005b34801561044f57600080fd5b506104586115a7565b6040516104659190615148565b60405180910390f35b61048860048036038101906104839190614540565b6115ad565b005b34801561049657600080fd5b506104b160048036038101906104ac919061426a565b611875565b005b6104cd60048036038101906104c891906142a6565b61187a565b005b6104e960048036038101906104e4919061439d565b611907565b005b61050560048036038101906105009190614613565b611ed9565b005b610521600480360381019061051c9190614540565b6122fd565b005b34801561052f57600080fd5b506105386124c6565b6040516105459190614b60565b60405180910390f35b34801561055a57600080fd5b50610575600480360381019061057091906144c5565b6124ec565b6040516105829190614c96565b60405180910390f35b34801561059757600080fd5b506105b260048036038101906105ad91906140e0565b612884565b6040516105bf9190615148565b60405180910390f35b3480156105d457600080fd5b506105ef60048036038101906105ea91906140e0565b61290b565b6040516105fc9190614c96565b60405180910390f35b34801561061157600080fd5b5061062c600480360381019061062791906141db565b612994565b005b60008073ffffffffffffffffffffffffffffffffffffffff168373ffffffffffffffffffffffffffffffffffffffff16141561069f576040517f08c379a000000000000000000000000000000000000000000000000000000000815260040161069690614f68565b60405180910390fd5b60008083815260200190815260200160002060008473ffffffffffffffffffffffffffffffffffffffff1673ffffffffffffffffffffffffffffffffffffffff16815260200190815260200160002054905092915050565b60007fd9b67a26000000000000000000000000000000000000000000000000000000007bffffffffffffffffffffffffffffffffffffffffffffffffffffffff1916827bffffffffffffffffffffffffffffffffffffffffffffffffffffffff191614806107c257507f0e89341c000000000000000000000000000000000000000000000000000000007bffffffffffffffffffffffffffffffffffffffffffffffffffffffff1916827bffffffffffffffffffffffffffffffffffffffffffffffffffffffff1916145b806107d257506107d182612a35565b5b9050919050565b6060600280546107e8906154de565b80601f0160208091040260200160405190810160405280929190818152602001828054610814906154de565b80156108615780601f1061083657610100808354040283529160200191610861565b820191906000526020600020905b81548152906001019060200180831161084457829003601f168201915b50505050509050919050565b60055481565b6006818154811061088357600080fd5b906000526020600020016000915054906101000a900473ffffffffffffffffffffffffffffffffffffffff1681565b6108ba612a9f565b73ffffffffffffffffffffffffffffffffffffffff168573ffffffffffffffffffffffffffffffffffffffff16148061090057506108ff856108fa612a9f565b61290b565b5b61093f576040517f08c379a000000000000000000000000000000000000000000000000000000000815260040161093690614fe8565b60405180910390fd5b61094c8585858585612aa7565b5050505050565b60038180516020810182018051848252602083016020850120818352809550505050505060009150905080600001805461098c906154de565b80601f01602080910402602001604051908101604052809291908181526020018280546109b8906154de565b8015610a055780601f106109da57610100808354040283529160200191610a05565b820191906000526020600020905b8154815290600101906020018083116109e857829003601f168201915b5050505050908060010160009054906101000a900473ffffffffffffffffffffffffffffffffffffffff16908060020160009054906101000a900473ffffffffffffffffffffffffffffffffffffffff16908060030154908060040160009054906101000a900460ff1690806005018054610a7f906154de565b80601f0160208091040260200160405190810160405280929190818152602001828054610aab906154de565b8015610af85780601f10610acd57610100808354040283529160200191610af8565b820191906000526020600020905b815481529060010190602001808311610adb57829003601f168201915b5050505050905086565b600060055467ffffffffffffffff811115610b46577f4e487b7100000000000000000000000000000000000000000000000000000000600052604160045260246000fd5b604051908082528060200260200182016040528015610b745781602001602082028036833780820191505090505b50905060005b600554811015610be757600181610b919190615313565b828281518110610bca577f4e487b7100000000000000000000000000000000000000000000000000000000600052603260045260246000fd5b60200260200101818152505080610be090615541565b9050610b7a565b50600060055467ffffffffffffffff811115610c2c577f4e487b7100000000000000000000000000000000000000000000000000000000600052604160045260246000fd5b604051908082528060200260200182016040528015610c5a5781602001602082028036833780820191505090505b509050610c6633612e07565b9050610caa338484846040518060400160405280600381526020017f30783000000000000000000000000000000000000000000000000000000000008152506108b2565b6040518060c001604052808581526020013373ffffffffffffffffffffffffffffffffffffffff1681526020018473ffffffffffffffffffffffffffffffffffffffff168152602001610cfc83612f01565b815260200160001515815260200160405180602001604052806000815250815250600385604051610d2d9190614b49565b90815260200160405180910390206000820151816000019080519060200190610d57929190613cb0565b5060208201518160010160006101000a81548173ffffffffffffffffffffffffffffffffffffffff021916908373ffffffffffffffffffffffffffffffffffffffff16021790555060408201518160020160006101000a81548173ffffffffffffffffffffffffffffffffffffffff021916908373ffffffffffffffffffffffffffffffffffffffff1602179055506060820151816003015560808201518160040160006101000a81548160ff02191690831515021790555060a0820151816005019080519060200190610e2c929190613cb0565b509050507f2d0c372f282a09f6b7d15937a5da024a271cc1bedd09dca9381d542a0420844a843385604051610e6393929190614e86565b60405180910390a150505050565b600082600a60003373ffffffffffffffffffffffffffffffffffffffff1673ffffffffffffffffffffffffffffffffffffffff16815260200190815260200160002060008673ffffffffffffffffffffffffffffffffffffffff1673ffffffffffffffffffffffffffffffffffffffff1681526020019081526020016000205414610f31576040517f08c379a0000000000000000000000000000000000000000000000000000000008152600401610f2890615008565b60405180910390fd5b600073ffffffffffffffffffffffffffffffffffffffff168473ffffffffffffffffffffffffffffffffffffffff161415610f6b57600080fd5b81600a60003373ffffffffffffffffffffffffffffffffffffffff1673ffffffffffffffffffffffffffffffffffffffff16815260200190815260200160002060008673ffffffffffffffffffffffffffffffffffffffff1673ffffffffffffffffffffffffffffffffffffffff16815260200190815260200160002081905550600190509392505050565b33611037816040518060400160405280600e81526020017f4144442049534e27542041204d50000000000000000000000000000000000000815250612f7f565b816007819055505050565b60608151835114611088576040517f08c379a000000000000000000000000000000000000000000000000000000000815260040161107f906150e8565b60405180910390fd5b6000835167ffffffffffffffff8111156110cb577f4e487b7100000000000000000000000000000000000000000000000000000000600052604160045260246000fd5b6040519080825280602002602001820160405280156110f95781602001602082028036833780820191505090505b50905060005b84518110156111e857611192858281518110611144577f4e487b7100000000000000000000000000000000000000000000000000000000600052603260045260246000fd5b6020026020010151858381518110611185577f4e487b7100000000000000000000000000000000000000000000000000000000600052603260045260246000fd5b602002602001015161062e565b8282815181106111cb577f4e487b7100000000000000000000000000000000000000000000000000000000600052603260045260246000fd5b602002602001018181525050806111e190615541565b90506110ff565b508091505092915050565b60046020528060005260406000206000915090505481565b808073ffffffffffffffffffffffffffffffffffffffff163373ffffffffffffffffffffffffffffffffffffffff161461127a576040517f08c379a0000000000000000000000000000000000000000000000000000000008152600401611271906150a8565b60405180910390fd5b816000600460008373ffffffffffffffffffffffffffffffffffffffff1673ffffffffffffffffffffffffffffffffffffffff16815260200190815260200160002054146112fd576040517f08c379a00000000000000000000000000000000000000000000000000000000081526004016112f4906150c8565b60405180910390fd5b6001600560008282546113109190615313565b925050819055506006839080600181540180825580915050600190039060005260206000200160009091909190916101000a81548173ffffffffffffffffffffffffffffffffffffffff021916908373ffffffffffffffffffffffffffffffffffffffff160217905550600554600460008573ffffffffffffffffffffffffffffffffffffffff1673ffffffffffffffffffffffffffffffffffffffff16815260200190815260200160002081905550505050565b813373ffffffffffffffffffffffffffffffffffffffff166003826040516113ed9190614b49565b908152602001604051809103902060020160009054906101000a900473ffffffffffffffffffffffffffffffffffffffff1673ffffffffffffffffffffffffffffffffffffffff1614611475576040517f08c379a000000000000000000000000000000000000000000000000000000000815260040161146c90615068565b60405180910390fd5b60016003846040516114879190614b49565b908152602001604051809103902060040160006101000a81548160ff021916908315150217905550816003846040516114c09190614b49565b908152602001604051809103902060050190805190602001906114e4929190613cb0565b507f618ab912d376cfe7b192c182b3c7145d2c9ccac56f3ccfde40e02c373303e2f5836003856040516115179190614b49565b908152602001604051809103902060020160009054906101000a900473ffffffffffffffffffffffffffffffffffffffff166003866040516115599190614b49565b908152602001604051809103902060010160009054906101000a900473ffffffffffffffffffffffffffffffffffffffff1660405161159a93929190614d42565b60405180910390a1505050565b60095481565b818073ffffffffffffffffffffffffffffffffffffffff163373ffffffffffffffffffffffffffffffffffffffff16141561161d576040517f08c379a000000000000000000000000000000000000000000000000000000000815260040161161490614fa8565b60405180910390fd5b61165c336040518060400160405280600e81526020017f4144442049534e27542041204d50000000000000000000000000000000000000815250612f7f565b6116b683600460003373ffffffffffffffffffffffffffffffffffffffff1673ffffffffffffffffffffffffffffffffffffffff16815260200190815260200160002054846040518060200160405280600081525061300a565b6040518060c001604052808581526020013373ffffffffffffffffffffffffffffffffffffffff1681526020018473ffffffffffffffffffffffffffffffffffffffff168152602001838152602001600115158152602001604051806020016040528060008152508152506003856040516117319190614b49565b9081526020016040518091039020600082015181600001908051906020019061175b929190613cb0565b5060208201518160010160006101000a81548173ffffffffffffffffffffffffffffffffffffffff021916908373ffffffffffffffffffffffffffffffffffffffff16021790555060408201518160020160006101000a81548173ffffffffffffffffffffffffffffffffffffffff021916908373ffffffffffffffffffffffffffffffffffffffff1602179055506060820151816003015560808201518160040160006101000a81548160ff02191690831515021790555060a0820151816005019080519060200190611830929190613cb0565b509050507f2d0c372f282a09f6b7d15937a5da024a271cc1bedd09dca9381d542a0420844a84338560405161186793929190614e35565b60405180910390a150505050565b600080fd5b336118ba816040518060400160405280600e81526020017f4144442049534e27542041204d50000000000000000000000000000000000000815250612f7f565b82600860006101000a81548173ffffffffffffffffffffffffffffffffffffffff021916908373ffffffffffffffffffffffffffffffffffffffff16021790555081600981905550505050565b33611947816040518060400160405280600e81526020017f4144442049534e27542041204d50000000000000000000000000000000000000815250612f7f565b60005b8251811015611ed4576119d683828151811061198f577f4e487b7100000000000000000000000000000000000000000000000000000000600052603260045260246000fd5b6020026020010151602001516040518060400160405280600e81526020017f4144442049534e27542041204d50000000000000000000000000000000000000815250612f7f565b600754838281518110611a12577f4e487b7100000000000000000000000000000000000000000000000000000000600052603260045260246000fd5b6020026020010151604001511115611ec357611b7133848381518110611a61577f4e487b7100000000000000000000000000000000000000000000000000000000600052603260045260246000fd5b60200260200101516020015160046000878681518110611aaa577f4e487b7100000000000000000000000000000000000000000000000000000000600052603260045260246000fd5b60200260200101516020015173ffffffffffffffffffffffffffffffffffffffff1673ffffffffffffffffffffffffffffffffffffffff16815260200190815260200160002054868581518110611b2a577f4e487b7100000000000000000000000000000000000000000000000000000000600052603260045260246000fd5b6020026020010151604001516040518060400160405280600381526020017f3078300000000000000000000000000000000000000000000000000000000000815250612994565b6040518060c00160405280848381518110611bb5577f4e487b7100000000000000000000000000000000000000000000000000000000600052603260045260246000fd5b60200260200101516000015181526020013373ffffffffffffffffffffffffffffffffffffffff168152602001848381518110611c1b577f4e487b7100000000000000000000000000000000000000000000000000000000600052603260045260246000fd5b60200260200101516020015173ffffffffffffffffffffffffffffffffffffffff168152602001848381518110611c7b577f4e487b7100000000000000000000000000000000000000000000000000000000600052603260045260246000fd5b6020026020010151604001518152602001600015158152602001604051806020016040528060008152508152506003848381518110611ce3577f4e487b7100000000000000000000000000000000000000000000000000000000600052603260045260246000fd5b602002602001015160000151604051611cfc9190614b49565b90815260200160405180910390206000820151816000019080519060200190611d26929190613cb0565b5060208201518160010160006101000a81548173ffffffffffffffffffffffffffffffffffffffff021916908373ffffffffffffffffffffffffffffffffffffffff16021790555060408201518160020160006101000a81548173ffffffffffffffffffffffffffffffffffffffff021916908373ffffffffffffffffffffffffffffffffffffffff1602179055506060820151816003015560808201518160040160006101000a81548160ff02191690831515021790555060a0820151816005019080519060200190611dfb929190613cb0565b509050507f2d0c372f282a09f6b7d15937a5da024a271cc1bedd09dca9381d542a0420844a838281518110611e59577f4e487b7100000000000000000000000000000000000000000000000000000000600052603260045260246000fd5b60200260200101516000015133858481518110611e9f577f4e487b7100000000000000000000000000000000000000000000000000000000600052603260045260246000fd5b602002602001015160200151604051611eba93929190614de4565b60405180910390a15b80611ecd90615541565b905061194a565b505050565b6000606460095483611eeb919061539a565b611ef59190615369565b905060008183611f0591906153f4565b9050611f3433600860009054906101000a900473ffffffffffffffffffffffffffffffffffffffff16846131a0565b6040518060c001604052808781526020013373ffffffffffffffffffffffffffffffffffffffff168152602001600860009054906101000a900473ffffffffffffffffffffffffffffffffffffffff1673ffffffffffffffffffffffffffffffffffffffff16815260200183815260200160001515815260200160405180602001604052806000815250815250600387604051611fd19190614b49565b90815260200160405180910390206000820151816000019080519060200190611ffb929190613cb0565b5060208201518160010160006101000a81548173ffffffffffffffffffffffffffffffffffffffff021916908373ffffffffffffffffffffffffffffffffffffffff16021790555060408201518160020160006101000a81548173ffffffffffffffffffffffffffffffffffffffff021916908373ffffffffffffffffffffffffffffffffffffffff1602179055506060820151816003015560808201518160040160006101000a81548160ff02191690831515021790555060a08201518160050190805190602001906120d0929190613cb0565b509050507f2d0c372f282a09f6b7d15937a5da024a271cc1bedd09dca9381d542a0420844a8633600860009054906101000a900473ffffffffffffffffffffffffffffffffffffffff1660405161212993929190614ed7565b60405180910390a161213c3385836131a0565b6040518060c001604052808681526020013373ffffffffffffffffffffffffffffffffffffffff1681526020018573ffffffffffffffffffffffffffffffffffffffff168152602001828152602001600015158152602001604051806020016040528060008152508152506003866040516121b79190614b49565b908152602001604051809103902060008201518160000190805190602001906121e1929190613cb0565b5060208201518160010160006101000a81548173ffffffffffffffffffffffffffffffffffffffff021916908373ffffffffffffffffffffffffffffffffffffffff16021790555060408201518160020160006101000a81548173ffffffffffffffffffffffffffffffffffffffff021916908373ffffffffffffffffffffffffffffffffffffffff1602179055506060820151816003015560808201518160040160006101000a81548160ff02191690831515021790555060a08201518160050190805190602001906122b6929190613cb0565b509050507f2d0c372f282a09f6b7d15937a5da024a271cc1bedd09dca9381d542a0420844a8533866040516122ed93929190614ed7565b60405180910390a1505050505050565b6123083383836131a0565b6040518060c001604052808481526020013373ffffffffffffffffffffffffffffffffffffffff1681526020018373ffffffffffffffffffffffffffffffffffffffff168152602001828152602001600015158152602001604051806020016040528060008152508152506003846040516123839190614b49565b908152602001604051809103902060008201518160000190805190602001906123ad929190613cb0565b5060208201518160010160006101000a81548173ffffffffffffffffffffffffffffffffffffffff021916908373ffffffffffffffffffffffffffffffffffffffff16021790555060408201518160020160006101000a81548173ffffffffffffffffffffffffffffffffffffffff021916908373ffffffffffffffffffffffffffffffffffffffff1602179055506060820151816003015560808201518160040160006101000a81548160ff02191690831515021790555060a0820151816005019080519060200190612482929190613cb0565b509050507f2d0c372f282a09f6b7d15937a5da024a271cc1bedd09dca9381d542a0420844a8333846040516124b993929190614d93565b60405180910390a1505050565b600860009054906101000a900473ffffffffffffffffffffffffffffffffffffffff1681565b6000600a60008573ffffffffffffffffffffffffffffffffffffffff1673ffffffffffffffffffffffffffffffffffffffff16815260200190815260200160002060003373ffffffffffffffffffffffffffffffffffffffff1673ffffffffffffffffffffffffffffffffffffffff168152602001908152602001600020548211156125ad576040517f08c379a00000000000000000000000000000000000000000000000000000000081526004016125a490615088565b60405180910390fd5b600073ffffffffffffffffffffffffffffffffffffffff168373ffffffffffffffffffffffffffffffffffffffff1614156125e757600080fd5b6125f28484846131a0565b81600a60008673ffffffffffffffffffffffffffffffffffffffff1673ffffffffffffffffffffffffffffffffffffffff16815260200190815260200160002060003373ffffffffffffffffffffffffffffffffffffffff1673ffffffffffffffffffffffffffffffffffffffff1681526020019081526020016000205461267a91906153f4565b600a60008673ffffffffffffffffffffffffffffffffffffffff1673ffffffffffffffffffffffffffffffffffffffff16815260200190815260200160002060003373ffffffffffffffffffffffffffffffffffffffff1673ffffffffffffffffffffffffffffffffffffffff168152602001908152602001600020819055506040518060c001604052808681526020018573ffffffffffffffffffffffffffffffffffffffff1681526020018473ffffffffffffffffffffffffffffffffffffffff168152602001838152602001600015158152602001604051806020016040528060008152508152506003866040516127759190614b49565b9081526020016040518091039020600082015181600001908051906020019061279f929190613cb0565b5060208201518160010160006101000a81548173ffffffffffffffffffffffffffffffffffffffff021916908373ffffffffffffffffffffffffffffffffffffffff16021790555060408201518160020160006101000a81548173ffffffffffffffffffffffffffffffffffffffff021916908373ffffffffffffffffffffffffffffffffffffffff1602179055506060820151816003015560808201518160040160006101000a81548160ff02191690831515021790555060a0820151816005019080519060200190612874929190613cb0565b5090505060019050949350505050565b6000600a60008473ffffffffffffffffffffffffffffffffffffffff1673ffffffffffffffffffffffffffffffffffffffff16815260200190815260200160002060008373ffffffffffffffffffffffffffffffffffffffff1673ffffffffffffffffffffffffffffffffffffffff16815260200190815260200160002054905092915050565b600080600a60008573ffffffffffffffffffffffffffffffffffffffff1673ffffffffffffffffffffffffffffffffffffffff16815260200190815260200160002060008473ffffffffffffffffffffffffffffffffffffffff1673ffffffffffffffffffffffffffffffffffffffff1681526020019081526020016000205411905092915050565b61299c612a9f565b73ffffffffffffffffffffffffffffffffffffffff168573ffffffffffffffffffffffffffffffffffffffff1614806129e257506129e1856129dc612a9f565b61290b565b5b612a21576040517f08c379a0000000000000000000000000000000000000000000000000000000008152600401612a1890614f88565b60405180910390fd5b612a2e85858585856132e5565b5050505050565b60007f01ffc9a7000000000000000000000000000000000000000000000000000000007bffffffffffffffffffffffffffffffffffffffffffffffffffffffff1916827bffffffffffffffffffffffffffffffffffffffffffffffffffffffff1916149050919050565b600033905090565b8151835114612aeb576040517f08c379a0000000000000000000000000000000000000000000000000000000008152600401612ae290615108565b60405180910390fd5b600073ffffffffffffffffffffffffffffffffffffffff168473ffffffffffffffffffffffffffffffffffffffff161415612b5b576040517f08c379a0000000000000000000000000000000000000000000000000000000008152600401612b5290614fc8565b60405180910390fd5b6000612b65612a9f565b9050612b75818787878787613567565b60005b8451811015612d72576000858281518110612bbc577f4e487b7100000000000000000000000000000000000000000000000000000000600052603260045260246000fd5b602002602001015190506000858381518110612c01577f4e487b7100000000000000000000000000000000000000000000000000000000600052603260045260246000fd5b60200260200101519050600080600084815260200190815260200160002060008b73ffffffffffffffffffffffffffffffffffffffff1673ffffffffffffffffffffffffffffffffffffffff16815260200190815260200160002054905081811015612ca2576040517f08c379a0000000000000000000000000000000000000000000000000000000008152600401612c9990615028565b60405180910390fd5b81810360008085815260200190815260200160002060008c73ffffffffffffffffffffffffffffffffffffffff1673ffffffffffffffffffffffffffffffffffffffff168152602001908152602001600020819055508160008085815260200190815260200160002060008b73ffffffffffffffffffffffffffffffffffffffff1673ffffffffffffffffffffffffffffffffffffffff1681526020019081526020016000206000828254612d579190615313565b9250508190555050505080612d6b90615541565b9050612b78565b508473ffffffffffffffffffffffffffffffffffffffff168673ffffffffffffffffffffffffffffffffffffffff168273ffffffffffffffffffffffffffffffffffffffff167f4a39dc06d4c0dbc64b70af90fd698a233a518aa5d07e595d983b8c0526c8f7fb8787604051612de9929190614c5f565b60405180910390a4612dff81878787878761356f565b505050505050565b6060600060055467ffffffffffffffff811115612e4d577f4e487b7100000000000000000000000000000000000000000000000000000000600052604160045260246000fd5b604051908082528060200260200182016040528015612e7b5781602001602082028036833780820191505090505b50905060005b600554811015612ef757612ea184600183612e9c9190615313565b61062e565b828281518110612eda577f4e487b7100000000000000000000000000000000000000000000000000000000600052603260045260246000fd5b60200260200101818152505080612ef090615541565b9050612e81565b5080915050919050565b6000806000905060005b8351811015612f7557838181518110612f4d577f4e487b7100000000000000000000000000000000000000000000000000000000600052603260045260246000fd5b602002602001015182612f609190615313565b91508080612f6d90615541565b915050612f0b565b5080915050919050565b6000600460008473ffffffffffffffffffffffffffffffffffffffff1673ffffffffffffffffffffffffffffffffffffffff1681526020019081526020016000205414158190613005576040517f08c379a0000000000000000000000000000000000000000000000000000000008152600401612ffc9190614cb1565b60405180910390fd5b505050565b600073ffffffffffffffffffffffffffffffffffffffff168473ffffffffffffffffffffffffffffffffffffffff16141561307a576040517f08c379a000000000000000000000000000000000000000000000000000000000815260040161307190615128565b60405180910390fd5b6000613084612a9f565b90506130a58160008761309688613756565b61309f88613756565b87613567565b8260008086815260200190815260200160002060008773ffffffffffffffffffffffffffffffffffffffff1673ffffffffffffffffffffffffffffffffffffffff16815260200190815260200160002060008282546131049190615313565b925050819055508473ffffffffffffffffffffffffffffffffffffffff16600073ffffffffffffffffffffffffffffffffffffffff168273ffffffffffffffffffffffffffffffffffffffff167fc3d58168c5ae7397731d063d5bbf3d657854427343f4c083240f7aacaa2d0f628787604051613182929190615163565b60405180910390a46131998160008787878761381c565b5050505050565b600060055467ffffffffffffffff8111156131e4577f4e487b7100000000000000000000000000000000000000000000000000000000600052604160045260246000fd5b6040519080825280602002602001820160405280156132125781602001602082028036833780820191505090505b509050600060055467ffffffffffffffff811115613259577f4e487b7100000000000000000000000000000000000000000000000000000000600052604160045260246000fd5b6040519080825280602002602001820160405280156132875781602001602082028036833780820191505090505b5090506132948584613a03565b80925081935050506132de858584846040518060400160405280600381526020017f30783000000000000000000000000000000000000000000000000000000000008152506108b2565b5050505050565b600073ffffffffffffffffffffffffffffffffffffffff168473ffffffffffffffffffffffffffffffffffffffff161415613355576040517f08c379a000000000000000000000000000000000000000000000000000000000815260040161334c90614fc8565b60405180910390fd5b600061335f612a9f565b905061337f81878761337088613756565b61337988613756565b87613567565b600080600086815260200190815260200160002060008873ffffffffffffffffffffffffffffffffffffffff1673ffffffffffffffffffffffffffffffffffffffff16815260200190815260200160002054905083811015613416576040517f08c379a000000000000000000000000000000000000000000000000000000000815260040161340d90615028565b60405180910390fd5b83810360008087815260200190815260200160002060008973ffffffffffffffffffffffffffffffffffffffff1673ffffffffffffffffffffffffffffffffffffffff168152602001908152602001600020819055508360008087815260200190815260200160002060008873ffffffffffffffffffffffffffffffffffffffff1673ffffffffffffffffffffffffffffffffffffffff16815260200190815260200160002060008282546134cb9190615313565b925050819055508573ffffffffffffffffffffffffffffffffffffffff168773ffffffffffffffffffffffffffffffffffffffff168373ffffffffffffffffffffffffffffffffffffffff167fc3d58168c5ae7397731d063d5bbf3d657854427343f4c083240f7aacaa2d0f628888604051613548929190615163565b60405180910390a461355e82888888888861381c565b50505050505050565b505050505050565b61358e8473ffffffffffffffffffffffffffffffffffffffff16613c81565b1561374e578373ffffffffffffffffffffffffffffffffffffffff1663bc197c8187878686866040518663ffffffff1660e01b81526004016135d4959493929190614b7b565b602060405180830381600087803b1580156135ee57600080fd5b505af192505050801561361f57506040513d601f19601f8201168201806040525081019061361c9190614407565b60015b6136c55761362b615646565b806308c379a014156136885750613640615bb1565b8061364b575061368a565b806040517f08c379a000000000000000000000000000000000000000000000000000000000815260040161367f9190614cb1565b60405180910390fd5b505b6040517f08c379a00000000000000000000000000000000000000000000000000000000081526004016136bc90614f28565b60405180910390fd5b63bc197c8160e01b7bffffffffffffffffffffffffffffffffffffffffffffffffffffffff1916817bffffffffffffffffffffffffffffffffffffffffffffffffffffffff19161461374c576040517f08c379a000000000000000000000000000000000000000000000000000000000815260040161374390614f48565b60405180910390fd5b505b505050505050565b60606000600167ffffffffffffffff81111561379b577f4e487b7100000000000000000000000000000000000000000000000000000000600052604160045260246000fd5b6040519080825280602002602001820160405280156137c95781602001602082028036833780820191505090505b5090508281600081518110613807577f4e487b7100000000000000000000000000000000000000000000000000000000600052603260045260246000fd5b60200260200101818152505080915050919050565b61383b8473ffffffffffffffffffffffffffffffffffffffff16613c81565b156139fb578373ffffffffffffffffffffffffffffffffffffffff1663f23a6e6187878686866040518663ffffffff1660e01b8152600401613881959493929190614be3565b602060405180830381600087803b15801561389b57600080fd5b505af19250505080156138cc57506040513d601f19601f820116820180604052508101906138c99190614407565b60015b613972576138d8615646565b806308c379a0141561393557506138ed615bb1565b806138f85750613937565b806040517f08c379a000000000000000000000000000000000000000000000000000000000815260040161392c9190614cb1565b60405180910390fd5b505b6040517f08c379a000000000000000000000000000000000000000000000000000000000815260040161396990614f28565b60405180910390fd5b63f23a6e6160e01b7bffffffffffffffffffffffffffffffffffffffffffffffffffffffff1916817bffffffffffffffffffffffffffffffffffffffffffffffffffffffff1916146139f9576040517f08c379a00000000000000000000000000000000000000000000000000000000081526004016139f090614f48565b60405180910390fd5b505b505050505050565b606080600060055467ffffffffffffffff811115613a4a577f4e487b7100000000000000000000000000000000000000000000000000000000600052604160045260246000fd5b604051908082528060200260200182016040528015613a785781602001602082028036833780820191505090505b509050600060055467ffffffffffffffff811115613abf577f4e487b7100000000000000000000000000000000000000000000000000000000600052604160045260246000fd5b604051908082528060200260200182016040528015613aed5781602001602082028036833780820191505090505b50905060005b60055481108015613b05575060008614155b15613c2e576000613b2288600184613b1d9190615313565b61062e565b905060008114613c1c57600182613b399190615313565b848381518110613b72577f4e487b7100000000000000000000000000000000000000000000000000000000600052603260045260246000fd5b602002602001018181525050613b888188613c94565b838381518110613bc1577f4e487b7100000000000000000000000000000000000000000000000000000000600052603260045260246000fd5b602002602001018181525050828281518110613c06577f4e487b7100000000000000000000000000000000000000000000000000000000600052603260045260246000fd5b602002602001015187613c1991906153f4565b96505b5080613c2790615541565b9050613af3565b5060008514613c72576040517f08c379a0000000000000000000000000000000000000000000000000000000008152600401613c6990615048565b60405180910390fd5b81819350935050509250929050565b600080823b905060008111915050919050565b600082821115613ca657829050613caa565b8190505b92915050565b828054613cbc906154de565b90600052602060002090601f016020900481019282613cde5760008555613d25565b82601f10613cf757805160ff1916838001178555613d25565b82800160010185558215613d25579182015b82811115613d24578251825591602001919060010190613d09565b5b509050613d329190613d36565b5090565b5b80821115613d4f576000816000905550600101613d37565b5090565b6000613d66613d61846151b1565b61518c565b90508083825260208201905082856020860282011115613d8557600080fd5b60005b85811015613db55781613d9b8882613f04565b845260208401935060208301925050600181019050613d88565b5050509392505050565b6000613dd2613dcd846151dd565b61518c565b9050808382526020820190508260005b85811015613e125781358501613df8888261402a565b845260208401935060208301925050600181019050613de2565b5050509392505050565b6000613e2f613e2a84615209565b61518c565b90508083825260208201905082856020860282011115613e4e57600080fd5b60005b85811015613e7e5781613e6488826140a2565b845260208401935060208301925050600181019050613e51565b5050509392505050565b6000613e9b613e9684615235565b61518c565b905082815260208101848484011115613eb357600080fd5b613ebe84828561549c565b509392505050565b6000613ed9613ed484615266565b61518c565b905082815260208101848484011115613ef157600080fd5b613efc84828561549c565b509392505050565b600081359050613f1381615c47565b92915050565b600082601f830112613f2a57600080fd5b8135613f3a848260208601613d53565b91505092915050565b600082601f830112613f5457600080fd5b8135613f64848260208601613dbf565b91505092915050565b600082601f830112613f7e57600080fd5b8135613f8e848260208601613e1c565b91505092915050565b600081359050613fa681615c5e565b92915050565b600081359050613fbb81615c75565b92915050565b600081519050613fd081615c75565b92915050565b600082601f830112613fe757600080fd5b8135613ff7848260208601613e88565b91505092915050565b600082601f83011261401157600080fd5b8135614021848260208601613ec6565b91505092915050565b60006060828403121561403c57600080fd5b614046606061518c565b9050600082013567ffffffffffffffff81111561406257600080fd5b61406e84828501614000565b600083015250602061408284828501613f04565b6020830152506040614096848285016140a2565b60408301525092915050565b6000813590506140b181615c8c565b92915050565b6000602082840312156140c957600080fd5b60006140d784828501613f04565b91505092915050565b600080604083850312156140f357600080fd5b600061410185828601613f04565b925050602061411285828601613f04565b9150509250929050565b600080600080600060a0868803121561413457600080fd5b600061414288828901613f04565b955050602061415388828901613f04565b945050604086013567ffffffffffffffff81111561417057600080fd5b61417c88828901613f6d565b935050606086013567ffffffffffffffff81111561419957600080fd5b6141a588828901613f6d565b925050608086013567ffffffffffffffff8111156141c257600080fd5b6141ce88828901613fd6565b9150509295509295909350565b600080600080600060a086880312156141f357600080fd5b600061420188828901613f04565b955050602061421288828901613f04565b9450506040614223888289016140a2565b9350506060614234888289016140a2565b925050608086013567ffffffffffffffff81111561425157600080fd5b61425d88828901613fd6565b9150509295509295909350565b6000806040838503121561427d57600080fd5b600061428b85828601613f04565b925050602061429c85828601613f97565b9150509250929050565b600080604083850312156142b957600080fd5b60006142c785828601613f04565b92505060206142d8858286016140a2565b9150509250929050565b6000806000606084860312156142f757600080fd5b600061430586828701613f04565b9350506020614316868287016140a2565b9250506040614327868287016140a2565b9150509250925092565b6000806040838503121561434457600080fd5b600083013567ffffffffffffffff81111561435e57600080fd5b61436a85828601613f19565b925050602083013567ffffffffffffffff81111561438757600080fd5b61439385828601613f6d565b9150509250929050565b6000602082840312156143af57600080fd5b600082013567ffffffffffffffff8111156143c957600080fd5b6143d584828501613f43565b91505092915050565b6000602082840312156143f057600080fd5b60006143fe84828501613fac565b91505092915050565b60006020828403121561441957600080fd5b600061442784828501613fc1565b91505092915050565b60006020828403121561444257600080fd5b600082013567ffffffffffffffff81111561445c57600080fd5b61446884828501614000565b91505092915050565b6000806040838503121561448457600080fd5b600083013567ffffffffffffffff81111561449e57600080fd5b6144aa85828601614000565b92505060206144bb85828601613f04565b9150509250929050565b600080600080608085870312156144db57600080fd5b600085013567ffffffffffffffff8111156144f557600080fd5b61450187828801614000565b945050602061451287828801613f04565b935050604061452387828801613f04565b9250506060614534878288016140a2565b91505092959194509250565b60008060006060848603121561455557600080fd5b600084013567ffffffffffffffff81111561456f57600080fd5b61457b86828701614000565b935050602061458c86828701613f04565b925050604061459d868287016140a2565b9150509250925092565b600080604083850312156145ba57600080fd5b600083013567ffffffffffffffff8111156145d457600080fd5b6145e085828601614000565b925050602083013567ffffffffffffffff8111156145fd57600080fd5b61460985828601614000565b9150509250929050565b6000806000806080858703121561462957600080fd5b600085013567ffffffffffffffff81111561464357600080fd5b61464f87828801614000565b945050602085013567ffffffffffffffff81111561466c57600080fd5b61467887828801614000565b935050604061468987828801613f04565b925050606061469a878288016140a2565b91505092959194509250565b6000602082840312156146b857600080fd5b60006146c6848285016140a2565b91505092915050565b60006146db8383614b2b565b60208301905092915050565b6146f081615428565b82525050565b6000614701826152a7565b61470b81856152d5565b935061471683615297565b8060005b8381101561474757815161472e88826146cf565b9750614739836152c8565b92505060018101905061471a565b5085935050505092915050565b61475d8161543a565b82525050565b600061476e826152b2565b61477881856152e6565b93506147888185602086016154ab565b61479181615668565b840191505092915050565b60006147a7826152bd565b6147b181856152f7565b93506147c18185602086016154ab565b6147ca81615668565b840191505092915050565b60006147e0826152bd565b6147ea8185615308565b93506147fa8185602086016154ab565b80840191505092915050565b60006148136034836152f7565b915061481e82615686565b604082019050919050565b60006148366028836152f7565b9150614841826156d5565b604082019050919050565b60006148596008836152f7565b915061486482615724565b602082019050919050565b600061487c602b836152f7565b91506148878261574d565b604082019050919050565b600061489f6007836152f7565b91506148aa8261579c565b602082019050919050565b60006148c26008836152f7565b91506148cd826157c5565b602082019050919050565b60006148e56029836152f7565b91506148f0826157ee565b604082019050919050565b6000614908600b836152f7565b91506149138261583d565b602082019050919050565b600061492b6018836152f7565b915061493682615866565b602082019050919050565b600061494e6025836152f7565b91506149598261588f565b604082019050919050565b60006149716032836152f7565b915061497c826158de565b604082019050919050565b60006149946013836152f7565b915061499f8261592d565b602082019050919050565b60006149b7602a836152f7565b91506149c282615956565b604082019050919050565b60006149da6011836152f7565b91506149e5826159a5565b602082019050919050565b60006149fd601f836152f7565b9150614a08826159ce565b602082019050919050565b6000614a206018836152f7565b9150614a2b826159f7565b602082019050919050565b6000614a43601a836152f7565b9150614a4e82615a20565b602082019050919050565b6000614a66600c836152f7565b9150614a7182615a49565b602082019050919050565b6000614a896010836152f7565b9150614a9482615a72565b602082019050919050565b6000614aac6029836152f7565b9150614ab782615a9b565b604082019050919050565b6000614acf600b836152f7565b9150614ada82615aea565b602082019050919050565b6000614af26028836152f7565b9150614afd82615b13565b604082019050919050565b6000614b156021836152f7565b9150614b2082615b62565b604082019050919050565b614b3481615492565b82525050565b614b4381615492565b82525050565b6000614b5582846147d5565b915081905092915050565b6000602082019050614b7560008301846146e7565b92915050565b600060a082019050614b9060008301886146e7565b614b9d60208301876146e7565b8181036040830152614baf81866146f6565b90508181036060830152614bc381856146f6565b90508181036080830152614bd78184614763565b90509695505050505050565b600060a082019050614bf860008301886146e7565b614c0560208301876146e7565b614c126040830186614b3a565b614c1f6060830185614b3a565b8181036080830152614c318184614763565b90509695505050505050565b60006020820190508181036000830152614c5781846146f6565b905092915050565b60006040820190508181036000830152614c7981856146f6565b90508181036020830152614c8d81846146f6565b90509392505050565b6000602082019050614cab6000830184614754565b92915050565b60006020820190508181036000830152614ccb818461479c565b905092915050565b600060c0820190508181036000830152614ced818961479c565b9050614cfc60208301886146e7565b614d0960408301876146e7565b614d166060830186614b3a565b614d236080830185614754565b81810360a0830152614d35818461479c565b9050979650505050505050565b60006080820190508181036000830152614d5c818661479c565b90508181036020830152614d6f8161484c565b9050614d7e60408301856146e7565b614d8b60608301846146e7565b949350505050565b60006080820190508181036000830152614dad818661479c565b90508181036020830152614dc081614892565b9050614dcf60408301856146e7565b614ddc60608301846146e7565b949350505050565b60006080820190508181036000830152614dfe818661479c565b90508181036020830152614e11816148b5565b9050614e2060408301856146e7565b614e2d60608301846146e7565b949350505050565b60006080820190508181036000830152614e4f818661479c565b90508181036020830152614e62816148fb565b9050614e7160408301856146e7565b614e7e60608301846146e7565b949350505050565b60006080820190508181036000830152614ea0818661479c565b90508181036020830152614eb381614a59565b9050614ec260408301856146e7565b614ecf60608301846146e7565b949350505050565b60006080820190508181036000830152614ef1818661479c565b90508181036020830152614f0481614ac2565b9050614f1360408301856146e7565b614f2060608301846146e7565b949350505050565b60006020820190508181036000830152614f4181614806565b9050919050565b60006020820190508181036000830152614f6181614829565b9050919050565b60006020820190508181036000830152614f818161486f565b9050919050565b60006020820190508181036000830152614fa1816148d8565b9050919050565b60006020820190508181036000830152614fc18161491e565b9050919050565b60006020820190508181036000830152614fe181614941565b9050919050565b6000602082019050818103600083015261500181614964565b9050919050565b6000602082019050818103600083015261502181614987565b9050919050565b60006020820190508181036000830152615041816149aa565b9050919050565b60006020820190508181036000830152615061816149cd565b9050919050565b60006020820190508181036000830152615081816149f0565b9050919050565b600060208201905081810360008301526150a181614a13565b9050919050565b600060208201905081810360008301526150c181614a36565b9050919050565b600060208201905081810360008301526150e181614a7c565b9050919050565b6000602082019050818103600083015261510181614a9f565b9050919050565b6000602082019050818103600083015261512181614ae5565b9050919050565b6000602082019050818103600083015261514181614b08565b9050919050565b600060208201905061515d6000830184614b3a565b92915050565b60006040820190506151786000830185614b3a565b6151856020830184614b3a565b9392505050565b60006151966151a7565b90506151a28282615510565b919050565b6000604051905090565b600067ffffffffffffffff8211156151cc576151cb615617565b5b602082029050602081019050919050565b600067ffffffffffffffff8211156151f8576151f7615617565b5b602082029050602081019050919050565b600067ffffffffffffffff82111561522457615223615617565b5b602082029050602081019050919050565b600067ffffffffffffffff8211156152505761524f615617565b5b61525982615668565b9050602081019050919050565b600067ffffffffffffffff82111561528157615280615617565b5b61528a82615668565b9050602081019050919050565b6000819050602082019050919050565b600081519050919050565b600081519050919050565b600081519050919050565b6000602082019050919050565b600082825260208201905092915050565b600082825260208201905092915050565b600082825260208201905092915050565b600081905092915050565b600061531e82615492565b915061532983615492565b9250827fffffffffffffffffffffffffffffffffffffffffffffffffffffffffffffffff0382111561535e5761535d61558a565b5b828201905092915050565b600061537482615492565b915061537f83615492565b92508261538f5761538e6155b9565b5b828204905092915050565b60006153a582615492565b91506153b083615492565b9250817fffffffffffffffffffffffffffffffffffffffffffffffffffffffffffffffff04831182151516156153e9576153e861558a565b5b828202905092915050565b60006153ff82615492565b915061540a83615492565b92508282101561541d5761541c61558a565b5b828203905092915050565b600061543382615472565b9050919050565b60008115159050919050565b60007fffffffff0000000000000000000000000000000000000000000000000000000082169050919050565b600073ffffffffffffffffffffffffffffffffffffffff82169050919050565b6000819050919050565b82818337600083830152505050565b60005b838110156154c95780820151818401526020810190506154ae565b838111156154d8576000848401525b50505050565b600060028204905060018216806154f657607f821691505b6020821081141561550a576155096155e8565b5b50919050565b61551982615668565b810181811067ffffffffffffffff8211171561553857615537615617565b5b80604052505050565b600061554c82615492565b91507fffffffffffffffffffffffffffffffffffffffffffffffffffffffffffffffff82141561557f5761557e61558a565b5b600182019050919050565b7f4e487b7100000000000000000000000000000000000000000000000000000000600052601160045260246000fd5b7f4e487b7100000000000000000000000000000000000000000000000000000000600052601260045260246000fd5b7f4e487b7100000000000000000000000000000000000000000000000000000000600052602260045260246000fd5b7f4e487b7100000000000000000000000000000000000000000000000000000000600052604160045260246000fd5b600060033d11156156655760046000803e615662600051615679565b90505b90565b6000601f19601f8301169050919050565b60008160e01c9050919050565b7f455243313135353a207472616e7366657220746f206e6f6e204552433131353560008201527f526563656976657220696d706c656d656e746572000000000000000000000000602082015250565b7f455243313135353a204552433131353552656365697665722072656a6563746560008201527f6420746f6b656e73000000000000000000000000000000000000000000000000602082015250565b7f7365745f70616964000000000000000000000000000000000000000000000000600082015250565b7f455243313135353a2062616c616e636520717565727920666f7220746865207a60008201527f65726f2061646472657373000000000000000000000000000000000000000000602082015250565b7f7061796d656e7400000000000000000000000000000000000000000000000000600082015250565b7f636c656172696e67000000000000000000000000000000000000000000000000600082015250565b7f455243313135353a2063616c6c6572206973206e6f74206f776e6572206e6f7260008201527f20617070726f7665640000000000000000000000000000000000000000000000602082015250565b7f65786368616e67655f696e000000000000000000000000000000000000000000600082015250565b7f4d502043414e4e4f54204d494e5420544f20495453454c460000000000000000600082015250565b7f455243313135353a207472616e7366657220746f20746865207a65726f20616460008201527f6472657373000000000000000000000000000000000000000000000000000000602082015250565b7f455243313135353a207472616e736665722063616c6c6572206973206e6f742060008201527f6f776e6572206e6f7220617070726f7665640000000000000000000000000000602082015250565b7f57524f4e472043555252454e542056414c554500000000000000000000000000600082015250565b7f455243313135353a20696e73756666696369656e742062616c616e636520666f60008201527f72207472616e7366657200000000000000000000000000000000000000000000602082015250565b7f4e4f5420454e4f55474820544f4b454e53000000000000000000000000000000600082015250565b7f4f4e4c592052454345495645522043414e204348414e47452049535041494400600082015250565b7f4e4f5420454e4f55474820544f4b454e20414c4c4f5745440000000000000000600082015250565b7f4f4e4c5920544845204d502043414e2041444420495453454c46000000000000600082015250565b7f65786368616e67655f6f75740000000000000000000000000000000000000000600082015250565b7f4d5020414c524541445920414444454400000000000000000000000000000000600082015250565b7f455243313135353a206163636f756e747320616e6420696473206c656e67746860008201527f206d69736d617463680000000000000000000000000000000000000000000000602082015250565b7f6665655f7061796d656e74000000000000000000000000000000000000000000600082015250565b7f455243313135353a2069647320616e6420616d6f756e7473206c656e6774682060008201527f6d69736d61746368000000000000000000000000000000000000000000000000602082015250565b7f455243313135353a206d696e7420746f20746865207a65726f2061646472657360008201527f7300000000000000000000000000000000000000000000000000000000000000602082015250565b600060443d1015615bc157615c44565b615bc96151a7565b60043d036004823e80513d602482011167ffffffffffffffff82111715615bf1575050615c44565b808201805167ffffffffffffffff811115615c0f5750505050615c44565b80602083010160043d038501811115615c2c575050505050615c44565b615c3b82602001850186615510565b82955050505050505b90565b615c5081615428565b8114615c5b57600080fd5b50565b615c678161543a565b8114615c7257600080fd5b50565b615c7e81615446565b8114615c8957600080fd5b50565b615c9581615492565b8114615ca057600080fd5b5056fea2646970667358221220d7f4aa410f6a0f38bb2e3b50339337d44ffc581a3f7257b30e0bef437d27be3164736f6c6343000801003368747470733a2f2f69336d61726b65742e636f6d2f6d61726b6574706c6163652f7b69647d2e6a736f6e",
  "immutableReferences": {},
  "source": "/**\n* Copyright (c) 2020-2022 in alphabetical order:\n* GFT, HOPU\n*\n* This program and the accompanying materials are made\n* available under the terms of the EUROPEAN UNION PUBLIC LICENCE v. 1.2\n* which is available at https://gitlab.com/i3-market/code/wp3/t3.3/tokenization/-/blob/main/LICENSE\n*\n* License-Identifier: Apache 2.0\n*\n* Contributors:\n*    Luca Marangoni (GFT)\n*    German Molina Carrasco (HOPU)\n*\n*/\n\npragma solidity >=0.7.0 <0.9.0;\npragma abicoder v2;\n\nimport \"./Treasury.sol\";\n\ncontract TreasuryWithAllowance is I3MarketTreasury {\n    mapping(address => mapping(address => uint256)) private _allowed;\n\n    constructor() I3MarketTreasury() {\n\n    }\n\n    /**\n     * @dev Emitted when the allowance of a `spender` for an `owner` is set by\n     * a call to {approve}. `value` is the new allowance.\n     */\n    event Approval(address indexed _owner, address indexed _spender, uint256 _oldValue, uint256 _value);\n\n    /**\n     * @dev Function to check the amount of tokens that an owner allowed to a spender.\n     * @param owner address The address which owns the funds.\n     * @param spender address The address which will spend the funds.\n     * @return A uint256 specifying the amount of tokens still available for the spender.\n     */\n    function allowance(address owner, address spender) public view returns (uint256)    {\n        return _allowed[owner][spender];\n    }\n\n    /**\n     * @dev Approve the passed address to spend the specified amount of tokens on behalf of msg.sender.\n     * Beware that changing an allowance with this method brings the risk that someone may use both the old\n     * and the new allowance by unfortunate transaction ordering. One possible solution to mitigate this\n     * race condition is to first reduce the spender's allowance to 0 and set the desired value afterwards:\n     * https://github.com/ethereum/EIPs/issues/20#issuecomment-263524729\n     * @param spender The address which will spend the funds.\n     * @param value The amount of tokens to be spent.\n     */\n    function approve(address spender, uint256 currentValue, uint256 value) public returns (bool)\n    {\n        require(_allowed[msg.sender][spender] == currentValue, 'WRONG CURRENT VALUE');\n        require(spender != address(0));\n\n        _allowed[msg.sender][spender] = value;\n        //emit Approval(msg.sender, spender, currentValue, value);\n        return true;\n    }\n\n\n    /**\n     * @dev Transfer tokens from one address to another\n     * @param transferId unique id of the transfer\n     * @param from address The address which you want to send tokens from\n     * @param to address The address which you want to transfer to\n     * @param value uint256 the amount of tokens to be transferred\n     */\n    function allowanceTransfer(string memory transferId, address from, address to, uint256 value) public returns (bool)\n    {\n        require(value <= _allowed[from][msg.sender], 'NOT ENOUGH TOKEN ALLOWED');\n        require(to != address(0));\n\n        super._transferFrom(from, to, value);\n        _allowed[from][msg.sender] = _allowed[from][msg.sender] - value;\n\n        txs[transferId] = TokenTransfer(transferId, from, to, value, false, \"\");\n        //emit TokenTransferred(transferId, \"payment\", msg.sender, to);\n        return true;\n    }\n\n    /**\n     * @dev See {IERC1155-isApprovedForAll}.\n     * @param account address of the owner of the tokens\n     * @param account address of the spender of the tokens\n     */\n    function isApprovedForAll(address account, address operator) public view virtual override returns (bool) {\n        return _allowed[account][operator] > 0;\n    }\n\n    /**\n        @notice Enable or disable approval for a third party (\"operator\") to manage all of `msg.sender`'s tokens.\n        @dev MUST emit the ApprovalForAll event on success.\n    */\n    function setApprovalForAll(address operator, bool approved) public virtual override  {\n        // Do this on the wrapped contract directly. We can't do this here\n        revert();\n    }\n}\n",
  "sourcePath": "/home/hopu/PycharmProjects/i3-market-tokenization/contracts/TreasuryWithAllowance.sol",
  "compiler": {
    "name": "solc",
    "version": "0.8.1+commit.df193b15.Emscripten.clang"
  },
  "schemaVersion": "3.4.3",
  "updatedAt": "2022-05-20T09:34:10.291Z",
  "networkType": "ethereum",
  "devdoc": {
    "events": {
      "Approval(address,address,uint256,uint256)": {
        "details": "Emitted when the allowance of a `spender` for an `owner` is set by a call to {approve}. `value` is the new allowance."
      }
    },
    "kind": "dev",
    "methods": {
      "allowance(address,address)": {
        "details": "Function to check the amount of tokens that an owner allowed to a spender.",
        "params": {
          "owner": "address The address which owns the funds.",
          "spender": "address The address which will spend the funds."
        },
        "returns": {
          "_0": "A uint256 specifying the amount of tokens still available for the spender."
        }
      },
      "allowanceTransfer(string,address,address,uint256)": {
        "details": "Transfer tokens from one address to another",
        "params": {
          "from": "address The address which you want to send tokens from",
          "to": "address The address which you want to transfer to",
          "transferId": "unique id of the transfer",
          "value": "uint256 the amount of tokens to be transferred"
        }
      },
      "approve(address,uint256,uint256)": {
        "details": "Approve the passed address to spend the specified amount of tokens on behalf of msg.sender. Beware that changing an allowance with this method brings the risk that someone may use both the old and the new allowance by unfortunate transaction ordering. One possible solution to mitigate this race condition is to first reduce the spender's allowance to 0 and set the desired value afterwards: https://github.com/ethereum/EIPs/issues/20#issuecomment-263524729",
        "params": {
          "spender": "The address which will spend the funds.",
          "value": "The amount of tokens to be spent."
        }
      },
      "balanceOf(address,uint256)": {
        "details": "See {IERC1155-balanceOf}. Requirements: - `account` cannot be the zero address."
      },
      "balanceOfBatch(address[],uint256[])": {
        "details": "See {IERC1155-balanceOfBatch}. Requirements: - `accounts` and `ids` must have the same length."
      },
      "isApprovedForAll(address,address)": {
        "details": "See {IERC1155-isApprovedForAll}.",
        "params": {
          "account": "address of the spender of the tokens"
        }
      },
      "safeBatchTransferFrom(address,address,uint256[],uint256[],bytes)": {
        "details": "See {IERC1155-safeBatchTransferFrom}."
      },
      "safeTransferFrom(address,address,uint256,uint256,bytes)": {
        "details": "See {IERC1155-safeTransferFrom}."
      },
      "setApprovalForAll(address,bool)": {
        "details": "MUST emit the ApprovalForAll event on success."
      },
      "supportsInterface(bytes4)": {
        "details": "See {IERC165-supportsInterface}."
      },
      "uri(uint256)": {
        "details": "See {IERC1155MetadataURI-uri}. This implementation returns the same URI for *all* token types. It relies on the token type ID substitution mechanism https://eips.ethereum.org/EIPS/eip-1155#metadata[defined in the EIP]. Clients calling this function must replace the `\\{id\\}` substring with the actual token type ID."
      }
    },
    "version": 1
  },
  "userdoc": {
    "kind": "user",
    "methods": {
      "setApprovalForAll(address,bool)": {
        "notice": "Enable or disable approval for a third party (\"operator\") to manage all of `msg.sender`'s tokens."
      }
    },
    "version": 1
  }
}